{
	"contracts/fixed-rate-staking-contract/FixedRateStaking_flattened.sol": {
		"FixedStaking": {
			"abi": [
				{
					"inputs": [],
					"stateMutability": "nonpayable",
					"type": "constructor"
				},
				{
					"inputs": [
						{
							"internalType": "address",
							"name": "spender",
							"type": "address"
						},
						{
							"internalType": "uint256",
							"name": "allowance",
							"type": "uint256"
						},
						{
							"internalType": "uint256",
							"name": "needed",
							"type": "uint256"
						}
					],
					"name": "ERC20InsufficientAllowance",
					"type": "error"
				},
				{
					"inputs": [
						{
							"internalType": "address",
							"name": "sender",
							"type": "address"
						},
						{
							"internalType": "uint256",
							"name": "balance",
							"type": "uint256"
						},
						{
							"internalType": "uint256",
							"name": "needed",
							"type": "uint256"
						}
					],
					"name": "ERC20InsufficientBalance",
					"type": "error"
				},
				{
					"inputs": [
						{
							"internalType": "address",
							"name": "approver",
							"type": "address"
						}
					],
					"name": "ERC20InvalidApprover",
					"type": "error"
				},
				{
					"inputs": [
						{
							"internalType": "address",
							"name": "receiver",
							"type": "address"
						}
					],
					"name": "ERC20InvalidReceiver",
					"type": "error"
				},
				{
					"inputs": [
						{
							"internalType": "address",
							"name": "sender",
							"type": "address"
						}
					],
					"name": "ERC20InvalidSender",
					"type": "error"
				},
				{
					"inputs": [
						{
							"internalType": "address",
							"name": "spender",
							"type": "address"
						}
					],
					"name": "ERC20InvalidSpender",
					"type": "error"
				},
				{
					"anonymous": false,
					"inputs": [
						{
							"indexed": true,
							"internalType": "address",
							"name": "owner",
							"type": "address"
						},
						{
							"indexed": true,
							"internalType": "address",
							"name": "spender",
							"type": "address"
						},
						{
							"indexed": false,
							"internalType": "uint256",
							"name": "value",
							"type": "uint256"
						}
					],
					"name": "Approval",
					"type": "event"
				},
				{
					"anonymous": false,
					"inputs": [
						{
							"indexed": true,
							"internalType": "address",
							"name": "from",
							"type": "address"
						},
						{
							"indexed": true,
							"internalType": "address",
							"name": "to",
							"type": "address"
						},
						{
							"indexed": false,
							"internalType": "uint256",
							"name": "value",
							"type": "uint256"
						}
					],
					"name": "Transfer",
					"type": "event"
				},
				{
					"inputs": [
						{
							"internalType": "address",
							"name": "owner",
							"type": "address"
						},
						{
							"internalType": "address",
							"name": "spender",
							"type": "address"
						}
					],
					"name": "allowance",
					"outputs": [
						{
							"internalType": "uint256",
							"name": "",
							"type": "uint256"
						}
					],
					"stateMutability": "view",
					"type": "function"
				},
				{
					"inputs": [
						{
							"internalType": "address",
							"name": "spender",
							"type": "address"
						},
						{
							"internalType": "uint256",
							"name": "value",
							"type": "uint256"
						}
					],
					"name": "approve",
					"outputs": [
						{
							"internalType": "bool",
							"name": "",
							"type": "bool"
						}
					],
					"stateMutability": "nonpayable",
					"type": "function"
				},
				{
					"inputs": [
						{
							"internalType": "address",
							"name": "account",
							"type": "address"
						}
					],
					"name": "balanceOf",
					"outputs": [
						{
							"internalType": "uint256",
							"name": "",
							"type": "uint256"
						}
					],
					"stateMutability": "view",
					"type": "function"
				},
				{
					"inputs": [],
					"name": "claim",
					"outputs": [],
					"stateMutability": "nonpayable",
					"type": "function"
				},
				{
					"inputs": [],
					"name": "decimals",
					"outputs": [
						{
							"internalType": "uint8",
							"name": "",
							"type": "uint8"
						}
					],
					"stateMutability": "view",
					"type": "function"
				},
				{
					"inputs": [],
					"name": "name",
					"outputs": [
						{
							"internalType": "string",
							"name": "",
							"type": "string"
						}
					],
					"stateMutability": "view",
					"type": "function"
				},
				{
					"inputs": [
						{
							"internalType": "uint256",
							"name": "amount",
							"type": "uint256"
						}
					],
					"name": "stake",
					"outputs": [],
					"stateMutability": "nonpayable",
					"type": "function"
				},
				{
					"inputs": [
						{
							"internalType": "address",
							"name": "",
							"type": "address"
						}
					],
					"name": "staked",
					"outputs": [
						{
							"internalType": "uint256",
							"name": "",
							"type": "uint256"
						}
					],
					"stateMutability": "view",
					"type": "function"
				},
				{
					"inputs": [],
					"name": "symbol",
					"outputs": [
						{
							"internalType": "string",
							"name": "",
							"type": "string"
						}
					],
					"stateMutability": "view",
					"type": "function"
				},
				{
					"inputs": [],
					"name": "totalSupply",
					"outputs": [
						{
							"internalType": "uint256",
							"name": "",
							"type": "uint256"
						}
					],
					"stateMutability": "view",
					"type": "function"
				},
				{
					"inputs": [
						{
							"internalType": "address",
							"name": "to",
							"type": "address"
						},
						{
							"internalType": "uint256",
							"name": "value",
							"type": "uint256"
						}
					],
					"name": "transfer",
					"outputs": [
						{
							"internalType": "bool",
							"name": "",
							"type": "bool"
						}
					],
					"stateMutability": "nonpayable",
					"type": "function"
				},
				{
					"inputs": [
						{
							"internalType": "address",
							"name": "from",
							"type": "address"
						},
						{
							"internalType": "address",
							"name": "to",
							"type": "address"
						},
						{
							"internalType": "uint256",
							"name": "value",
							"type": "uint256"
						}
					],
					"name": "transferFrom",
					"outputs": [
						{
							"internalType": "bool",
							"name": "",
							"type": "bool"
						}
					],
					"stateMutability": "nonpayable",
					"type": "function"
				},
				{
					"inputs": [
						{
							"internalType": "uint256",
							"name": "amount",
							"type": "uint256"
						}
					],
					"name": "unstake",
					"outputs": [],
					"stateMutability": "nonpayable",
					"type": "function"
				}
			],
			"devdoc": {
				"errors": {
					"ERC20InsufficientAllowance(address,uint256,uint256)": [
						{
							"details": "Indicates a failure with the `spender`’s `allowance`. Used in transfers.",
							"params": {
								"allowance": "Amount of tokens a `spender` is allowed to operate with.",
								"needed": "Minimum amount required to perform a transfer.",
								"spender": "Address that may be allowed to operate on tokens without being their owner."
							}
						}
					],
					"ERC20InsufficientBalance(address,uint256,uint256)": [
						{
							"details": "Indicates an error related to the current `balance` of a `sender`. Used in transfers.",
							"params": {
								"balance": "Current balance for the interacting account.",
								"needed": "Minimum amount required to perform a transfer.",
								"sender": "Address whose tokens are being transferred."
							}
						}
					],
					"ERC20InvalidApprover(address)": [
						{
							"details": "Indicates a failure with the `approver` of a token to be approved. Used in approvals.",
							"params": {
								"approver": "Address initiating an approval operation."
							}
						}
					],
					"ERC20InvalidReceiver(address)": [
						{
							"details": "Indicates a failure with the token `receiver`. Used in transfers.",
							"params": {
								"receiver": "Address to which tokens are being transferred."
							}
						}
					],
					"ERC20InvalidSender(address)": [
						{
							"details": "Indicates a failure with the token `sender`. Used in transfers.",
							"params": {
								"sender": "Address whose tokens are being transferred."
							}
						}
					],
					"ERC20InvalidSpender(address)": [
						{
							"details": "Indicates a failure with the `spender` to be approved. Used in approvals.",
							"params": {
								"spender": "Address that may be allowed to operate on tokens without being their owner."
							}
						}
					]
				},
				"events": {
					"Approval(address,address,uint256)": {
						"details": "Emitted when the allowance of a `spender` for an `owner` is set by a call to {approve}. `value` is the new allowance."
					},
					"Transfer(address,address,uint256)": {
						"details": "Emitted when `value` tokens are moved from one account (`from`) to another (`to`). Note that `value` may be zero."
					}
				},
				"kind": "dev",
				"methods": {
					"allowance(address,address)": {
						"details": "See {IERC20-allowance}."
					},
					"approve(address,uint256)": {
						"details": "See {IERC20-approve}. NOTE: If `value` is the maximum `uint256`, the allowance is not updated on `transferFrom`. This is semantically equivalent to an infinite approval. Requirements: - `spender` cannot be the zero address."
					},
					"balanceOf(address)": {
						"details": "See {IERC20-balanceOf}."
					},
					"decimals()": {
						"details": "Returns the number of decimals used to get its user representation. For example, if `decimals` equals `2`, a balance of `505` tokens should be displayed to a user as `5.05` (`505 / 10 ** 2`). Tokens usually opt for a value of 18, imitating the relationship between Ether and Wei. This is the default value returned by this function, unless it's overridden. NOTE: This information is only used for _display_ purposes: it in no way affects any of the arithmetic of the contract, including {IERC20-balanceOf} and {IERC20-transfer}."
					},
					"name()": {
						"details": "Returns the name of the token."
					},
					"symbol()": {
						"details": "Returns the symbol of the token, usually a shorter version of the name."
					},
					"totalSupply()": {
						"details": "See {IERC20-totalSupply}."
					},
					"transfer(address,uint256)": {
						"details": "See {IERC20-transfer}. Requirements: - `to` cannot be the zero address. - the caller must have a balance of at least `value`."
					},
					"transferFrom(address,address,uint256)": {
						"details": "See {IERC20-transferFrom}. Emits an {Approval} event indicating the updated allowance. This is not required by the EIP. See the note at the beginning of {ERC20}. NOTE: Does not update the allowance if the current allowance is the maximum `uint256`. Requirements: - `from` and `to` cannot be the zero address. - `from` must have a balance of at least `value`. - the caller must have allowance for ``from``'s tokens of at least `value`."
					}
				},
				"version": 1
			},
			"evm": {
				"assembly": "    /* \"contracts/fixed-rate-staking-contract/FixedRateStaking_flattened.sol\":22134:24793  contract FixedStaking is ERC20 {... */\n  mstore(0x40, 0x80)\n    /* \"contracts/fixed-rate-staking-contract/FixedRateStaking_flattened.sol\":22421:22520  constructor() ERC20(\"Fixed Staking\", \"FIX\") {... */\n  callvalue\n  dup1\n  iszero\n  tag_1\n  jumpi\n  0x00\n  dup1\n  revert\ntag_1:\n  pop\n    /* \"contracts/fixed-rate-staking-contract/FixedRateStaking_flattened.sol\":12788:12901  constructor(string memory name_, string memory symbol_) {... */\n  mload(0x40)\n  dup1\n  0x40\n  add\n  0x40\n  mstore\n  dup1\n  0x0d\n  dup2\n  mstore\n  0x20\n  add\n  0x4669786564205374616b696e6700000000000000000000000000000000000000\n  dup2\n  mstore\n  pop\n  mload(0x40)\n  dup1\n  0x40\n  add\n  0x40\n  mstore\n  dup1\n  0x03\n  dup2\n  mstore\n  0x20\n  add\n  0x4649580000000000000000000000000000000000000000000000000000000000\n  dup2\n  mstore\n  pop\n    /* \"contracts/fixed-rate-staking-contract/FixedRateStaking_flattened.sol\":12862:12867  name_ */\n  dup2\n    /* \"contracts/fixed-rate-staking-contract/FixedRateStaking_flattened.sol\":12854:12859  _name */\n  0x03\n    /* \"contracts/fixed-rate-staking-contract/FixedRateStaking_flattened.sol\":12854:12867  _name = name_ */\n  swap1\n  dup2\n  tag_5\n  swap2\n  swap1\n  tag_6\n  jump\t// in\ntag_5:\n  pop\n    /* \"contracts/fixed-rate-staking-contract/FixedRateStaking_flattened.sol\":12887:12894  symbol_ */\n  dup1\n    /* \"contracts/fixed-rate-staking-contract/FixedRateStaking_flattened.sol\":12877:12884  _symbol */\n  0x04\n    /* \"contracts/fixed-rate-staking-contract/FixedRateStaking_flattened.sol\":12877:12894  _symbol = symbol_ */\n  swap1\n  dup2\n  tag_7\n  swap2\n  swap1\n  tag_6\n  jump\t// in\ntag_7:\n  pop\n    /* \"contracts/fixed-rate-staking-contract/FixedRateStaking_flattened.sol\":12788:12901  constructor(string memory name_, string memory symbol_) {... */\n  pop\n  pop\n    /* \"contracts/fixed-rate-staking-contract/FixedRateStaking_flattened.sol\":22475:22513  _mint(msg.sender, 1000000000000000000) */\n  tag_9\n    /* \"contracts/fixed-rate-staking-contract/FixedRateStaking_flattened.sol\":22481:22491  msg.sender */\n  caller\n    /* \"contracts/fixed-rate-staking-contract/FixedRateStaking_flattened.sol\":22493:22512  1000000000000000000 */\n  0x0de0b6b3a7640000\n    /* \"contracts/fixed-rate-staking-contract/FixedRateStaking_flattened.sol\":22475:22480  _mint */\n  shl(0x20, tag_10)\n    /* \"contracts/fixed-rate-staking-contract/FixedRateStaking_flattened.sol\":22475:22513  _mint(msg.sender, 1000000000000000000) */\n  0x20\n  shr\n  jump\t// in\ntag_9:\n    /* \"contracts/fixed-rate-staking-contract/FixedRateStaking_flattened.sol\":22134:24793  contract FixedStaking is ERC20 {... */\n  jump(tag_11)\n    /* \"contracts/fixed-rate-staking-contract/FixedRateStaking_flattened.sol\":18613:18821  function _mint(address account, uint256 value) internal {... */\ntag_10:\n    /* \"contracts/fixed-rate-staking-contract/FixedRateStaking_flattened.sol\":18702:18703  0 */\n  0x00\n    /* \"contracts/fixed-rate-staking-contract/FixedRateStaking_flattened.sol\":18683:18704  account == address(0) */\n  0xffffffffffffffffffffffffffffffffffffffff\n  and\n    /* \"contracts/fixed-rate-staking-contract/FixedRateStaking_flattened.sol\":18683:18690  account */\n  dup3\n    /* \"contracts/fixed-rate-staking-contract/FixedRateStaking_flattened.sol\":18683:18704  account == address(0) */\n  0xffffffffffffffffffffffffffffffffffffffff\n  and\n  sub\n    /* \"contracts/fixed-rate-staking-contract/FixedRateStaking_flattened.sol\":18679:18770  if (account == address(0)) {... */\n  tag_13\n  jumpi\n    /* \"contracts/fixed-rate-staking-contract/FixedRateStaking_flattened.sol\":18756:18757  0 */\n  0x00\n    /* \"contracts/fixed-rate-staking-contract/FixedRateStaking_flattened.sol\":18727:18759  ERC20InvalidReceiver(address(0)) */\n  mload(0x40)\n  0xec442f0500000000000000000000000000000000000000000000000000000000\n  dup2\n  mstore\n  0x04\n  add\n  tag_14\n  swap2\n  swap1\n  tag_15\n  jump\t// in\ntag_14:\n  mload(0x40)\n  dup1\n  swap2\n  sub\n  swap1\n  revert\n    /* \"contracts/fixed-rate-staking-contract/FixedRateStaking_flattened.sol\":18679:18770  if (account == address(0)) {... */\ntag_13:\n    /* \"contracts/fixed-rate-staking-contract/FixedRateStaking_flattened.sol\":18779:18814  _update(address(0), account, value) */\n  tag_16\n    /* \"contracts/fixed-rate-staking-contract/FixedRateStaking_flattened.sol\":18795:18796  0 */\n  0x00\n    /* \"contracts/fixed-rate-staking-contract/FixedRateStaking_flattened.sol\":18799:18806  account */\n  dup4\n    /* \"contracts/fixed-rate-staking-contract/FixedRateStaking_flattened.sol\":18808:18813  value */\n  dup4\n    /* \"contracts/fixed-rate-staking-contract/FixedRateStaking_flattened.sol\":18779:18786  _update */\n  shl(0x20, tag_17)\n    /* \"contracts/fixed-rate-staking-contract/FixedRateStaking_flattened.sol\":18779:18814  _update(address(0), account, value) */\n  0x20\n  shr\n  jump\t// in\ntag_16:\n    /* \"contracts/fixed-rate-staking-contract/FixedRateStaking_flattened.sol\":18613:18821  function _mint(address account, uint256 value) internal {... */\n  pop\n  pop\n  jump\t// out\n    /* \"contracts/fixed-rate-staking-contract/FixedRateStaking_flattened.sol\":17163:18270  function _update(address from, address to, uint256 value) internal virtual {... */\ntag_17:\n    /* \"contracts/fixed-rate-staking-contract/FixedRateStaking_flattened.sol\":17268:17269  0 */\n  0x00\n    /* \"contracts/fixed-rate-staking-contract/FixedRateStaking_flattened.sol\":17252:17270  from == address(0) */\n  0xffffffffffffffffffffffffffffffffffffffff\n  and\n    /* \"contracts/fixed-rate-staking-contract/FixedRateStaking_flattened.sol\":17252:17256  from */\n  dup4\n    /* \"contracts/fixed-rate-staking-contract/FixedRateStaking_flattened.sol\":17252:17270  from == address(0) */\n  0xffffffffffffffffffffffffffffffffffffffff\n  and\n  sub\n    /* \"contracts/fixed-rate-staking-contract/FixedRateStaking_flattened.sol\":17248:17788  if (from == address(0)) {... */\n  tag_19\n  jumpi\n    /* \"contracts/fixed-rate-staking-contract/FixedRateStaking_flattened.sol\":17404:17409  value */\n  dup1\n    /* \"contracts/fixed-rate-staking-contract/FixedRateStaking_flattened.sol\":17388:17400  _totalSupply */\n  0x02\n  0x00\n    /* \"contracts/fixed-rate-staking-contract/FixedRateStaking_flattened.sol\":17388:17409  _totalSupply += value */\n  dup3\n  dup3\n  sload\n  tag_20\n  swap2\n  swap1\n  tag_21\n  jump\t// in\ntag_20:\n  swap3\n  pop\n  pop\n  dup2\n  swap1\n  sstore\n  pop\n    /* \"contracts/fixed-rate-staking-contract/FixedRateStaking_flattened.sol\":17248:17788  if (from == address(0)) {... */\n  jump(tag_22)\ntag_19:\n    /* \"contracts/fixed-rate-staking-contract/FixedRateStaking_flattened.sol\":17440:17459  uint256 fromBalance */\n  0x00\n    /* \"contracts/fixed-rate-staking-contract/FixedRateStaking_flattened.sol\":17462:17471  _balances */\n  dup1\n    /* \"contracts/fixed-rate-staking-contract/FixedRateStaking_flattened.sol\":17462:17477  _balances[from] */\n  0x00\n    /* \"contracts/fixed-rate-staking-contract/FixedRateStaking_flattened.sol\":17472:17476  from */\n  dup6\n    /* \"contracts/fixed-rate-staking-contract/FixedRateStaking_flattened.sol\":17462:17477  _balances[from] */\n  0xffffffffffffffffffffffffffffffffffffffff\n  and\n  0xffffffffffffffffffffffffffffffffffffffff\n  and\n  dup2\n  mstore\n  0x20\n  add\n  swap1\n  dup2\n  mstore\n  0x20\n  add\n  0x00\n  keccak256\n  sload\n    /* \"contracts/fixed-rate-staking-contract/FixedRateStaking_flattened.sol\":17440:17477  uint256 fromBalance = _balances[from] */\n  swap1\n  pop\n    /* \"contracts/fixed-rate-staking-contract/FixedRateStaking_flattened.sol\":17509:17514  value */\n  dup2\n    /* \"contracts/fixed-rate-staking-contract/FixedRateStaking_flattened.sol\":17495:17506  fromBalance */\n  dup2\n    /* \"contracts/fixed-rate-staking-contract/FixedRateStaking_flattened.sol\":17495:17514  fromBalance < value */\n  lt\n    /* \"contracts/fixed-rate-staking-contract/FixedRateStaking_flattened.sol\":17491:17606  if (fromBalance < value) {... */\n  iszero\n  tag_23\n  jumpi\n    /* \"contracts/fixed-rate-staking-contract/FixedRateStaking_flattened.sol\":17566:17570  from */\n  dup4\n    /* \"contracts/fixed-rate-staking-contract/FixedRateStaking_flattened.sol\":17572:17583  fromBalance */\n  dup2\n    /* \"contracts/fixed-rate-staking-contract/FixedRateStaking_flattened.sol\":17585:17590  value */\n  dup4\n    /* \"contracts/fixed-rate-staking-contract/FixedRateStaking_flattened.sol\":17541:17591  ERC20InsufficientBalance(from, fromBalance, value) */\n  mload(0x40)\n  0xe450d38c00000000000000000000000000000000000000000000000000000000\n  dup2\n  mstore\n  0x04\n  add\n  tag_24\n  swap4\n  swap3\n  swap2\n  swap1\n  tag_25\n  jump\t// in\ntag_24:\n  mload(0x40)\n  dup1\n  swap2\n  sub\n  swap1\n  revert\n    /* \"contracts/fixed-rate-staking-contract/FixedRateStaking_flattened.sol\":17491:17606  if (fromBalance < value) {... */\ntag_23:\n    /* \"contracts/fixed-rate-staking-contract/FixedRateStaking_flattened.sol\":17758:17763  value */\n  dup2\n    /* \"contracts/fixed-rate-staking-contract/FixedRateStaking_flattened.sol\":17744:17755  fromBalance */\n  dup2\n    /* \"contracts/fixed-rate-staking-contract/FixedRateStaking_flattened.sol\":17744:17763  fromBalance - value */\n  sub\n    /* \"contracts/fixed-rate-staking-contract/FixedRateStaking_flattened.sol\":17726:17735  _balances */\n  0x00\n    /* \"contracts/fixed-rate-staking-contract/FixedRateStaking_flattened.sol\":17726:17741  _balances[from] */\n  dup1\n    /* \"contracts/fixed-rate-staking-contract/FixedRateStaking_flattened.sol\":17736:17740  from */\n  dup7\n    /* \"contracts/fixed-rate-staking-contract/FixedRateStaking_flattened.sol\":17726:17741  _balances[from] */\n  0xffffffffffffffffffffffffffffffffffffffff\n  and\n  0xffffffffffffffffffffffffffffffffffffffff\n  and\n  dup2\n  mstore\n  0x20\n  add\n  swap1\n  dup2\n  mstore\n  0x20\n  add\n  0x00\n  keccak256\n    /* \"contracts/fixed-rate-staking-contract/FixedRateStaking_flattened.sol\":17726:17763  _balances[from] = fromBalance - value */\n  dup2\n  swap1\n  sstore\n  pop\n    /* \"contracts/fixed-rate-staking-contract/FixedRateStaking_flattened.sol\":17426:17788  {... */\n  pop\n    /* \"contracts/fixed-rate-staking-contract/FixedRateStaking_flattened.sol\":17248:17788  if (from == address(0)) {... */\ntag_22:\n    /* \"contracts/fixed-rate-staking-contract/FixedRateStaking_flattened.sol\":17816:17817  0 */\n  0x00\n    /* \"contracts/fixed-rate-staking-contract/FixedRateStaking_flattened.sol\":17802:17818  to == address(0) */\n  0xffffffffffffffffffffffffffffffffffffffff\n  and\n    /* \"contracts/fixed-rate-staking-contract/FixedRateStaking_flattened.sol\":17802:17804  to */\n  dup3\n    /* \"contracts/fixed-rate-staking-contract/FixedRateStaking_flattened.sol\":17802:17818  to == address(0) */\n  0xffffffffffffffffffffffffffffffffffffffff\n  and\n  sub\n    /* \"contracts/fixed-rate-staking-contract/FixedRateStaking_flattened.sol\":17798:18223  if (to == address(0)) {... */\n  tag_26\n  jumpi\n    /* \"contracts/fixed-rate-staking-contract/FixedRateStaking_flattened.sol\":17981:17986  value */\n  dup1\n    /* \"contracts/fixed-rate-staking-contract/FixedRateStaking_flattened.sol\":17965:17977  _totalSupply */\n  0x02\n  0x00\n    /* \"contracts/fixed-rate-staking-contract/FixedRateStaking_flattened.sol\":17965:17986  _totalSupply -= value */\n  dup3\n  dup3\n  sload\n  sub\n  swap3\n  pop\n  pop\n  dup2\n  swap1\n  sstore\n  pop\n    /* \"contracts/fixed-rate-staking-contract/FixedRateStaking_flattened.sol\":17798:18223  if (to == address(0)) {... */\n  jump(tag_27)\ntag_26:\n    /* \"contracts/fixed-rate-staking-contract/FixedRateStaking_flattened.sol\":18193:18198  value */\n  dup1\n    /* \"contracts/fixed-rate-staking-contract/FixedRateStaking_flattened.sol\":18176:18185  _balances */\n  0x00\n    /* \"contracts/fixed-rate-staking-contract/FixedRateStaking_flattened.sol\":18176:18189  _balances[to] */\n  dup1\n    /* \"contracts/fixed-rate-staking-contract/FixedRateStaking_flattened.sol\":18186:18188  to */\n  dup5\n    /* \"contracts/fixed-rate-staking-contract/FixedRateStaking_flattened.sol\":18176:18189  _balances[to] */\n  0xffffffffffffffffffffffffffffffffffffffff\n  and\n  0xffffffffffffffffffffffffffffffffffffffff\n  and\n  dup2\n  mstore\n  0x20\n  add\n  swap1\n  dup2\n  mstore\n  0x20\n  add\n  0x00\n  keccak256\n  0x00\n    /* \"contracts/fixed-rate-staking-contract/FixedRateStaking_flattened.sol\":18176:18198  _balances[to] += value */\n  dup3\n  dup3\n  sload\n  add\n  swap3\n  pop\n  pop\n  dup2\n  swap1\n  sstore\n  pop\n    /* \"contracts/fixed-rate-staking-contract/FixedRateStaking_flattened.sol\":17798:18223  if (to == address(0)) {... */\ntag_27:\n    /* \"contracts/fixed-rate-staking-contract/FixedRateStaking_flattened.sol\":18253:18255  to */\n  dup2\n    /* \"contracts/fixed-rate-staking-contract/FixedRateStaking_flattened.sol\":18238:18263  Transfer(from, to, value) */\n  0xffffffffffffffffffffffffffffffffffffffff\n  and\n    /* \"contracts/fixed-rate-staking-contract/FixedRateStaking_flattened.sol\":18247:18251  from */\n  dup4\n    /* \"contracts/fixed-rate-staking-contract/FixedRateStaking_flattened.sol\":18238:18263  Transfer(from, to, value) */\n  0xffffffffffffffffffffffffffffffffffffffff\n  and\n  0xddf252ad1be2c89b69c2b068fc378daa952ba7f163c4a11628f55a4df523b3ef\n    /* \"contracts/fixed-rate-staking-contract/FixedRateStaking_flattened.sol\":18257:18262  value */\n  dup4\n    /* \"contracts/fixed-rate-staking-contract/FixedRateStaking_flattened.sol\":18238:18263  Transfer(from, to, value) */\n  mload(0x40)\n  tag_28\n  swap2\n  swap1\n  tag_29\n  jump\t// in\ntag_28:\n  mload(0x40)\n  dup1\n  swap2\n  sub\n  swap1\n  log3\n    /* \"contracts/fixed-rate-staking-contract/FixedRateStaking_flattened.sol\":17163:18270  function _update(address from, address to, uint256 value) internal virtual {... */\n  pop\n  pop\n  pop\n  jump\t// out\n    /* \"#utility.yul\":7:106   */\ntag_30:\n    /* \"#utility.yul\":59:65   */\n  0x00\n    /* \"#utility.yul\":93:98   */\n  dup2\n    /* \"#utility.yul\":87:99   */\n  mload\n    /* \"#utility.yul\":77:99   */\n  swap1\n  pop\n    /* \"#utility.yul\":7:106   */\n  swap2\n  swap1\n  pop\n  jump\t// out\n    /* \"#utility.yul\":112:292   */\ntag_31:\n    /* \"#utility.yul\":160:237   */\n  0x4e487b7100000000000000000000000000000000000000000000000000000000\n    /* \"#utility.yul\":157:158   */\n  0x00\n    /* \"#utility.yul\":150:238   */\n  mstore\n    /* \"#utility.yul\":257:261   */\n  0x41\n    /* \"#utility.yul\":254:255   */\n  0x04\n    /* \"#utility.yul\":247:262   */\n  mstore\n    /* \"#utility.yul\":281:285   */\n  0x24\n    /* \"#utility.yul\":278:279   */\n  0x00\n    /* \"#utility.yul\":271:286   */\n  revert\n    /* \"#utility.yul\":298:478   */\ntag_32:\n    /* \"#utility.yul\":346:423   */\n  0x4e487b7100000000000000000000000000000000000000000000000000000000\n    /* \"#utility.yul\":343:344   */\n  0x00\n    /* \"#utility.yul\":336:424   */\n  mstore\n    /* \"#utility.yul\":443:447   */\n  0x22\n    /* \"#utility.yul\":440:441   */\n  0x04\n    /* \"#utility.yul\":433:448   */\n  mstore\n    /* \"#utility.yul\":467:471   */\n  0x24\n    /* \"#utility.yul\":464:465   */\n  0x00\n    /* \"#utility.yul\":457:472   */\n  revert\n    /* \"#utility.yul\":484:804   */\ntag_33:\n    /* \"#utility.yul\":528:534   */\n  0x00\n    /* \"#utility.yul\":565:566   */\n  0x02\n    /* \"#utility.yul\":559:563   */\n  dup3\n    /* \"#utility.yul\":555:567   */\n  div\n    /* \"#utility.yul\":545:567   */\n  swap1\n  pop\n    /* \"#utility.yul\":612:613   */\n  0x01\n    /* \"#utility.yul\":606:610   */\n  dup3\n    /* \"#utility.yul\":602:614   */\n  and\n    /* \"#utility.yul\":633:651   */\n  dup1\n    /* \"#utility.yul\":623:704   */\n  tag_60\n  jumpi\n    /* \"#utility.yul\":689:693   */\n  0x7f\n    /* \"#utility.yul\":681:687   */\n  dup3\n    /* \"#utility.yul\":677:694   */\n  and\n    /* \"#utility.yul\":667:694   */\n  swap2\n  pop\n    /* \"#utility.yul\":623:704   */\ntag_60:\n    /* \"#utility.yul\":751:753   */\n  0x20\n    /* \"#utility.yul\":743:749   */\n  dup3\n    /* \"#utility.yul\":740:754   */\n  lt\n    /* \"#utility.yul\":720:738   */\n  dup2\n    /* \"#utility.yul\":717:755   */\n  sub\n    /* \"#utility.yul\":714:798   */\n  tag_61\n  jumpi\n    /* \"#utility.yul\":770:788   */\n  tag_62\n  tag_32\n  jump\t// in\ntag_62:\n    /* \"#utility.yul\":714:798   */\ntag_61:\n    /* \"#utility.yul\":535:804   */\n  pop\n    /* \"#utility.yul\":484:804   */\n  swap2\n  swap1\n  pop\n  jump\t// out\n    /* \"#utility.yul\":810:951   */\ntag_34:\n    /* \"#utility.yul\":859:863   */\n  0x00\n    /* \"#utility.yul\":882:885   */\n  dup2\n    /* \"#utility.yul\":874:885   */\n  swap1\n  pop\n    /* \"#utility.yul\":905:908   */\n  dup2\n    /* \"#utility.yul\":902:903   */\n  0x00\n    /* \"#utility.yul\":895:909   */\n  mstore\n    /* \"#utility.yul\":939:943   */\n  0x20\n    /* \"#utility.yul\":936:937   */\n  0x00\n    /* \"#utility.yul\":926:944   */\n  keccak256\n    /* \"#utility.yul\":918:944   */\n  swap1\n  pop\n    /* \"#utility.yul\":810:951   */\n  swap2\n  swap1\n  pop\n  jump\t// out\n    /* \"#utility.yul\":957:1050   */\ntag_35:\n    /* \"#utility.yul\":994:1000   */\n  0x00\n    /* \"#utility.yul\":1041:1043   */\n  0x20\n    /* \"#utility.yul\":1036:1038   */\n  0x1f\n    /* \"#utility.yul\":1029:1034   */\n  dup4\n    /* \"#utility.yul\":1025:1039   */\n  add\n    /* \"#utility.yul\":1021:1044   */\n  div\n    /* \"#utility.yul\":1011:1044   */\n  swap1\n  pop\n    /* \"#utility.yul\":957:1050   */\n  swap2\n  swap1\n  pop\n  jump\t// out\n    /* \"#utility.yul\":1056:1163   */\ntag_36:\n    /* \"#utility.yul\":1100:1108   */\n  0x00\n    /* \"#utility.yul\":1150:1155   */\n  dup3\n    /* \"#utility.yul\":1144:1148   */\n  dup3\n    /* \"#utility.yul\":1140:1156   */\n  shl\n    /* \"#utility.yul\":1119:1156   */\n  swap1\n  pop\n    /* \"#utility.yul\":1056:1163   */\n  swap3\n  swap2\n  pop\n  pop\n  jump\t// out\n    /* \"#utility.yul\":1169:1562   */\ntag_37:\n    /* \"#utility.yul\":1238:1244   */\n  0x00\n    /* \"#utility.yul\":1288:1289   */\n  0x08\n    /* \"#utility.yul\":1276:1286   */\n  dup4\n    /* \"#utility.yul\":1272:1290   */\n  mul\n    /* \"#utility.yul\":1311:1408   */\n  tag_67\n    /* \"#utility.yul\":1341:1407   */\n  0xffffffffffffffffffffffffffffffffffffffffffffffffffffffffffffffff\n    /* \"#utility.yul\":1330:1339   */\n  dup3\n    /* \"#utility.yul\":1311:1408   */\n  tag_36\n  jump\t// in\ntag_67:\n    /* \"#utility.yul\":1429:1468   */\n  tag_68\n    /* \"#utility.yul\":1459:1467   */\n  dup7\n    /* \"#utility.yul\":1448:1457   */\n  dup4\n    /* \"#utility.yul\":1429:1468   */\n  tag_36\n  jump\t// in\ntag_68:\n    /* \"#utility.yul\":1417:1468   */\n  swap6\n  pop\n    /* \"#utility.yul\":1501:1505   */\n  dup1\n    /* \"#utility.yul\":1497:1506   */\n  not\n    /* \"#utility.yul\":1490:1495   */\n  dup5\n    /* \"#utility.yul\":1486:1507   */\n  and\n    /* \"#utility.yul\":1477:1507   */\n  swap4\n  pop\n    /* \"#utility.yul\":1550:1554   */\n  dup1\n    /* \"#utility.yul\":1540:1548   */\n  dup7\n    /* \"#utility.yul\":1536:1555   */\n  and\n    /* \"#utility.yul\":1529:1534   */\n  dup5\n    /* \"#utility.yul\":1526:1556   */\n  or\n    /* \"#utility.yul\":1516:1556   */\n  swap3\n  pop\n    /* \"#utility.yul\":1245:1562   */\n  pop\n  pop\n    /* \"#utility.yul\":1169:1562   */\n  swap4\n  swap3\n  pop\n  pop\n  pop\n  jump\t// out\n    /* \"#utility.yul\":1568:1645   */\ntag_38:\n    /* \"#utility.yul\":1605:1612   */\n  0x00\n    /* \"#utility.yul\":1634:1639   */\n  dup2\n    /* \"#utility.yul\":1623:1639   */\n  swap1\n  pop\n    /* \"#utility.yul\":1568:1645   */\n  swap2\n  swap1\n  pop\n  jump\t// out\n    /* \"#utility.yul\":1651:1711   */\ntag_39:\n    /* \"#utility.yul\":1679:1682   */\n  0x00\n    /* \"#utility.yul\":1700:1705   */\n  dup2\n    /* \"#utility.yul\":1693:1705   */\n  swap1\n  pop\n    /* \"#utility.yul\":1651:1711   */\n  swap2\n  swap1\n  pop\n  jump\t// out\n    /* \"#utility.yul\":1717:1859   */\ntag_40:\n    /* \"#utility.yul\":1767:1776   */\n  0x00\n    /* \"#utility.yul\":1800:1853   */\n  tag_72\n    /* \"#utility.yul\":1818:1852   */\n  tag_73\n    /* \"#utility.yul\":1827:1851   */\n  tag_74\n    /* \"#utility.yul\":1845:1850   */\n  dup5\n    /* \"#utility.yul\":1827:1851   */\n  tag_38\n  jump\t// in\ntag_74:\n    /* \"#utility.yul\":1818:1852   */\n  tag_39\n  jump\t// in\ntag_73:\n    /* \"#utility.yul\":1800:1853   */\n  tag_38\n  jump\t// in\ntag_72:\n    /* \"#utility.yul\":1787:1853   */\n  swap1\n  pop\n    /* \"#utility.yul\":1717:1859   */\n  swap2\n  swap1\n  pop\n  jump\t// out\n    /* \"#utility.yul\":1865:1940   */\ntag_41:\n    /* \"#utility.yul\":1908:1911   */\n  0x00\n    /* \"#utility.yul\":1929:1934   */\n  dup2\n    /* \"#utility.yul\":1922:1934   */\n  swap1\n  pop\n    /* \"#utility.yul\":1865:1940   */\n  swap2\n  swap1\n  pop\n  jump\t// out\n    /* \"#utility.yul\":1946:2215   */\ntag_42:\n    /* \"#utility.yul\":2056:2095   */\n  tag_77\n    /* \"#utility.yul\":2087:2094   */\n  dup4\n    /* \"#utility.yul\":2056:2095   */\n  tag_40\n  jump\t// in\ntag_77:\n    /* \"#utility.yul\":2117:2208   */\n  tag_78\n    /* \"#utility.yul\":2166:2207   */\n  tag_79\n    /* \"#utility.yul\":2190:2206   */\n  dup3\n    /* \"#utility.yul\":2166:2207   */\n  tag_41\n  jump\t// in\ntag_79:\n    /* \"#utility.yul\":2158:2164   */\n  dup5\n    /* \"#utility.yul\":2151:2155   */\n  dup5\n    /* \"#utility.yul\":2145:2156   */\n  sload\n    /* \"#utility.yul\":2117:2208   */\n  tag_37\n  jump\t// in\ntag_78:\n    /* \"#utility.yul\":2111:2115   */\n  dup3\n    /* \"#utility.yul\":2104:2209   */\n  sstore\n    /* \"#utility.yul\":2022:2215   */\n  pop\n    /* \"#utility.yul\":1946:2215   */\n  pop\n  pop\n  pop\n  jump\t// out\n    /* \"#utility.yul\":2221:2294   */\ntag_43:\n    /* \"#utility.yul\":2266:2269   */\n  0x00\n    /* \"#utility.yul\":2221:2294   */\n  swap1\n  jump\t// out\n    /* \"#utility.yul\":2300:2489   */\ntag_44:\n    /* \"#utility.yul\":2377:2409   */\n  tag_82\n  tag_43\n  jump\t// in\ntag_82:\n    /* \"#utility.yul\":2418:2483   */\n  tag_83\n    /* \"#utility.yul\":2476:2482   */\n  dup2\n    /* \"#utility.yul\":2468:2474   */\n  dup5\n    /* \"#utility.yul\":2462:2466   */\n  dup5\n    /* \"#utility.yul\":2418:2483   */\n  tag_42\n  jump\t// in\ntag_83:\n    /* \"#utility.yul\":2353:2489   */\n  pop\n    /* \"#utility.yul\":2300:2489   */\n  pop\n  pop\n  jump\t// out\n    /* \"#utility.yul\":2495:2681   */\ntag_45:\n    /* \"#utility.yul\":2555:2675   */\ntag_85:\n    /* \"#utility.yul\":2572:2575   */\n  dup2\n    /* \"#utility.yul\":2565:2570   */\n  dup2\n    /* \"#utility.yul\":2562:2576   */\n  lt\n    /* \"#utility.yul\":2555:2675   */\n  iszero\n  tag_87\n  jumpi\n    /* \"#utility.yul\":2626:2665   */\n  tag_88\n    /* \"#utility.yul\":2663:2664   */\n  0x00\n    /* \"#utility.yul\":2656:2661   */\n  dup3\n    /* \"#utility.yul\":2626:2665   */\n  tag_44\n  jump\t// in\ntag_88:\n    /* \"#utility.yul\":2599:2600   */\n  0x01\n    /* \"#utility.yul\":2592:2597   */\n  dup2\n    /* \"#utility.yul\":2588:2601   */\n  add\n    /* \"#utility.yul\":2579:2601   */\n  swap1\n  pop\n    /* \"#utility.yul\":2555:2675   */\n  jump(tag_85)\ntag_87:\n    /* \"#utility.yul\":2495:2681   */\n  pop\n  pop\n  jump\t// out\n    /* \"#utility.yul\":2687:3230   */\ntag_46:\n    /* \"#utility.yul\":2788:2790   */\n  0x1f\n    /* \"#utility.yul\":2783:2786   */\n  dup3\n    /* \"#utility.yul\":2780:2791   */\n  gt\n    /* \"#utility.yul\":2777:3223   */\n  iszero\n  tag_90\n  jumpi\n    /* \"#utility.yul\":2822:2860   */\n  tag_91\n    /* \"#utility.yul\":2854:2859   */\n  dup2\n    /* \"#utility.yul\":2822:2860   */\n  tag_34\n  jump\t// in\ntag_91:\n    /* \"#utility.yul\":2906:2935   */\n  tag_92\n    /* \"#utility.yul\":2924:2934   */\n  dup5\n    /* \"#utility.yul\":2906:2935   */\n  tag_35\n  jump\t// in\ntag_92:\n    /* \"#utility.yul\":2896:2904   */\n  dup2\n    /* \"#utility.yul\":2892:2936   */\n  add\n    /* \"#utility.yul\":3089:3091   */\n  0x20\n    /* \"#utility.yul\":3077:3087   */\n  dup6\n    /* \"#utility.yul\":3074:3092   */\n  lt\n    /* \"#utility.yul\":3071:3120   */\n  iszero\n  tag_93\n  jumpi\n    /* \"#utility.yul\":3110:3118   */\n  dup2\n    /* \"#utility.yul\":3095:3118   */\n  swap1\n  pop\n    /* \"#utility.yul\":3071:3120   */\ntag_93:\n    /* \"#utility.yul\":3133:3213   */\n  tag_94\n    /* \"#utility.yul\":3189:3211   */\n  tag_95\n    /* \"#utility.yul\":3207:3210   */\n  dup6\n    /* \"#utility.yul\":3189:3211   */\n  tag_35\n  jump\t// in\ntag_95:\n    /* \"#utility.yul\":3179:3187   */\n  dup4\n    /* \"#utility.yul\":3175:3212   */\n  add\n    /* \"#utility.yul\":3162:3173   */\n  dup3\n    /* \"#utility.yul\":3133:3213   */\n  tag_45\n  jump\t// in\ntag_94:\n    /* \"#utility.yul\":2792:3223   */\n  pop\n  pop\n    /* \"#utility.yul\":2777:3223   */\ntag_90:\n    /* \"#utility.yul\":2687:3230   */\n  pop\n  pop\n  pop\n  jump\t// out\n    /* \"#utility.yul\":3236:3353   */\ntag_47:\n    /* \"#utility.yul\":3290:3298   */\n  0x00\n    /* \"#utility.yul\":3340:3345   */\n  dup3\n    /* \"#utility.yul\":3334:3338   */\n  dup3\n    /* \"#utility.yul\":3330:3346   */\n  shr\n    /* \"#utility.yul\":3309:3346   */\n  swap1\n  pop\n    /* \"#utility.yul\":3236:3353   */\n  swap3\n  swap2\n  pop\n  pop\n  jump\t// out\n    /* \"#utility.yul\":3359:3528   */\ntag_48:\n    /* \"#utility.yul\":3403:3409   */\n  0x00\n    /* \"#utility.yul\":3436:3487   */\n  tag_98\n    /* \"#utility.yul\":3484:3485   */\n  0x00\n    /* \"#utility.yul\":3480:3486   */\n  not\n    /* \"#utility.yul\":3472:3477   */\n  dup5\n    /* \"#utility.yul\":3469:3470   */\n  0x08\n    /* \"#utility.yul\":3465:3478   */\n  mul\n    /* \"#utility.yul\":3436:3487   */\n  tag_47\n  jump\t// in\ntag_98:\n    /* \"#utility.yul\":3432:3488   */\n  not\n    /* \"#utility.yul\":3517:3521   */\n  dup1\n    /* \"#utility.yul\":3511:3515   */\n  dup4\n    /* \"#utility.yul\":3507:3522   */\n  and\n    /* \"#utility.yul\":3497:3522   */\n  swap2\n  pop\n    /* \"#utility.yul\":3410:3528   */\n  pop\n    /* \"#utility.yul\":3359:3528   */\n  swap3\n  swap2\n  pop\n  pop\n  jump\t// out\n    /* \"#utility.yul\":3533:3828   */\ntag_49:\n    /* \"#utility.yul\":3609:3613   */\n  0x00\n    /* \"#utility.yul\":3755:3784   */\n  tag_100\n    /* \"#utility.yul\":3780:3783   */\n  dup4\n    /* \"#utility.yul\":3774:3778   */\n  dup4\n    /* \"#utility.yul\":3755:3784   */\n  tag_48\n  jump\t// in\ntag_100:\n    /* \"#utility.yul\":3747:3784   */\n  swap2\n  pop\n    /* \"#utility.yul\":3817:3820   */\n  dup3\n    /* \"#utility.yul\":3814:3815   */\n  0x02\n    /* \"#utility.yul\":3810:3821   */\n  mul\n    /* \"#utility.yul\":3804:3808   */\n  dup3\n    /* \"#utility.yul\":3801:3822   */\n  or\n    /* \"#utility.yul\":3793:3822   */\n  swap1\n  pop\n    /* \"#utility.yul\":3533:3828   */\n  swap3\n  swap2\n  pop\n  pop\n  jump\t// out\n    /* \"#utility.yul\":3833:5228   */\ntag_6:\n    /* \"#utility.yul\":3950:3987   */\n  tag_102\n    /* \"#utility.yul\":3983:3986   */\n  dup3\n    /* \"#utility.yul\":3950:3987   */\n  tag_30\n  jump\t// in\ntag_102:\n    /* \"#utility.yul\":4052:4070   */\n  0xffffffffffffffff\n    /* \"#utility.yul\":4044:4050   */\n  dup2\n    /* \"#utility.yul\":4041:4071   */\n  gt\n    /* \"#utility.yul\":4038:4094   */\n  iszero\n  tag_103\n  jumpi\n    /* \"#utility.yul\":4074:4092   */\n  tag_104\n  tag_31\n  jump\t// in\ntag_104:\n    /* \"#utility.yul\":4038:4094   */\ntag_103:\n    /* \"#utility.yul\":4118:4156   */\n  tag_105\n    /* \"#utility.yul\":4150:4154   */\n  dup3\n    /* \"#utility.yul\":4144:4155   */\n  sload\n    /* \"#utility.yul\":4118:4156   */\n  tag_33\n  jump\t// in\ntag_105:\n    /* \"#utility.yul\":4203:4270   */\n  tag_106\n    /* \"#utility.yul\":4263:4269   */\n  dup3\n    /* \"#utility.yul\":4255:4261   */\n  dup3\n    /* \"#utility.yul\":4249:4253   */\n  dup6\n    /* \"#utility.yul\":4203:4270   */\n  tag_46\n  jump\t// in\ntag_106:\n    /* \"#utility.yul\":4297:4298   */\n  0x00\n    /* \"#utility.yul\":4321:4325   */\n  0x20\n    /* \"#utility.yul\":4308:4325   */\n  swap1\n  pop\n    /* \"#utility.yul\":4353:4355   */\n  0x1f\n    /* \"#utility.yul\":4345:4351   */\n  dup4\n    /* \"#utility.yul\":4342:4356   */\n  gt\n    /* \"#utility.yul\":4370:4371   */\n  0x01\n    /* \"#utility.yul\":4365:4983   */\n  dup2\n  eq\n  tag_108\n  jumpi\n    /* \"#utility.yul\":5027:5028   */\n  0x00\n    /* \"#utility.yul\":5044:5050   */\n  dup5\n    /* \"#utility.yul\":5041:5118   */\n  iszero\n  tag_109\n  jumpi\n    /* \"#utility.yul\":5093:5102   */\n  dup3\n    /* \"#utility.yul\":5088:5091   */\n  dup8\n    /* \"#utility.yul\":5084:5103   */\n  add\n    /* \"#utility.yul\":5078:5104   */\n  mload\n    /* \"#utility.yul\":5069:5104   */\n  swap1\n  pop\n    /* \"#utility.yul\":5041:5118   */\ntag_109:\n    /* \"#utility.yul\":5144:5211   */\n  tag_110\n    /* \"#utility.yul\":5204:5210   */\n  dup6\n    /* \"#utility.yul\":5197:5202   */\n  dup3\n    /* \"#utility.yul\":5144:5211   */\n  tag_49\n  jump\t// in\ntag_110:\n    /* \"#utility.yul\":5138:5142   */\n  dup7\n    /* \"#utility.yul\":5131:5212   */\n  sstore\n    /* \"#utility.yul\":5000:5222   */\n  pop\n    /* \"#utility.yul\":4335:5222   */\n  jump(tag_107)\n    /* \"#utility.yul\":4365:4983   */\ntag_108:\n    /* \"#utility.yul\":4417:4421   */\n  0x1f\n    /* \"#utility.yul\":4413:4422   */\n  not\n    /* \"#utility.yul\":4405:4411   */\n  dup5\n    /* \"#utility.yul\":4401:4423   */\n  and\n    /* \"#utility.yul\":4451:4488   */\n  tag_111\n    /* \"#utility.yul\":4483:4487   */\n  dup7\n    /* \"#utility.yul\":4451:4488   */\n  tag_34\n  jump\t// in\ntag_111:\n    /* \"#utility.yul\":4510:4511   */\n  0x00\n    /* \"#utility.yul\":4524:4732   */\ntag_112:\n    /* \"#utility.yul\":4538:4545   */\n  dup3\n    /* \"#utility.yul\":4535:4536   */\n  dup2\n    /* \"#utility.yul\":4532:4546   */\n  lt\n    /* \"#utility.yul\":4524:4732   */\n  iszero\n  tag_114\n  jumpi\n    /* \"#utility.yul\":4617:4626   */\n  dup5\n    /* \"#utility.yul\":4612:4615   */\n  dup10\n    /* \"#utility.yul\":4608:4627   */\n  add\n    /* \"#utility.yul\":4602:4628   */\n  mload\n    /* \"#utility.yul\":4594:4600   */\n  dup3\n    /* \"#utility.yul\":4587:4629   */\n  sstore\n    /* \"#utility.yul\":4668:4669   */\n  0x01\n    /* \"#utility.yul\":4660:4666   */\n  dup3\n    /* \"#utility.yul\":4656:4670   */\n  add\n    /* \"#utility.yul\":4646:4670   */\n  swap2\n  pop\n    /* \"#utility.yul\":4715:4717   */\n  0x20\n    /* \"#utility.yul\":4704:4713   */\n  dup6\n    /* \"#utility.yul\":4700:4718   */\n  add\n    /* \"#utility.yul\":4687:4718   */\n  swap5\n  pop\n    /* \"#utility.yul\":4561:4565   */\n  0x20\n    /* \"#utility.yul\":4558:4559   */\n  dup2\n    /* \"#utility.yul\":4554:4566   */\n  add\n    /* \"#utility.yul\":4549:4566   */\n  swap1\n  pop\n    /* \"#utility.yul\":4524:4732   */\n  jump(tag_112)\ntag_114:\n    /* \"#utility.yul\":4760:4766   */\n  dup7\n    /* \"#utility.yul\":4751:4758   */\n  dup4\n    /* \"#utility.yul\":4748:4767   */\n  lt\n    /* \"#utility.yul\":4745:4924   */\n  iszero\n  tag_115\n  jumpi\n    /* \"#utility.yul\":4818:4827   */\n  dup5\n    /* \"#utility.yul\":4813:4816   */\n  dup10\n    /* \"#utility.yul\":4809:4828   */\n  add\n    /* \"#utility.yul\":4803:4829   */\n  mload\n    /* \"#utility.yul\":4861:4909   */\n  tag_116\n    /* \"#utility.yul\":4903:4907   */\n  0x1f\n    /* \"#utility.yul\":4895:4901   */\n  dup10\n    /* \"#utility.yul\":4891:4908   */\n  and\n    /* \"#utility.yul\":4880:4889   */\n  dup3\n    /* \"#utility.yul\":4861:4909   */\n  tag_48\n  jump\t// in\ntag_116:\n    /* \"#utility.yul\":4853:4859   */\n  dup4\n    /* \"#utility.yul\":4846:4910   */\n  sstore\n    /* \"#utility.yul\":4768:4924   */\n  pop\n    /* \"#utility.yul\":4745:4924   */\ntag_115:\n    /* \"#utility.yul\":4970:4971   */\n  0x01\n    /* \"#utility.yul\":4966:4967   */\n  0x02\n    /* \"#utility.yul\":4958:4964   */\n  dup9\n    /* \"#utility.yul\":4954:4968   */\n  mul\n    /* \"#utility.yul\":4950:4972   */\n  add\n    /* \"#utility.yul\":4944:4948   */\n  dup9\n    /* \"#utility.yul\":4937:4973   */\n  sstore\n    /* \"#utility.yul\":4372:4983   */\n  pop\n  pop\n  pop\n    /* \"#utility.yul\":4335:5222   */\ntag_107:\n  pop\n    /* \"#utility.yul\":3925:5228   */\n  pop\n  pop\n  pop\n    /* \"#utility.yul\":3833:5228   */\n  pop\n  pop\n  jump\t// out\n    /* \"#utility.yul\":5234:5360   */\ntag_50:\n    /* \"#utility.yul\":5271:5278   */\n  0x00\n    /* \"#utility.yul\":5311:5353   */\n  0xffffffffffffffffffffffffffffffffffffffff\n    /* \"#utility.yul\":5304:5309   */\n  dup3\n    /* \"#utility.yul\":5300:5354   */\n  and\n    /* \"#utility.yul\":5289:5354   */\n  swap1\n  pop\n    /* \"#utility.yul\":5234:5360   */\n  swap2\n  swap1\n  pop\n  jump\t// out\n    /* \"#utility.yul\":5366:5462   */\ntag_51:\n    /* \"#utility.yul\":5403:5410   */\n  0x00\n    /* \"#utility.yul\":5432:5456   */\n  tag_119\n    /* \"#utility.yul\":5450:5455   */\n  dup3\n    /* \"#utility.yul\":5432:5456   */\n  tag_50\n  jump\t// in\ntag_119:\n    /* \"#utility.yul\":5421:5456   */\n  swap1\n  pop\n    /* \"#utility.yul\":5366:5462   */\n  swap2\n  swap1\n  pop\n  jump\t// out\n    /* \"#utility.yul\":5468:5586   */\ntag_52:\n    /* \"#utility.yul\":5555:5579   */\n  tag_121\n    /* \"#utility.yul\":5573:5578   */\n  dup2\n    /* \"#utility.yul\":5555:5579   */\n  tag_51\n  jump\t// in\ntag_121:\n    /* \"#utility.yul\":5550:5553   */\n  dup3\n    /* \"#utility.yul\":5543:5580   */\n  mstore\n    /* \"#utility.yul\":5468:5586   */\n  pop\n  pop\n  jump\t// out\n    /* \"#utility.yul\":5592:5814   */\ntag_15:\n    /* \"#utility.yul\":5685:5689   */\n  0x00\n    /* \"#utility.yul\":5723:5725   */\n  0x20\n    /* \"#utility.yul\":5712:5721   */\n  dup3\n    /* \"#utility.yul\":5708:5726   */\n  add\n    /* \"#utility.yul\":5700:5726   */\n  swap1\n  pop\n    /* \"#utility.yul\":5736:5807   */\n  tag_123\n    /* \"#utility.yul\":5804:5805   */\n  0x00\n    /* \"#utility.yul\":5793:5802   */\n  dup4\n    /* \"#utility.yul\":5789:5806   */\n  add\n    /* \"#utility.yul\":5780:5786   */\n  dup5\n    /* \"#utility.yul\":5736:5807   */\n  tag_52\n  jump\t// in\ntag_123:\n    /* \"#utility.yul\":5592:5814   */\n  swap3\n  swap2\n  pop\n  pop\n  jump\t// out\n    /* \"#utility.yul\":5820:6000   */\ntag_53:\n    /* \"#utility.yul\":5868:5945   */\n  0x4e487b7100000000000000000000000000000000000000000000000000000000\n    /* \"#utility.yul\":5865:5866   */\n  0x00\n    /* \"#utility.yul\":5858:5946   */\n  mstore\n    /* \"#utility.yul\":5965:5969   */\n  0x11\n    /* \"#utility.yul\":5962:5963   */\n  0x04\n    /* \"#utility.yul\":5955:5970   */\n  mstore\n    /* \"#utility.yul\":5989:5993   */\n  0x24\n    /* \"#utility.yul\":5986:5987   */\n  0x00\n    /* \"#utility.yul\":5979:5994   */\n  revert\n    /* \"#utility.yul\":6006:6197   */\ntag_21:\n    /* \"#utility.yul\":6046:6049   */\n  0x00\n    /* \"#utility.yul\":6065:6085   */\n  tag_126\n    /* \"#utility.yul\":6083:6084   */\n  dup3\n    /* \"#utility.yul\":6065:6085   */\n  tag_38\n  jump\t// in\ntag_126:\n    /* \"#utility.yul\":6060:6085   */\n  swap2\n  pop\n    /* \"#utility.yul\":6099:6119   */\n  tag_127\n    /* \"#utility.yul\":6117:6118   */\n  dup4\n    /* \"#utility.yul\":6099:6119   */\n  tag_38\n  jump\t// in\ntag_127:\n    /* \"#utility.yul\":6094:6119   */\n  swap3\n  pop\n    /* \"#utility.yul\":6142:6143   */\n  dup3\n    /* \"#utility.yul\":6139:6140   */\n  dup3\n    /* \"#utility.yul\":6135:6144   */\n  add\n    /* \"#utility.yul\":6128:6144   */\n  swap1\n  pop\n    /* \"#utility.yul\":6163:6166   */\n  dup1\n    /* \"#utility.yul\":6160:6161   */\n  dup3\n    /* \"#utility.yul\":6157:6167   */\n  gt\n    /* \"#utility.yul\":6154:6190   */\n  iszero\n  tag_128\n  jumpi\n    /* \"#utility.yul\":6170:6188   */\n  tag_129\n  tag_53\n  jump\t// in\ntag_129:\n    /* \"#utility.yul\":6154:6190   */\ntag_128:\n    /* \"#utility.yul\":6006:6197   */\n  swap3\n  swap2\n  pop\n  pop\n  jump\t// out\n    /* \"#utility.yul\":6203:6321   */\ntag_54:\n    /* \"#utility.yul\":6290:6314   */\n  tag_131\n    /* \"#utility.yul\":6308:6313   */\n  dup2\n    /* \"#utility.yul\":6290:6314   */\n  tag_38\n  jump\t// in\ntag_131:\n    /* \"#utility.yul\":6285:6288   */\n  dup3\n    /* \"#utility.yul\":6278:6315   */\n  mstore\n    /* \"#utility.yul\":6203:6321   */\n  pop\n  pop\n  jump\t// out\n    /* \"#utility.yul\":6327:6769   */\ntag_25:\n    /* \"#utility.yul\":6476:6480   */\n  0x00\n    /* \"#utility.yul\":6514:6516   */\n  0x60\n    /* \"#utility.yul\":6503:6512   */\n  dup3\n    /* \"#utility.yul\":6499:6517   */\n  add\n    /* \"#utility.yul\":6491:6517   */\n  swap1\n  pop\n    /* \"#utility.yul\":6527:6598   */\n  tag_133\n    /* \"#utility.yul\":6595:6596   */\n  0x00\n    /* \"#utility.yul\":6584:6593   */\n  dup4\n    /* \"#utility.yul\":6580:6597   */\n  add\n    /* \"#utility.yul\":6571:6577   */\n  dup7\n    /* \"#utility.yul\":6527:6598   */\n  tag_52\n  jump\t// in\ntag_133:\n    /* \"#utility.yul\":6608:6680   */\n  tag_134\n    /* \"#utility.yul\":6676:6678   */\n  0x20\n    /* \"#utility.yul\":6665:6674   */\n  dup4\n    /* \"#utility.yul\":6661:6679   */\n  add\n    /* \"#utility.yul\":6652:6658   */\n  dup6\n    /* \"#utility.yul\":6608:6680   */\n  tag_54\n  jump\t// in\ntag_134:\n    /* \"#utility.yul\":6690:6762   */\n  tag_135\n    /* \"#utility.yul\":6758:6760   */\n  0x40\n    /* \"#utility.yul\":6747:6756   */\n  dup4\n    /* \"#utility.yul\":6743:6761   */\n  add\n    /* \"#utility.yul\":6734:6740   */\n  dup5\n    /* \"#utility.yul\":6690:6762   */\n  tag_54\n  jump\t// in\ntag_135:\n    /* \"#utility.yul\":6327:6769   */\n  swap5\n  swap4\n  pop\n  pop\n  pop\n  pop\n  jump\t// out\n    /* \"#utility.yul\":6775:6997   */\ntag_29:\n    /* \"#utility.yul\":6868:6872   */\n  0x00\n    /* \"#utility.yul\":6906:6908   */\n  0x20\n    /* \"#utility.yul\":6895:6904   */\n  dup3\n    /* \"#utility.yul\":6891:6909   */\n  add\n    /* \"#utility.yul\":6883:6909   */\n  swap1\n  pop\n    /* \"#utility.yul\":6919:6990   */\n  tag_137\n    /* \"#utility.yul\":6987:6988   */\n  0x00\n    /* \"#utility.yul\":6976:6985   */\n  dup4\n    /* \"#utility.yul\":6972:6989   */\n  add\n    /* \"#utility.yul\":6963:6969   */\n  dup5\n    /* \"#utility.yul\":6919:6990   */\n  tag_54\n  jump\t// in\ntag_137:\n    /* \"#utility.yul\":6775:6997   */\n  swap3\n  swap2\n  pop\n  pop\n  jump\t// out\n    /* \"contracts/fixed-rate-staking-contract/FixedRateStaking_flattened.sol\":22134:24793  contract FixedStaking is ERC20 {... */\ntag_11:\n  dataSize(sub_0)\n  dup1\n  dataOffset(sub_0)\n  0x00\n  codecopy\n  0x00\n  return\nstop\n\nsub_0: assembly {\n        /* \"contracts/fixed-rate-staking-contract/FixedRateStaking_flattened.sol\":22134:24793  contract FixedStaking is ERC20 {... */\n      mstore(0x40, 0x80)\n      callvalue\n      dup1\n      iszero\n      tag_1\n      jumpi\n      0x00\n      dup1\n      revert\n    tag_1:\n      pop\n      jumpi(tag_2, lt(calldatasize, 0x04))\n      shr(0xe0, calldataload(0x00))\n      dup1\n      0x4e71d92d\n      gt\n      tag_16\n      jumpi\n      dup1\n      0x98807d84\n      gt\n      tag_17\n      jumpi\n      dup1\n      0x98807d84\n      eq\n      tag_12\n      jumpi\n      dup1\n      0xa694fc3a\n      eq\n      tag_13\n      jumpi\n      dup1\n      0xa9059cbb\n      eq\n      tag_14\n      jumpi\n      dup1\n      0xdd62ed3e\n      eq\n      tag_15\n      jumpi\n      jump(tag_2)\n    tag_17:\n      dup1\n      0x4e71d92d\n      eq\n      tag_9\n      jumpi\n      dup1\n      0x70a08231\n      eq\n      tag_10\n      jumpi\n      dup1\n      0x95d89b41\n      eq\n      tag_11\n      jumpi\n      jump(tag_2)\n    tag_16:\n      dup1\n      0x06fdde03\n      eq\n      tag_3\n      jumpi\n      dup1\n      0x095ea7b3\n      eq\n      tag_4\n      jumpi\n      dup1\n      0x18160ddd\n      eq\n      tag_5\n      jumpi\n      dup1\n      0x23b872dd\n      eq\n      tag_6\n      jumpi\n      dup1\n      0x2e17de78\n      eq\n      tag_7\n      jumpi\n      dup1\n      0x313ce567\n      eq\n      tag_8\n      jumpi\n    tag_2:\n      0x00\n      dup1\n      revert\n        /* \"contracts/fixed-rate-staking-contract/FixedRateStaking_flattened.sol\":12966:13055  function name() public view virtual returns (string memory) {... */\n    tag_3:\n      tag_18\n      tag_19\n      jump\t// in\n    tag_18:\n      mload(0x40)\n      tag_20\n      swap2\n      swap1\n      tag_21\n      jump\t// in\n    tag_20:\n      mload(0x40)\n      dup1\n      swap2\n      sub\n      swap1\n      return\n        /* \"contracts/fixed-rate-staking-contract/FixedRateStaking_flattened.sol\":15185:15371  function approve(address spender, uint256 value) public virtual returns (bool) {... */\n    tag_4:\n      tag_22\n      0x04\n      dup1\n      calldatasize\n      sub\n      dup2\n      add\n      swap1\n      tag_23\n      swap2\n      swap1\n      tag_24\n      jump\t// in\n    tag_23:\n      tag_25\n      jump\t// in\n    tag_22:\n      mload(0x40)\n      tag_26\n      swap2\n      swap1\n      tag_27\n      jump\t// in\n    tag_26:\n      mload(0x40)\n      dup1\n      swap2\n      sub\n      swap1\n      return\n        /* \"contracts/fixed-rate-staking-contract/FixedRateStaking_flattened.sol\":14036:14133  function totalSupply() public view virtual returns (uint256) {... */\n    tag_5:\n      tag_28\n      tag_29\n      jump\t// in\n    tag_28:\n      mload(0x40)\n      tag_30\n      swap2\n      swap1\n      tag_31\n      jump\t// in\n    tag_30:\n      mload(0x40)\n      dup1\n      swap2\n      sub\n      swap1\n      return\n        /* \"contracts/fixed-rate-staking-contract/FixedRateStaking_flattened.sol\":15931:16175  function transferFrom(address from, address to, uint256 value) public virtual returns (bool) {... */\n    tag_6:\n      tag_32\n      0x04\n      dup1\n      calldatasize\n      sub\n      dup2\n      add\n      swap1\n      tag_33\n      swap2\n      swap1\n      tag_34\n      jump\t// in\n    tag_33:\n      tag_35\n      jump\t// in\n    tag_32:\n      mload(0x40)\n      tag_36\n      swap2\n      swap1\n      tag_27\n      jump\t// in\n    tag_36:\n      mload(0x40)\n      dup1\n      swap2\n      sub\n      swap1\n      return\n        /* \"contracts/fixed-rate-staking-contract/FixedRateStaking_flattened.sol\":23400:24023  function unstake(uint256 amount) external {... */\n    tag_7:\n      tag_37\n      0x04\n      dup1\n      calldatasize\n      sub\n      dup2\n      add\n      swap1\n      tag_38\n      swap2\n      swap1\n      tag_39\n      jump\t// in\n    tag_38:\n      tag_40\n      jump\t// in\n    tag_37:\n      stop\n        /* \"contracts/fixed-rate-staking-contract/FixedRateStaking_flattened.sol\":13894:13976  function decimals() public view virtual returns (uint8) {... */\n    tag_8:\n      tag_41\n      tag_42\n      jump\t// in\n    tag_41:\n      mload(0x40)\n      tag_43\n      swap2\n      swap1\n      tag_44\n      jump\t// in\n    tag_43:\n      mload(0x40)\n      dup1\n      swap2\n      sub\n      swap1\n      return\n        /* \"contracts/fixed-rate-staking-contract/FixedRateStaking_flattened.sol\":24029:24791  function claim() public {... */\n    tag_9:\n      tag_45\n      tag_46\n      jump\t// in\n    tag_45:\n      stop\n        /* \"contracts/fixed-rate-staking-contract/FixedRateStaking_flattened.sol\":14191:14307  function balanceOf(address account) public view virtual returns (uint256) {... */\n    tag_10:\n      tag_47\n      0x04\n      dup1\n      calldatasize\n      sub\n      dup2\n      add\n      swap1\n      tag_48\n      swap2\n      swap1\n      tag_49\n      jump\t// in\n    tag_48:\n      tag_50\n      jump\t// in\n    tag_47:\n      mload(0x40)\n      tag_51\n      swap2\n      swap1\n      tag_31\n      jump\t// in\n    tag_51:\n      mload(0x40)\n      dup1\n      swap2\n      sub\n      swap1\n      return\n        /* \"contracts/fixed-rate-staking-contract/FixedRateStaking_flattened.sol\":13168:13261  function symbol() public view virtual returns (string memory) {... */\n    tag_11:\n      tag_52\n      tag_53\n      jump\t// in\n    tag_52:\n      mload(0x40)\n      tag_54\n      swap2\n      swap1\n      tag_21\n      jump\t// in\n    tag_54:\n      mload(0x40)\n      dup1\n      swap2\n      sub\n      swap1\n      return\n        /* \"contracts/fixed-rate-staking-contract/FixedRateStaking_flattened.sol\":22172:22213  mapping(address => uint256) public staked */\n    tag_12:\n      tag_55\n      0x04\n      dup1\n      calldatasize\n      sub\n      dup2\n      add\n      swap1\n      tag_56\n      swap2\n      swap1\n      tag_49\n      jump\t// in\n    tag_56:\n      tag_57\n      jump\t// in\n    tag_55:\n      mload(0x40)\n      tag_58\n      swap2\n      swap1\n      tag_31\n      jump\t// in\n    tag_58:\n      mload(0x40)\n      dup1\n      swap2\n      sub\n      swap1\n      return\n        /* \"contracts/fixed-rate-staking-contract/FixedRateStaking_flattened.sol\":22526:23394  function stake(uint256 amount) external {... */\n    tag_13:\n      tag_59\n      0x04\n      dup1\n      calldatasize\n      sub\n      dup2\n      add\n      swap1\n      tag_60\n      swap2\n      swap1\n      tag_39\n      jump\t// in\n    tag_60:\n      tag_61\n      jump\t// in\n    tag_59:\n      stop\n        /* \"contracts/fixed-rate-staking-contract/FixedRateStaking_flattened.sol\":14502:14680  function transfer(address to, uint256 value) public virtual returns (bool) {... */\n    tag_14:\n      tag_62\n      0x04\n      dup1\n      calldatasize\n      sub\n      dup2\n      add\n      swap1\n      tag_63\n      swap2\n      swap1\n      tag_24\n      jump\t// in\n    tag_63:\n      tag_64\n      jump\t// in\n    tag_62:\n      mload(0x40)\n      tag_65\n      swap2\n      swap1\n      tag_27\n      jump\t// in\n    tag_65:\n      mload(0x40)\n      dup1\n      swap2\n      sub\n      swap1\n      return\n        /* \"contracts/fixed-rate-staking-contract/FixedRateStaking_flattened.sol\":14738:14878  function allowance(address owner, address spender) public view virtual returns (uint256) {... */\n    tag_15:\n      tag_66\n      0x04\n      dup1\n      calldatasize\n      sub\n      dup2\n      add\n      swap1\n      tag_67\n      swap2\n      swap1\n      tag_68\n      jump\t// in\n    tag_67:\n      tag_69\n      jump\t// in\n    tag_66:\n      mload(0x40)\n      tag_70\n      swap2\n      swap1\n      tag_31\n      jump\t// in\n    tag_70:\n      mload(0x40)\n      dup1\n      swap2\n      sub\n      swap1\n      return\n        /* \"contracts/fixed-rate-staking-contract/FixedRateStaking_flattened.sol\":12966:13055  function name() public view virtual returns (string memory) {... */\n    tag_19:\n        /* \"contracts/fixed-rate-staking-contract/FixedRateStaking_flattened.sol\":13011:13024  string memory */\n      0x60\n        /* \"contracts/fixed-rate-staking-contract/FixedRateStaking_flattened.sol\":13043:13048  _name */\n      0x03\n        /* \"contracts/fixed-rate-staking-contract/FixedRateStaking_flattened.sol\":13036:13048  return _name */\n      dup1\n      sload\n      tag_72\n      swap1\n      tag_73\n      jump\t// in\n    tag_72:\n      dup1\n      0x1f\n      add\n      0x20\n      dup1\n      swap2\n      div\n      mul\n      0x20\n      add\n      mload(0x40)\n      swap1\n      dup2\n      add\n      0x40\n      mstore\n      dup1\n      swap3\n      swap2\n      swap1\n      dup2\n      dup2\n      mstore\n      0x20\n      add\n      dup3\n      dup1\n      sload\n      tag_74\n      swap1\n      tag_73\n      jump\t// in\n    tag_74:\n      dup1\n      iszero\n      tag_75\n      jumpi\n      dup1\n      0x1f\n      lt\n      tag_76\n      jumpi\n      0x0100\n      dup1\n      dup4\n      sload\n      div\n      mul\n      dup4\n      mstore\n      swap2\n      0x20\n      add\n      swap2\n      jump(tag_75)\n    tag_76:\n      dup3\n      add\n      swap2\n      swap1\n      0x00\n      mstore\n      keccak256(0x00, 0x20)\n      swap1\n    tag_77:\n      dup2\n      sload\n      dup2\n      mstore\n      swap1\n      0x01\n      add\n      swap1\n      0x20\n      add\n      dup1\n      dup4\n      gt\n      tag_77\n      jumpi\n      dup3\n      swap1\n      sub\n      0x1f\n      and\n      dup3\n      add\n      swap2\n    tag_75:\n      pop\n      pop\n      pop\n      pop\n      pop\n      swap1\n      pop\n        /* \"contracts/fixed-rate-staking-contract/FixedRateStaking_flattened.sol\":12966:13055  function name() public view virtual returns (string memory) {... */\n      swap1\n      jump\t// out\n        /* \"contracts/fixed-rate-staking-contract/FixedRateStaking_flattened.sol\":15185:15371  function approve(address spender, uint256 value) public virtual returns (bool) {... */\n    tag_25:\n        /* \"contracts/fixed-rate-staking-contract/FixedRateStaking_flattened.sol\":15258:15262  bool */\n      0x00\n        /* \"contracts/fixed-rate-staking-contract/FixedRateStaking_flattened.sol\":15274:15287  address owner */\n      dup1\n        /* \"contracts/fixed-rate-staking-contract/FixedRateStaking_flattened.sol\":15290:15302  _msgSender() */\n      tag_79\n        /* \"contracts/fixed-rate-staking-contract/FixedRateStaking_flattened.sol\":15290:15300  _msgSender */\n      tag_80\n        /* \"contracts/fixed-rate-staking-contract/FixedRateStaking_flattened.sol\":15290:15302  _msgSender() */\n      jump\t// in\n    tag_79:\n        /* \"contracts/fixed-rate-staking-contract/FixedRateStaking_flattened.sol\":15274:15302  address owner = _msgSender() */\n      swap1\n      pop\n        /* \"contracts/fixed-rate-staking-contract/FixedRateStaking_flattened.sol\":15312:15343  _approve(owner, spender, value) */\n      tag_81\n        /* \"contracts/fixed-rate-staking-contract/FixedRateStaking_flattened.sol\":15321:15326  owner */\n      dup2\n        /* \"contracts/fixed-rate-staking-contract/FixedRateStaking_flattened.sol\":15328:15335  spender */\n      dup6\n        /* \"contracts/fixed-rate-staking-contract/FixedRateStaking_flattened.sol\":15337:15342  value */\n      dup6\n        /* \"contracts/fixed-rate-staking-contract/FixedRateStaking_flattened.sol\":15312:15320  _approve */\n      tag_82\n        /* \"contracts/fixed-rate-staking-contract/FixedRateStaking_flattened.sol\":15312:15343  _approve(owner, spender, value) */\n      jump\t// in\n    tag_81:\n        /* \"contracts/fixed-rate-staking-contract/FixedRateStaking_flattened.sol\":15360:15364  true */\n      0x01\n        /* \"contracts/fixed-rate-staking-contract/FixedRateStaking_flattened.sol\":15353:15364  return true */\n      swap2\n      pop\n      pop\n        /* \"contracts/fixed-rate-staking-contract/FixedRateStaking_flattened.sol\":15185:15371  function approve(address spender, uint256 value) public virtual returns (bool) {... */\n      swap3\n      swap2\n      pop\n      pop\n      jump\t// out\n        /* \"contracts/fixed-rate-staking-contract/FixedRateStaking_flattened.sol\":14036:14133  function totalSupply() public view virtual returns (uint256) {... */\n    tag_29:\n        /* \"contracts/fixed-rate-staking-contract/FixedRateStaking_flattened.sol\":14088:14095  uint256 */\n      0x00\n        /* \"contracts/fixed-rate-staking-contract/FixedRateStaking_flattened.sol\":14114:14126  _totalSupply */\n      sload(0x02)\n        /* \"contracts/fixed-rate-staking-contract/FixedRateStaking_flattened.sol\":14107:14126  return _totalSupply */\n      swap1\n      pop\n        /* \"contracts/fixed-rate-staking-contract/FixedRateStaking_flattened.sol\":14036:14133  function totalSupply() public view virtual returns (uint256) {... */\n      swap1\n      jump\t// out\n        /* \"contracts/fixed-rate-staking-contract/FixedRateStaking_flattened.sol\":15931:16175  function transferFrom(address from, address to, uint256 value) public virtual returns (bool) {... */\n    tag_35:\n        /* \"contracts/fixed-rate-staking-contract/FixedRateStaking_flattened.sol\":16018:16022  bool */\n      0x00\n        /* \"contracts/fixed-rate-staking-contract/FixedRateStaking_flattened.sol\":16034:16049  address spender */\n      dup1\n        /* \"contracts/fixed-rate-staking-contract/FixedRateStaking_flattened.sol\":16052:16064  _msgSender() */\n      tag_85\n        /* \"contracts/fixed-rate-staking-contract/FixedRateStaking_flattened.sol\":16052:16062  _msgSender */\n      tag_80\n        /* \"contracts/fixed-rate-staking-contract/FixedRateStaking_flattened.sol\":16052:16064  _msgSender() */\n      jump\t// in\n    tag_85:\n        /* \"contracts/fixed-rate-staking-contract/FixedRateStaking_flattened.sol\":16034:16064  address spender = _msgSender() */\n      swap1\n      pop\n        /* \"contracts/fixed-rate-staking-contract/FixedRateStaking_flattened.sol\":16074:16111  _spendAllowance(from, spender, value) */\n      tag_86\n        /* \"contracts/fixed-rate-staking-contract/FixedRateStaking_flattened.sol\":16090:16094  from */\n      dup6\n        /* \"contracts/fixed-rate-staking-contract/FixedRateStaking_flattened.sol\":16096:16103  spender */\n      dup3\n        /* \"contracts/fixed-rate-staking-contract/FixedRateStaking_flattened.sol\":16105:16110  value */\n      dup6\n        /* \"contracts/fixed-rate-staking-contract/FixedRateStaking_flattened.sol\":16074:16089  _spendAllowance */\n      tag_87\n        /* \"contracts/fixed-rate-staking-contract/FixedRateStaking_flattened.sol\":16074:16111  _spendAllowance(from, spender, value) */\n      jump\t// in\n    tag_86:\n        /* \"contracts/fixed-rate-staking-contract/FixedRateStaking_flattened.sol\":16121:16147  _transfer(from, to, value) */\n      tag_88\n        /* \"contracts/fixed-rate-staking-contract/FixedRateStaking_flattened.sol\":16131:16135  from */\n      dup6\n        /* \"contracts/fixed-rate-staking-contract/FixedRateStaking_flattened.sol\":16137:16139  to */\n      dup6\n        /* \"contracts/fixed-rate-staking-contract/FixedRateStaking_flattened.sol\":16141:16146  value */\n      dup6\n        /* \"contracts/fixed-rate-staking-contract/FixedRateStaking_flattened.sol\":16121:16130  _transfer */\n      tag_89\n        /* \"contracts/fixed-rate-staking-contract/FixedRateStaking_flattened.sol\":16121:16147  _transfer(from, to, value) */\n      jump\t// in\n    tag_88:\n        /* \"contracts/fixed-rate-staking-contract/FixedRateStaking_flattened.sol\":16164:16168  true */\n      0x01\n        /* \"contracts/fixed-rate-staking-contract/FixedRateStaking_flattened.sol\":16157:16168  return true */\n      swap2\n      pop\n      pop\n        /* \"contracts/fixed-rate-staking-contract/FixedRateStaking_flattened.sol\":15931:16175  function transferFrom(address from, address to, uint256 value) public virtual returns (bool) {... */\n      swap4\n      swap3\n      pop\n      pop\n      pop\n      jump\t// out\n        /* \"contracts/fixed-rate-staking-contract/FixedRateStaking_flattened.sol\":23400:24023  function unstake(uint256 amount) external {... */\n    tag_40:\n        /* \"contracts/fixed-rate-staking-contract/FixedRateStaking_flattened.sol\":23507:23508  0 */\n      0x00\n        /* \"contracts/fixed-rate-staking-contract/FixedRateStaking_flattened.sol\":23498:23504  amount */\n      dup2\n        /* \"contracts/fixed-rate-staking-contract/FixedRateStaking_flattened.sol\":23498:23508  amount > 0 */\n      gt\n        /* \"contracts/fixed-rate-staking-contract/FixedRateStaking_flattened.sol\":23490:23527  require(amount > 0, \"amount is <= 0\") */\n      tag_91\n      jumpi\n      mload(0x40)\n      0x08c379a000000000000000000000000000000000000000000000000000000000\n      dup2\n      mstore\n      0x04\n      add\n      tag_92\n      swap1\n      tag_93\n      jump\t// in\n    tag_92:\n      mload(0x40)\n      dup1\n      swap2\n      sub\n      swap1\n      revert\n    tag_91:\n        /* \"contracts/fixed-rate-staking-contract/FixedRateStaking_flattened.sol\":23631:23637  amount */\n      dup1\n        /* \"contracts/fixed-rate-staking-contract/FixedRateStaking_flattened.sol\":23609:23615  staked */\n      0x05\n        /* \"contracts/fixed-rate-staking-contract/FixedRateStaking_flattened.sol\":23609:23627  staked[msg.sender] */\n      0x00\n        /* \"contracts/fixed-rate-staking-contract/FixedRateStaking_flattened.sol\":23616:23626  msg.sender */\n      caller\n        /* \"contracts/fixed-rate-staking-contract/FixedRateStaking_flattened.sol\":23609:23627  staked[msg.sender] */\n      0xffffffffffffffffffffffffffffffffffffffff\n      and\n      0xffffffffffffffffffffffffffffffffffffffff\n      and\n      dup2\n      mstore\n      0x20\n      add\n      swap1\n      dup2\n      mstore\n      0x20\n      add\n      0x00\n      keccak256\n      sload\n        /* \"contracts/fixed-rate-staking-contract/FixedRateStaking_flattened.sol\":23609:23637  staked[msg.sender] >= amount */\n      lt\n      iszero\n        /* \"contracts/fixed-rate-staking-contract/FixedRateStaking_flattened.sol\":23601:23660  require(staked[msg.sender] >= amount, \"amount is > staked\") */\n      tag_94\n      jumpi\n      mload(0x40)\n      0x08c379a000000000000000000000000000000000000000000000000000000000\n      dup2\n      mstore\n      0x04\n      add\n      tag_95\n      swap1\n      tag_96\n      jump\t// in\n    tag_95:\n      mload(0x40)\n      dup1\n      swap2\n      sub\n      swap1\n      revert\n    tag_94:\n        /* \"contracts/fixed-rate-staking-contract/FixedRateStaking_flattened.sol\":23730:23737  claim() */\n      tag_97\n        /* \"contracts/fixed-rate-staking-contract/FixedRateStaking_flattened.sol\":23730:23735  claim */\n      tag_46\n        /* \"contracts/fixed-rate-staking-contract/FixedRateStaking_flattened.sol\":23730:23737  claim() */\n      jump\t// in\n    tag_97:\n        /* \"contracts/fixed-rate-staking-contract/FixedRateStaking_flattened.sol\":23835:23841  amount */\n      dup1\n        /* \"contracts/fixed-rate-staking-contract/FixedRateStaking_flattened.sol\":23813:23819  staked */\n      0x05\n        /* \"contracts/fixed-rate-staking-contract/FixedRateStaking_flattened.sol\":23813:23831  staked[msg.sender] */\n      0x00\n        /* \"contracts/fixed-rate-staking-contract/FixedRateStaking_flattened.sol\":23820:23830  msg.sender */\n      caller\n        /* \"contracts/fixed-rate-staking-contract/FixedRateStaking_flattened.sol\":23813:23831  staked[msg.sender] */\n      0xffffffffffffffffffffffffffffffffffffffff\n      and\n      0xffffffffffffffffffffffffffffffffffffffff\n      and\n      dup2\n      mstore\n      0x20\n      add\n      swap1\n      dup2\n      mstore\n      0x20\n      add\n      0x00\n      keccak256\n      0x00\n        /* \"contracts/fixed-rate-staking-contract/FixedRateStaking_flattened.sol\":23813:23841  staked[msg.sender] -= amount */\n      dup3\n      dup3\n      sload\n      tag_98\n      swap2\n      swap1\n      tag_99\n      jump\t// in\n    tag_98:\n      swap3\n      pop\n      pop\n      dup2\n      swap1\n      sstore\n      pop\n        /* \"contracts/fixed-rate-staking-contract/FixedRateStaking_flattened.sol\":23912:23956  _transfer(address(this), msg.sender, amount) */\n      tag_100\n        /* \"contracts/fixed-rate-staking-contract/FixedRateStaking_flattened.sol\":23930:23934  this */\n      address\n        /* \"contracts/fixed-rate-staking-contract/FixedRateStaking_flattened.sol\":23937:23947  msg.sender */\n      caller\n        /* \"contracts/fixed-rate-staking-contract/FixedRateStaking_flattened.sol\":23949:23955  amount */\n      dup4\n        /* \"contracts/fixed-rate-staking-contract/FixedRateStaking_flattened.sol\":23912:23921  _transfer */\n      tag_89\n        /* \"contracts/fixed-rate-staking-contract/FixedRateStaking_flattened.sol\":23912:23956  _transfer(address(this), msg.sender, amount) */\n      jump\t// in\n    tag_100:\n        /* \"contracts/fixed-rate-staking-contract/FixedRateStaking_flattened.sol\":23400:24023  function unstake(uint256 amount) external {... */\n      pop\n      jump\t// out\n        /* \"contracts/fixed-rate-staking-contract/FixedRateStaking_flattened.sol\":13894:13976  function decimals() public view virtual returns (uint8) {... */\n    tag_42:\n        /* \"contracts/fixed-rate-staking-contract/FixedRateStaking_flattened.sol\":13943:13948  uint8 */\n      0x00\n        /* \"contracts/fixed-rate-staking-contract/FixedRateStaking_flattened.sol\":13967:13969  18 */\n      0x12\n        /* \"contracts/fixed-rate-staking-contract/FixedRateStaking_flattened.sol\":13960:13969  return 18 */\n      swap1\n      pop\n        /* \"contracts/fixed-rate-staking-contract/FixedRateStaking_flattened.sol\":13894:13976  function decimals() public view virtual returns (uint8) {... */\n      swap1\n      jump\t// out\n        /* \"contracts/fixed-rate-staking-contract/FixedRateStaking_flattened.sol\":24029:24791  function claim() public {... */\n    tag_46:\n        /* \"contracts/fixed-rate-staking-contract/FixedRateStaking_flattened.sol\":24130:24131  0 */\n      0x00\n        /* \"contracts/fixed-rate-staking-contract/FixedRateStaking_flattened.sol\":24109:24115  staked */\n      0x05\n        /* \"contracts/fixed-rate-staking-contract/FixedRateStaking_flattened.sol\":24109:24127  staked[msg.sender] */\n      0x00\n        /* \"contracts/fixed-rate-staking-contract/FixedRateStaking_flattened.sol\":24116:24126  msg.sender */\n      caller\n        /* \"contracts/fixed-rate-staking-contract/FixedRateStaking_flattened.sol\":24109:24127  staked[msg.sender] */\n      0xffffffffffffffffffffffffffffffffffffffff\n      and\n      0xffffffffffffffffffffffffffffffffffffffff\n      and\n      dup2\n      mstore\n      0x20\n      add\n      swap1\n      dup2\n      mstore\n      0x20\n      add\n      0x00\n      keccak256\n      sload\n        /* \"contracts/fixed-rate-staking-contract/FixedRateStaking_flattened.sol\":24109:24131  staked[msg.sender] > 0 */\n      gt\n        /* \"contracts/fixed-rate-staking-contract/FixedRateStaking_flattened.sol\":24101:24150  require(staked[msg.sender] > 0, \"staked is <= 0\") */\n      tag_103\n      jumpi\n      mload(0x40)\n      0x08c379a000000000000000000000000000000000000000000000000000000000\n      dup2\n      mstore\n      0x04\n      add\n      tag_104\n      swap1\n      tag_105\n      jump\t// in\n    tag_104:\n      mload(0x40)\n      dup1\n      swap2\n      sub\n      swap1\n      revert\n    tag_103:\n        /* \"contracts/fixed-rate-staking-contract/FixedRateStaking_flattened.sol\":24213:24234  uint256 secondsStaked */\n      0x00\n        /* \"contracts/fixed-rate-staking-contract/FixedRateStaking_flattened.sol\":24255:24267  stakedFromTS */\n      0x06\n        /* \"contracts/fixed-rate-staking-contract/FixedRateStaking_flattened.sol\":24255:24279  stakedFromTS[msg.sender] */\n      0x00\n        /* \"contracts/fixed-rate-staking-contract/FixedRateStaking_flattened.sol\":24268:24278  msg.sender */\n      caller\n        /* \"contracts/fixed-rate-staking-contract/FixedRateStaking_flattened.sol\":24255:24279  stakedFromTS[msg.sender] */\n      0xffffffffffffffffffffffffffffffffffffffff\n      and\n      0xffffffffffffffffffffffffffffffffffffffff\n      and\n      dup2\n      mstore\n      0x20\n      add\n      swap1\n      dup2\n      mstore\n      0x20\n      add\n      0x00\n      keccak256\n      sload\n        /* \"contracts/fixed-rate-staking-contract/FixedRateStaking_flattened.sol\":24237:24252  block.timestamp */\n      timestamp\n        /* \"contracts/fixed-rate-staking-contract/FixedRateStaking_flattened.sol\":24237:24279  block.timestamp - stakedFromTS[msg.sender] */\n      tag_106\n      swap2\n      swap1\n      tag_99\n      jump\t// in\n    tag_106:\n        /* \"contracts/fixed-rate-staking-contract/FixedRateStaking_flattened.sol\":24213:24279  uint256 secondsStaked = block.timestamp - stakedFromTS[msg.sender] */\n      swap1\n      pop\n        /* \"contracts/fixed-rate-staking-contract/FixedRateStaking_flattened.sol\":24358:24373  uint256 rewards */\n      0x00\n        /* \"contracts/fixed-rate-staking-contract/FixedRateStaking_flattened.sol\":24413:24420  3.154e7 */\n      0x01e14320\n        /* \"contracts/fixed-rate-staking-contract/FixedRateStaking_flattened.sol\":24397:24410  secondsStaked */\n      dup3\n        /* \"contracts/fixed-rate-staking-contract/FixedRateStaking_flattened.sol\":24376:24382  staked */\n      0x05\n        /* \"contracts/fixed-rate-staking-contract/FixedRateStaking_flattened.sol\":24376:24394  staked[msg.sender] */\n      0x00\n        /* \"contracts/fixed-rate-staking-contract/FixedRateStaking_flattened.sol\":24383:24393  msg.sender */\n      caller\n        /* \"contracts/fixed-rate-staking-contract/FixedRateStaking_flattened.sol\":24376:24394  staked[msg.sender] */\n      0xffffffffffffffffffffffffffffffffffffffff\n      and\n      0xffffffffffffffffffffffffffffffffffffffff\n      and\n      dup2\n      mstore\n      0x20\n      add\n      swap1\n      dup2\n      mstore\n      0x20\n      add\n      0x00\n      keccak256\n      sload\n        /* \"contracts/fixed-rate-staking-contract/FixedRateStaking_flattened.sol\":24376:24410  staked[msg.sender] * secondsStaked */\n      tag_107\n      swap2\n      swap1\n      tag_108\n      jump\t// in\n    tag_107:\n        /* \"contracts/fixed-rate-staking-contract/FixedRateStaking_flattened.sol\":24376:24420  staked[msg.sender] * secondsStaked / 3.154e7 */\n      tag_109\n      swap2\n      swap1\n      tag_110\n      jump\t// in\n    tag_109:\n        /* \"contracts/fixed-rate-staking-contract/FixedRateStaking_flattened.sol\":24358:24420  uint256 rewards = staked[msg.sender] * secondsStaked / 3.154e7 */\n      swap1\n      pop\n        /* \"contracts/fixed-rate-staking-contract/FixedRateStaking_flattened.sol\":24556:24582  _mint(msg.sender, rewards) */\n      tag_111\n        /* \"contracts/fixed-rate-staking-contract/FixedRateStaking_flattened.sol\":24562:24572  msg.sender */\n      caller\n        /* \"contracts/fixed-rate-staking-contract/FixedRateStaking_flattened.sol\":24574:24581  rewards */\n      dup3\n        /* \"contracts/fixed-rate-staking-contract/FixedRateStaking_flattened.sol\":24556:24561  _mint */\n      tag_112\n        /* \"contracts/fixed-rate-staking-contract/FixedRateStaking_flattened.sol\":24556:24582  _mint(msg.sender, rewards) */\n      jump\t// in\n    tag_111:\n        /* \"contracts/fixed-rate-staking-contract/FixedRateStaking_flattened.sol\":24690:24705  block.timestamp */\n      timestamp\n        /* \"contracts/fixed-rate-staking-contract/FixedRateStaking_flattened.sol\":24663:24675  stakedFromTS */\n      0x06\n        /* \"contracts/fixed-rate-staking-contract/FixedRateStaking_flattened.sol\":24663:24687  stakedFromTS[msg.sender] */\n      0x00\n        /* \"contracts/fixed-rate-staking-contract/FixedRateStaking_flattened.sol\":24676:24686  msg.sender */\n      caller\n        /* \"contracts/fixed-rate-staking-contract/FixedRateStaking_flattened.sol\":24663:24687  stakedFromTS[msg.sender] */\n      0xffffffffffffffffffffffffffffffffffffffff\n      and\n      0xffffffffffffffffffffffffffffffffffffffff\n      and\n      dup2\n      mstore\n      0x20\n      add\n      swap1\n      dup2\n      mstore\n      0x20\n      add\n      0x00\n      keccak256\n        /* \"contracts/fixed-rate-staking-contract/FixedRateStaking_flattened.sol\":24663:24705  stakedFromTS[msg.sender] = block.timestamp */\n      dup2\n      swap1\n      sstore\n      pop\n        /* \"contracts/fixed-rate-staking-contract/FixedRateStaking_flattened.sol\":24053:24791  {... */\n      pop\n      pop\n        /* \"contracts/fixed-rate-staking-contract/FixedRateStaking_flattened.sol\":24029:24791  function claim() public {... */\n      jump\t// out\n        /* \"contracts/fixed-rate-staking-contract/FixedRateStaking_flattened.sol\":14191:14307  function balanceOf(address account) public view virtual returns (uint256) {... */\n    tag_50:\n        /* \"contracts/fixed-rate-staking-contract/FixedRateStaking_flattened.sol\":14256:14263  uint256 */\n      0x00\n        /* \"contracts/fixed-rate-staking-contract/FixedRateStaking_flattened.sol\":14282:14291  _balances */\n      dup1\n        /* \"contracts/fixed-rate-staking-contract/FixedRateStaking_flattened.sol\":14282:14300  _balances[account] */\n      0x00\n        /* \"contracts/fixed-rate-staking-contract/FixedRateStaking_flattened.sol\":14292:14299  account */\n      dup4\n        /* \"contracts/fixed-rate-staking-contract/FixedRateStaking_flattened.sol\":14282:14300  _balances[account] */\n      0xffffffffffffffffffffffffffffffffffffffff\n      and\n      0xffffffffffffffffffffffffffffffffffffffff\n      and\n      dup2\n      mstore\n      0x20\n      add\n      swap1\n      dup2\n      mstore\n      0x20\n      add\n      0x00\n      keccak256\n      sload\n        /* \"contracts/fixed-rate-staking-contract/FixedRateStaking_flattened.sol\":14275:14300  return _balances[account] */\n      swap1\n      pop\n        /* \"contracts/fixed-rate-staking-contract/FixedRateStaking_flattened.sol\":14191:14307  function balanceOf(address account) public view virtual returns (uint256) {... */\n      swap2\n      swap1\n      pop\n      jump\t// out\n        /* \"contracts/fixed-rate-staking-contract/FixedRateStaking_flattened.sol\":13168:13261  function symbol() public view virtual returns (string memory) {... */\n    tag_53:\n        /* \"contracts/fixed-rate-staking-contract/FixedRateStaking_flattened.sol\":13215:13228  string memory */\n      0x60\n        /* \"contracts/fixed-rate-staking-contract/FixedRateStaking_flattened.sol\":13247:13254  _symbol */\n      0x04\n        /* \"contracts/fixed-rate-staking-contract/FixedRateStaking_flattened.sol\":13240:13254  return _symbol */\n      dup1\n      sload\n      tag_115\n      swap1\n      tag_73\n      jump\t// in\n    tag_115:\n      dup1\n      0x1f\n      add\n      0x20\n      dup1\n      swap2\n      div\n      mul\n      0x20\n      add\n      mload(0x40)\n      swap1\n      dup2\n      add\n      0x40\n      mstore\n      dup1\n      swap3\n      swap2\n      swap1\n      dup2\n      dup2\n      mstore\n      0x20\n      add\n      dup3\n      dup1\n      sload\n      tag_116\n      swap1\n      tag_73\n      jump\t// in\n    tag_116:\n      dup1\n      iszero\n      tag_117\n      jumpi\n      dup1\n      0x1f\n      lt\n      tag_118\n      jumpi\n      0x0100\n      dup1\n      dup4\n      sload\n      div\n      mul\n      dup4\n      mstore\n      swap2\n      0x20\n      add\n      swap2\n      jump(tag_117)\n    tag_118:\n      dup3\n      add\n      swap2\n      swap1\n      0x00\n      mstore\n      keccak256(0x00, 0x20)\n      swap1\n    tag_119:\n      dup2\n      sload\n      dup2\n      mstore\n      swap1\n      0x01\n      add\n      swap1\n      0x20\n      add\n      dup1\n      dup4\n      gt\n      tag_119\n      jumpi\n      dup3\n      swap1\n      sub\n      0x1f\n      and\n      dup3\n      add\n      swap2\n    tag_117:\n      pop\n      pop\n      pop\n      pop\n      pop\n      swap1\n      pop\n        /* \"contracts/fixed-rate-staking-contract/FixedRateStaking_flattened.sol\":13168:13261  function symbol() public view virtual returns (string memory) {... */\n      swap1\n      jump\t// out\n        /* \"contracts/fixed-rate-staking-contract/FixedRateStaking_flattened.sol\":22172:22213  mapping(address => uint256) public staked */\n    tag_57:\n      mstore(0x20, 0x05)\n      dup1\n      0x00\n      mstore\n      keccak256(0x00, 0x40)\n      0x00\n      swap2\n      pop\n      swap1\n      pop\n      sload\n      dup2\n      jump\t// out\n        /* \"contracts/fixed-rate-staking-contract/FixedRateStaking_flattened.sol\":22526:23394  function stake(uint256 amount) external {... */\n    tag_61:\n        /* \"contracts/fixed-rate-staking-contract/FixedRateStaking_flattened.sol\":22630:22631  0 */\n      0x00\n        /* \"contracts/fixed-rate-staking-contract/FixedRateStaking_flattened.sol\":22621:22627  amount */\n      dup2\n        /* \"contracts/fixed-rate-staking-contract/FixedRateStaking_flattened.sol\":22621:22631  amount > 0 */\n      gt\n        /* \"contracts/fixed-rate-staking-contract/FixedRateStaking_flattened.sol\":22613:22650  require(amount > 0, \"amount is <= 0\") */\n      tag_121\n      jumpi\n      mload(0x40)\n      0x08c379a000000000000000000000000000000000000000000000000000000000\n      dup2\n      mstore\n      0x04\n      add\n      tag_122\n      swap1\n      tag_93\n      jump\t// in\n    tag_122:\n      mload(0x40)\n      dup1\n      swap2\n      sub\n      swap1\n      revert\n    tag_121:\n        /* \"contracts/fixed-rate-staking-contract/FixedRateStaking_flattened.sol\":22756:22762  amount */\n      dup1\n        /* \"contracts/fixed-rate-staking-contract/FixedRateStaking_flattened.sol\":22731:22752  balanceOf(msg.sender) */\n      tag_123\n        /* \"contracts/fixed-rate-staking-contract/FixedRateStaking_flattened.sol\":22741:22751  msg.sender */\n      caller\n        /* \"contracts/fixed-rate-staking-contract/FixedRateStaking_flattened.sol\":22731:22740  balanceOf */\n      tag_50\n        /* \"contracts/fixed-rate-staking-contract/FixedRateStaking_flattened.sol\":22731:22752  balanceOf(msg.sender) */\n      jump\t// in\n    tag_123:\n        /* \"contracts/fixed-rate-staking-contract/FixedRateStaking_flattened.sol\":22731:22762  balanceOf(msg.sender) >= amount */\n      lt\n      iszero\n        /* \"contracts/fixed-rate-staking-contract/FixedRateStaking_flattened.sol\":22723:22787  require(balanceOf(msg.sender) >= amount, \"balance is <= amount\") */\n      tag_124\n      jumpi\n      mload(0x40)\n      0x08c379a000000000000000000000000000000000000000000000000000000000\n      dup2\n      mstore\n      0x04\n      add\n      tag_125\n      swap1\n      tag_126\n      jump\t// in\n    tag_125:\n      mload(0x40)\n      dup1\n      swap2\n      sub\n      swap1\n      revert\n    tag_124:\n        /* \"contracts/fixed-rate-staking-contract/FixedRateStaking_flattened.sol\":22860:22904  _transfer(msg.sender, address(this), amount) */\n      tag_127\n        /* \"contracts/fixed-rate-staking-contract/FixedRateStaking_flattened.sol\":22870:22880  msg.sender */\n      caller\n        /* \"contracts/fixed-rate-staking-contract/FixedRateStaking_flattened.sol\":22890:22894  this */\n      address\n        /* \"contracts/fixed-rate-staking-contract/FixedRateStaking_flattened.sol\":22897:22903  amount */\n      dup4\n        /* \"contracts/fixed-rate-staking-contract/FixedRateStaking_flattened.sol\":22860:22869  _transfer */\n      tag_89\n        /* \"contracts/fixed-rate-staking-contract/FixedRateStaking_flattened.sol\":22860:22904  _transfer(msg.sender, address(this), amount) */\n      jump\t// in\n    tag_127:\n        /* \"contracts/fixed-rate-staking-contract/FixedRateStaking_flattened.sol\":23024:23025  0 */\n      0x00\n        /* \"contracts/fixed-rate-staking-contract/FixedRateStaking_flattened.sol\":23003:23009  staked */\n      0x05\n        /* \"contracts/fixed-rate-staking-contract/FixedRateStaking_flattened.sol\":23003:23021  staked[msg.sender] */\n      0x00\n        /* \"contracts/fixed-rate-staking-contract/FixedRateStaking_flattened.sol\":23010:23020  msg.sender */\n      caller\n        /* \"contracts/fixed-rate-staking-contract/FixedRateStaking_flattened.sol\":23003:23021  staked[msg.sender] */\n      0xffffffffffffffffffffffffffffffffffffffff\n      and\n      0xffffffffffffffffffffffffffffffffffffffff\n      and\n      dup2\n      mstore\n      0x20\n      add\n      swap1\n      dup2\n      mstore\n      0x20\n      add\n      0x00\n      keccak256\n      sload\n        /* \"contracts/fixed-rate-staking-contract/FixedRateStaking_flattened.sol\":23003:23025  staked[msg.sender] > 0 */\n      gt\n        /* \"contracts/fixed-rate-staking-contract/FixedRateStaking_flattened.sol\":22999:23174  if (staked[msg.sender] > 0) {... */\n      iszero\n      tag_128\n      jumpi\n        /* \"contracts/fixed-rate-staking-contract/FixedRateStaking_flattened.sol\":23041:23048  claim() */\n      tag_129\n        /* \"contracts/fixed-rate-staking-contract/FixedRateStaking_flattened.sol\":23041:23046  claim */\n      tag_46\n        /* \"contracts/fixed-rate-staking-contract/FixedRateStaking_flattened.sol\":23041:23048  claim() */\n      jump\t// in\n    tag_129:\n        /* \"contracts/fixed-rate-staking-contract/FixedRateStaking_flattened.sol\":22999:23174  if (staked[msg.sender] > 0) {... */\n    tag_128:\n        /* \"contracts/fixed-rate-staking-contract/FixedRateStaking_flattened.sol\":23210:23225  block.timestamp */\n      timestamp\n        /* \"contracts/fixed-rate-staking-contract/FixedRateStaking_flattened.sol\":23183:23195  stakedFromTS */\n      0x06\n        /* \"contracts/fixed-rate-staking-contract/FixedRateStaking_flattened.sol\":23183:23207  stakedFromTS[msg.sender] */\n      0x00\n        /* \"contracts/fixed-rate-staking-contract/FixedRateStaking_flattened.sol\":23196:23206  msg.sender */\n      caller\n        /* \"contracts/fixed-rate-staking-contract/FixedRateStaking_flattened.sol\":23183:23207  stakedFromTS[msg.sender] */\n      0xffffffffffffffffffffffffffffffffffffffff\n      and\n      0xffffffffffffffffffffffffffffffffffffffff\n      and\n      dup2\n      mstore\n      0x20\n      add\n      swap1\n      dup2\n      mstore\n      0x20\n      add\n      0x00\n      keccak256\n        /* \"contracts/fixed-rate-staking-contract/FixedRateStaking_flattened.sol\":23183:23225  stakedFromTS[msg.sender] = block.timestamp */\n      dup2\n      swap1\n      sstore\n      pop\n        /* \"contracts/fixed-rate-staking-contract/FixedRateStaking_flattened.sol\":23319:23325  amount */\n      dup1\n        /* \"contracts/fixed-rate-staking-contract/FixedRateStaking_flattened.sol\":23297:23303  staked */\n      0x05\n        /* \"contracts/fixed-rate-staking-contract/FixedRateStaking_flattened.sol\":23297:23315  staked[msg.sender] */\n      0x00\n        /* \"contracts/fixed-rate-staking-contract/FixedRateStaking_flattened.sol\":23304:23314  msg.sender */\n      caller\n        /* \"contracts/fixed-rate-staking-contract/FixedRateStaking_flattened.sol\":23297:23315  staked[msg.sender] */\n      0xffffffffffffffffffffffffffffffffffffffff\n      and\n      0xffffffffffffffffffffffffffffffffffffffff\n      and\n      dup2\n      mstore\n      0x20\n      add\n      swap1\n      dup2\n      mstore\n      0x20\n      add\n      0x00\n      keccak256\n      0x00\n        /* \"contracts/fixed-rate-staking-contract/FixedRateStaking_flattened.sol\":23297:23325  staked[msg.sender] += amount */\n      dup3\n      dup3\n      sload\n      tag_130\n      swap2\n      swap1\n      tag_131\n      jump\t// in\n    tag_130:\n      swap3\n      pop\n      pop\n      dup2\n      swap1\n      sstore\n      pop\n        /* \"contracts/fixed-rate-staking-contract/FixedRateStaking_flattened.sol\":22526:23394  function stake(uint256 amount) external {... */\n      pop\n      jump\t// out\n        /* \"contracts/fixed-rate-staking-contract/FixedRateStaking_flattened.sol\":14502:14680  function transfer(address to, uint256 value) public virtual returns (bool) {... */\n    tag_64:\n        /* \"contracts/fixed-rate-staking-contract/FixedRateStaking_flattened.sol\":14571:14575  bool */\n      0x00\n        /* \"contracts/fixed-rate-staking-contract/FixedRateStaking_flattened.sol\":14587:14600  address owner */\n      dup1\n        /* \"contracts/fixed-rate-staking-contract/FixedRateStaking_flattened.sol\":14603:14615  _msgSender() */\n      tag_133\n        /* \"contracts/fixed-rate-staking-contract/FixedRateStaking_flattened.sol\":14603:14613  _msgSender */\n      tag_80\n        /* \"contracts/fixed-rate-staking-contract/FixedRateStaking_flattened.sol\":14603:14615  _msgSender() */\n      jump\t// in\n    tag_133:\n        /* \"contracts/fixed-rate-staking-contract/FixedRateStaking_flattened.sol\":14587:14615  address owner = _msgSender() */\n      swap1\n      pop\n        /* \"contracts/fixed-rate-staking-contract/FixedRateStaking_flattened.sol\":14625:14652  _transfer(owner, to, value) */\n      tag_134\n        /* \"contracts/fixed-rate-staking-contract/FixedRateStaking_flattened.sol\":14635:14640  owner */\n      dup2\n        /* \"contracts/fixed-rate-staking-contract/FixedRateStaking_flattened.sol\":14642:14644  to */\n      dup6\n        /* \"contracts/fixed-rate-staking-contract/FixedRateStaking_flattened.sol\":14646:14651  value */\n      dup6\n        /* \"contracts/fixed-rate-staking-contract/FixedRateStaking_flattened.sol\":14625:14634  _transfer */\n      tag_89\n        /* \"contracts/fixed-rate-staking-contract/FixedRateStaking_flattened.sol\":14625:14652  _transfer(owner, to, value) */\n      jump\t// in\n    tag_134:\n        /* \"contracts/fixed-rate-staking-contract/FixedRateStaking_flattened.sol\":14669:14673  true */\n      0x01\n        /* \"contracts/fixed-rate-staking-contract/FixedRateStaking_flattened.sol\":14662:14673  return true */\n      swap2\n      pop\n      pop\n        /* \"contracts/fixed-rate-staking-contract/FixedRateStaking_flattened.sol\":14502:14680  function transfer(address to, uint256 value) public virtual returns (bool) {... */\n      swap3\n      swap2\n      pop\n      pop\n      jump\t// out\n        /* \"contracts/fixed-rate-staking-contract/FixedRateStaking_flattened.sol\":14738:14878  function allowance(address owner, address spender) public view virtual returns (uint256) {... */\n    tag_69:\n        /* \"contracts/fixed-rate-staking-contract/FixedRateStaking_flattened.sol\":14818:14825  uint256 */\n      0x00\n        /* \"contracts/fixed-rate-staking-contract/FixedRateStaking_flattened.sol\":14844:14855  _allowances */\n      0x01\n        /* \"contracts/fixed-rate-staking-contract/FixedRateStaking_flattened.sol\":14844:14862  _allowances[owner] */\n      0x00\n        /* \"contracts/fixed-rate-staking-contract/FixedRateStaking_flattened.sol\":14856:14861  owner */\n      dup5\n        /* \"contracts/fixed-rate-staking-contract/FixedRateStaking_flattened.sol\":14844:14862  _allowances[owner] */\n      0xffffffffffffffffffffffffffffffffffffffff\n      and\n      0xffffffffffffffffffffffffffffffffffffffff\n      and\n      dup2\n      mstore\n      0x20\n      add\n      swap1\n      dup2\n      mstore\n      0x20\n      add\n      0x00\n      keccak256\n        /* \"contracts/fixed-rate-staking-contract/FixedRateStaking_flattened.sol\":14844:14871  _allowances[owner][spender] */\n      0x00\n        /* \"contracts/fixed-rate-staking-contract/FixedRateStaking_flattened.sol\":14863:14870  spender */\n      dup4\n        /* \"contracts/fixed-rate-staking-contract/FixedRateStaking_flattened.sol\":14844:14871  _allowances[owner][spender] */\n      0xffffffffffffffffffffffffffffffffffffffff\n      and\n      0xffffffffffffffffffffffffffffffffffffffff\n      and\n      dup2\n      mstore\n      0x20\n      add\n      swap1\n      dup2\n      mstore\n      0x20\n      add\n      0x00\n      keccak256\n      sload\n        /* \"contracts/fixed-rate-staking-contract/FixedRateStaking_flattened.sol\":14837:14871  return _allowances[owner][spender] */\n      swap1\n      pop\n        /* \"contracts/fixed-rate-staking-contract/FixedRateStaking_flattened.sol\":14738:14878  function allowance(address owner, address spender) public view virtual returns (uint256) {... */\n      swap3\n      swap2\n      pop\n      pop\n      jump\t// out\n        /* \"contracts/fixed-rate-staking-contract/FixedRateStaking_flattened.sol\":7275:7371  function _msgSender() internal view virtual returns (address) {... */\n    tag_80:\n        /* \"contracts/fixed-rate-staking-contract/FixedRateStaking_flattened.sol\":7328:7335  address */\n      0x00\n        /* \"contracts/fixed-rate-staking-contract/FixedRateStaking_flattened.sol\":7354:7364  msg.sender */\n      caller\n        /* \"contracts/fixed-rate-staking-contract/FixedRateStaking_flattened.sol\":7347:7364  return msg.sender */\n      swap1\n      pop\n        /* \"contracts/fixed-rate-staking-contract/FixedRateStaking_flattened.sol\":7275:7371  function _msgSender() internal view virtual returns (address) {... */\n      swap1\n      jump\t// out\n        /* \"contracts/fixed-rate-staking-contract/FixedRateStaking_flattened.sol\":19881:20009  function _approve(address owner, address spender, uint256 value) internal {... */\n    tag_82:\n        /* \"contracts/fixed-rate-staking-contract/FixedRateStaking_flattened.sol\":19965:20002  _approve(owner, spender, value, true) */\n      tag_138\n        /* \"contracts/fixed-rate-staking-contract/FixedRateStaking_flattened.sol\":19974:19979  owner */\n      dup4\n        /* \"contracts/fixed-rate-staking-contract/FixedRateStaking_flattened.sol\":19981:19988  spender */\n      dup4\n        /* \"contracts/fixed-rate-staking-contract/FixedRateStaking_flattened.sol\":19990:19995  value */\n      dup4\n        /* \"contracts/fixed-rate-staking-contract/FixedRateStaking_flattened.sol\":19997:20001  true */\n      0x01\n        /* \"contracts/fixed-rate-staking-contract/FixedRateStaking_flattened.sol\":19965:19973  _approve */\n      tag_139\n        /* \"contracts/fixed-rate-staking-contract/FixedRateStaking_flattened.sol\":19965:20002  _approve(owner, spender, value, true) */\n      jump\t// in\n    tag_138:\n        /* \"contracts/fixed-rate-staking-contract/FixedRateStaking_flattened.sol\":19881:20009  function _approve(address owner, address spender, uint256 value) internal {... */\n      pop\n      pop\n      pop\n      jump\t// out\n        /* \"contracts/fixed-rate-staking-contract/FixedRateStaking_flattened.sol\":21555:22032  function _spendAllowance(address owner, address spender, uint256 value) internal virtual {... */\n    tag_87:\n        /* \"contracts/fixed-rate-staking-contract/FixedRateStaking_flattened.sol\":21654:21678  uint256 currentAllowance */\n      0x00\n        /* \"contracts/fixed-rate-staking-contract/FixedRateStaking_flattened.sol\":21681:21706  allowance(owner, spender) */\n      tag_141\n        /* \"contracts/fixed-rate-staking-contract/FixedRateStaking_flattened.sol\":21691:21696  owner */\n      dup5\n        /* \"contracts/fixed-rate-staking-contract/FixedRateStaking_flattened.sol\":21698:21705  spender */\n      dup5\n        /* \"contracts/fixed-rate-staking-contract/FixedRateStaking_flattened.sol\":21681:21690  allowance */\n      tag_69\n        /* \"contracts/fixed-rate-staking-contract/FixedRateStaking_flattened.sol\":21681:21706  allowance(owner, spender) */\n      jump\t// in\n    tag_141:\n        /* \"contracts/fixed-rate-staking-contract/FixedRateStaking_flattened.sol\":21654:21706  uint256 currentAllowance = allowance(owner, spender) */\n      swap1\n      pop\n        /* \"contracts/fixed-rate-staking-contract/FixedRateStaking_flattened.sol\":21740:21757  type(uint256).max */\n      0xffffffffffffffffffffffffffffffffffffffffffffffffffffffffffffffff\n        /* \"contracts/fixed-rate-staking-contract/FixedRateStaking_flattened.sol\":21720:21736  currentAllowance */\n      dup2\n        /* \"contracts/fixed-rate-staking-contract/FixedRateStaking_flattened.sol\":21720:21757  currentAllowance != type(uint256).max */\n      eq\n        /* \"contracts/fixed-rate-staking-contract/FixedRateStaking_flattened.sol\":21716:22026  if (currentAllowance != type(uint256).max) {... */\n      tag_142\n      jumpi\n        /* \"contracts/fixed-rate-staking-contract/FixedRateStaking_flattened.sol\":21796:21801  value */\n      dup2\n        /* \"contracts/fixed-rate-staking-contract/FixedRateStaking_flattened.sol\":21777:21793  currentAllowance */\n      dup2\n        /* \"contracts/fixed-rate-staking-contract/FixedRateStaking_flattened.sol\":21777:21801  currentAllowance < value */\n      lt\n        /* \"contracts/fixed-rate-staking-contract/FixedRateStaking_flattened.sol\":21773:21903  if (currentAllowance < value) {... */\n      iszero\n      tag_143\n      jumpi\n        /* \"contracts/fixed-rate-staking-contract/FixedRateStaking_flattened.sol\":21855:21862  spender */\n      dup3\n        /* \"contracts/fixed-rate-staking-contract/FixedRateStaking_flattened.sol\":21864:21880  currentAllowance */\n      dup2\n        /* \"contracts/fixed-rate-staking-contract/FixedRateStaking_flattened.sol\":21882:21887  value */\n      dup4\n        /* \"contracts/fixed-rate-staking-contract/FixedRateStaking_flattened.sol\":21828:21888  ERC20InsufficientAllowance(spender, currentAllowance, value) */\n      mload(0x40)\n      0xfb8f41b200000000000000000000000000000000000000000000000000000000\n      dup2\n      mstore\n      0x04\n      add\n      tag_144\n      swap4\n      swap3\n      swap2\n      swap1\n      tag_145\n      jump\t// in\n    tag_144:\n      mload(0x40)\n      dup1\n      swap2\n      sub\n      swap1\n      revert\n        /* \"contracts/fixed-rate-staking-contract/FixedRateStaking_flattened.sol\":21773:21903  if (currentAllowance < value) {... */\n    tag_143:\n        /* \"contracts/fixed-rate-staking-contract/FixedRateStaking_flattened.sol\":21944:22001  _approve(owner, spender, currentAllowance - value, false) */\n      tag_146\n        /* \"contracts/fixed-rate-staking-contract/FixedRateStaking_flattened.sol\":21953:21958  owner */\n      dup5\n        /* \"contracts/fixed-rate-staking-contract/FixedRateStaking_flattened.sol\":21960:21967  spender */\n      dup5\n        /* \"contracts/fixed-rate-staking-contract/FixedRateStaking_flattened.sol\":21988:21993  value */\n      dup5\n        /* \"contracts/fixed-rate-staking-contract/FixedRateStaking_flattened.sol\":21969:21985  currentAllowance */\n      dup5\n        /* \"contracts/fixed-rate-staking-contract/FixedRateStaking_flattened.sol\":21969:21993  currentAllowance - value */\n      sub\n        /* \"contracts/fixed-rate-staking-contract/FixedRateStaking_flattened.sol\":21995:22000  false */\n      0x00\n        /* \"contracts/fixed-rate-staking-contract/FixedRateStaking_flattened.sol\":21944:21952  _approve */\n      tag_139\n        /* \"contracts/fixed-rate-staking-contract/FixedRateStaking_flattened.sol\":21944:22001  _approve(owner, spender, currentAllowance - value, false) */\n      jump\t// in\n    tag_146:\n        /* \"contracts/fixed-rate-staking-contract/FixedRateStaking_flattened.sol\":21716:22026  if (currentAllowance != type(uint256).max) {... */\n    tag_142:\n        /* \"contracts/fixed-rate-staking-contract/FixedRateStaking_flattened.sol\":21644:22032  {... */\n      pop\n        /* \"contracts/fixed-rate-staking-contract/FixedRateStaking_flattened.sol\":21555:22032  function _spendAllowance(address owner, address spender, uint256 value) internal virtual {... */\n      pop\n      pop\n      pop\n      jump\t// out\n        /* \"contracts/fixed-rate-staking-contract/FixedRateStaking_flattened.sol\":16548:16848  function _transfer(address from, address to, uint256 value) internal {... */\n    tag_89:\n        /* \"contracts/fixed-rate-staking-contract/FixedRateStaking_flattened.sol\":16647:16648  0 */\n      0x00\n        /* \"contracts/fixed-rate-staking-contract/FixedRateStaking_flattened.sol\":16631:16649  from == address(0) */\n      0xffffffffffffffffffffffffffffffffffffffff\n      and\n        /* \"contracts/fixed-rate-staking-contract/FixedRateStaking_flattened.sol\":16631:16635  from */\n      dup4\n        /* \"contracts/fixed-rate-staking-contract/FixedRateStaking_flattened.sol\":16631:16649  from == address(0) */\n      0xffffffffffffffffffffffffffffffffffffffff\n      and\n      sub\n        /* \"contracts/fixed-rate-staking-contract/FixedRateStaking_flattened.sol\":16627:16713  if (from == address(0)) {... */\n      tag_148\n      jumpi\n        /* \"contracts/fixed-rate-staking-contract/FixedRateStaking_flattened.sol\":16699:16700  0 */\n      0x00\n        /* \"contracts/fixed-rate-staking-contract/FixedRateStaking_flattened.sol\":16672:16702  ERC20InvalidSender(address(0)) */\n      mload(0x40)\n      0x96c6fd1e00000000000000000000000000000000000000000000000000000000\n      dup2\n      mstore\n      0x04\n      add\n      tag_149\n      swap2\n      swap1\n      tag_150\n      jump\t// in\n    tag_149:\n      mload(0x40)\n      dup1\n      swap2\n      sub\n      swap1\n      revert\n        /* \"contracts/fixed-rate-staking-contract/FixedRateStaking_flattened.sol\":16627:16713  if (from == address(0)) {... */\n    tag_148:\n        /* \"contracts/fixed-rate-staking-contract/FixedRateStaking_flattened.sol\":16740:16741  0 */\n      0x00\n        /* \"contracts/fixed-rate-staking-contract/FixedRateStaking_flattened.sol\":16726:16742  to == address(0) */\n      0xffffffffffffffffffffffffffffffffffffffff\n      and\n        /* \"contracts/fixed-rate-staking-contract/FixedRateStaking_flattened.sol\":16726:16728  to */\n      dup3\n        /* \"contracts/fixed-rate-staking-contract/FixedRateStaking_flattened.sol\":16726:16742  to == address(0) */\n      0xffffffffffffffffffffffffffffffffffffffff\n      and\n      sub\n        /* \"contracts/fixed-rate-staking-contract/FixedRateStaking_flattened.sol\":16722:16808  if (to == address(0)) {... */\n      tag_151\n      jumpi\n        /* \"contracts/fixed-rate-staking-contract/FixedRateStaking_flattened.sol\":16794:16795  0 */\n      0x00\n        /* \"contracts/fixed-rate-staking-contract/FixedRateStaking_flattened.sol\":16765:16797  ERC20InvalidReceiver(address(0)) */\n      mload(0x40)\n      0xec442f0500000000000000000000000000000000000000000000000000000000\n      dup2\n      mstore\n      0x04\n      add\n      tag_152\n      swap2\n      swap1\n      tag_150\n      jump\t// in\n    tag_152:\n      mload(0x40)\n      dup1\n      swap2\n      sub\n      swap1\n      revert\n        /* \"contracts/fixed-rate-staking-contract/FixedRateStaking_flattened.sol\":16722:16808  if (to == address(0)) {... */\n    tag_151:\n        /* \"contracts/fixed-rate-staking-contract/FixedRateStaking_flattened.sol\":16817:16841  _update(from, to, value) */\n      tag_153\n        /* \"contracts/fixed-rate-staking-contract/FixedRateStaking_flattened.sol\":16825:16829  from */\n      dup4\n        /* \"contracts/fixed-rate-staking-contract/FixedRateStaking_flattened.sol\":16831:16833  to */\n      dup4\n        /* \"contracts/fixed-rate-staking-contract/FixedRateStaking_flattened.sol\":16835:16840  value */\n      dup4\n        /* \"contracts/fixed-rate-staking-contract/FixedRateStaking_flattened.sol\":16817:16824  _update */\n      tag_154\n        /* \"contracts/fixed-rate-staking-contract/FixedRateStaking_flattened.sol\":16817:16841  _update(from, to, value) */\n      jump\t// in\n    tag_153:\n        /* \"contracts/fixed-rate-staking-contract/FixedRateStaking_flattened.sol\":16548:16848  function _transfer(address from, address to, uint256 value) internal {... */\n      pop\n      pop\n      pop\n      jump\t// out\n        /* \"contracts/fixed-rate-staking-contract/FixedRateStaking_flattened.sol\":18613:18821  function _mint(address account, uint256 value) internal {... */\n    tag_112:\n        /* \"contracts/fixed-rate-staking-contract/FixedRateStaking_flattened.sol\":18702:18703  0 */\n      0x00\n        /* \"contracts/fixed-rate-staking-contract/FixedRateStaking_flattened.sol\":18683:18704  account == address(0) */\n      0xffffffffffffffffffffffffffffffffffffffff\n      and\n        /* \"contracts/fixed-rate-staking-contract/FixedRateStaking_flattened.sol\":18683:18690  account */\n      dup3\n        /* \"contracts/fixed-rate-staking-contract/FixedRateStaking_flattened.sol\":18683:18704  account == address(0) */\n      0xffffffffffffffffffffffffffffffffffffffff\n      and\n      sub\n        /* \"contracts/fixed-rate-staking-contract/FixedRateStaking_flattened.sol\":18679:18770  if (account == address(0)) {... */\n      tag_156\n      jumpi\n        /* \"contracts/fixed-rate-staking-contract/FixedRateStaking_flattened.sol\":18756:18757  0 */\n      0x00\n        /* \"contracts/fixed-rate-staking-contract/FixedRateStaking_flattened.sol\":18727:18759  ERC20InvalidReceiver(address(0)) */\n      mload(0x40)\n      0xec442f0500000000000000000000000000000000000000000000000000000000\n      dup2\n      mstore\n      0x04\n      add\n      tag_157\n      swap2\n      swap1\n      tag_150\n      jump\t// in\n    tag_157:\n      mload(0x40)\n      dup1\n      swap2\n      sub\n      swap1\n      revert\n        /* \"contracts/fixed-rate-staking-contract/FixedRateStaking_flattened.sol\":18679:18770  if (account == address(0)) {... */\n    tag_156:\n        /* \"contracts/fixed-rate-staking-contract/FixedRateStaking_flattened.sol\":18779:18814  _update(address(0), account, value) */\n      tag_158\n        /* \"contracts/fixed-rate-staking-contract/FixedRateStaking_flattened.sol\":18795:18796  0 */\n      0x00\n        /* \"contracts/fixed-rate-staking-contract/FixedRateStaking_flattened.sol\":18799:18806  account */\n      dup4\n        /* \"contracts/fixed-rate-staking-contract/FixedRateStaking_flattened.sol\":18808:18813  value */\n      dup4\n        /* \"contracts/fixed-rate-staking-contract/FixedRateStaking_flattened.sol\":18779:18786  _update */\n      tag_154\n        /* \"contracts/fixed-rate-staking-contract/FixedRateStaking_flattened.sol\":18779:18814  _update(address(0), account, value) */\n      jump\t// in\n    tag_158:\n        /* \"contracts/fixed-rate-staking-contract/FixedRateStaking_flattened.sol\":18613:18821  function _mint(address account, uint256 value) internal {... */\n      pop\n      pop\n      jump\t// out\n        /* \"contracts/fixed-rate-staking-contract/FixedRateStaking_flattened.sol\":20841:21273  function _approve(address owner, address spender, uint256 value, bool emitEvent) internal virtual {... */\n    tag_139:\n        /* \"contracts/fixed-rate-staking-contract/FixedRateStaking_flattened.sol\":20970:20971  0 */\n      0x00\n        /* \"contracts/fixed-rate-staking-contract/FixedRateStaking_flattened.sol\":20953:20972  owner == address(0) */\n      0xffffffffffffffffffffffffffffffffffffffff\n      and\n        /* \"contracts/fixed-rate-staking-contract/FixedRateStaking_flattened.sol\":20953:20958  owner */\n      dup5\n        /* \"contracts/fixed-rate-staking-contract/FixedRateStaking_flattened.sol\":20953:20972  owner == address(0) */\n      0xffffffffffffffffffffffffffffffffffffffff\n      and\n      sub\n        /* \"contracts/fixed-rate-staking-contract/FixedRateStaking_flattened.sol\":20949:21038  if (owner == address(0)) {... */\n      tag_160\n      jumpi\n        /* \"contracts/fixed-rate-staking-contract/FixedRateStaking_flattened.sol\":21024:21025  0 */\n      0x00\n        /* \"contracts/fixed-rate-staking-contract/FixedRateStaking_flattened.sol\":20995:21027  ERC20InvalidApprover(address(0)) */\n      mload(0x40)\n      0xe602df0500000000000000000000000000000000000000000000000000000000\n      dup2\n      mstore\n      0x04\n      add\n      tag_161\n      swap2\n      swap1\n      tag_150\n      jump\t// in\n    tag_161:\n      mload(0x40)\n      dup1\n      swap2\n      sub\n      swap1\n      revert\n        /* \"contracts/fixed-rate-staking-contract/FixedRateStaking_flattened.sol\":20949:21038  if (owner == address(0)) {... */\n    tag_160:\n        /* \"contracts/fixed-rate-staking-contract/FixedRateStaking_flattened.sol\":21070:21071  0 */\n      0x00\n        /* \"contracts/fixed-rate-staking-contract/FixedRateStaking_flattened.sol\":21051:21072  spender == address(0) */\n      0xffffffffffffffffffffffffffffffffffffffff\n      and\n        /* \"contracts/fixed-rate-staking-contract/FixedRateStaking_flattened.sol\":21051:21058  spender */\n      dup4\n        /* \"contracts/fixed-rate-staking-contract/FixedRateStaking_flattened.sol\":21051:21072  spender == address(0) */\n      0xffffffffffffffffffffffffffffffffffffffff\n      and\n      sub\n        /* \"contracts/fixed-rate-staking-contract/FixedRateStaking_flattened.sol\":21047:21137  if (spender == address(0)) {... */\n      tag_162\n      jumpi\n        /* \"contracts/fixed-rate-staking-contract/FixedRateStaking_flattened.sol\":21123:21124  0 */\n      0x00\n        /* \"contracts/fixed-rate-staking-contract/FixedRateStaking_flattened.sol\":21095:21126  ERC20InvalidSpender(address(0)) */\n      mload(0x40)\n      0x94280d6200000000000000000000000000000000000000000000000000000000\n      dup2\n      mstore\n      0x04\n      add\n      tag_163\n      swap2\n      swap1\n      tag_150\n      jump\t// in\n    tag_163:\n      mload(0x40)\n      dup1\n      swap2\n      sub\n      swap1\n      revert\n        /* \"contracts/fixed-rate-staking-contract/FixedRateStaking_flattened.sol\":21047:21137  if (spender == address(0)) {... */\n    tag_162:\n        /* \"contracts/fixed-rate-staking-contract/FixedRateStaking_flattened.sol\":21176:21181  value */\n      dup2\n        /* \"contracts/fixed-rate-staking-contract/FixedRateStaking_flattened.sol\":21146:21157  _allowances */\n      0x01\n        /* \"contracts/fixed-rate-staking-contract/FixedRateStaking_flattened.sol\":21146:21164  _allowances[owner] */\n      0x00\n        /* \"contracts/fixed-rate-staking-contract/FixedRateStaking_flattened.sol\":21158:21163  owner */\n      dup7\n        /* \"contracts/fixed-rate-staking-contract/FixedRateStaking_flattened.sol\":21146:21164  _allowances[owner] */\n      0xffffffffffffffffffffffffffffffffffffffff\n      and\n      0xffffffffffffffffffffffffffffffffffffffff\n      and\n      dup2\n      mstore\n      0x20\n      add\n      swap1\n      dup2\n      mstore\n      0x20\n      add\n      0x00\n      keccak256\n        /* \"contracts/fixed-rate-staking-contract/FixedRateStaking_flattened.sol\":21146:21173  _allowances[owner][spender] */\n      0x00\n        /* \"contracts/fixed-rate-staking-contract/FixedRateStaking_flattened.sol\":21165:21172  spender */\n      dup6\n        /* \"contracts/fixed-rate-staking-contract/FixedRateStaking_flattened.sol\":21146:21173  _allowances[owner][spender] */\n      0xffffffffffffffffffffffffffffffffffffffff\n      and\n      0xffffffffffffffffffffffffffffffffffffffff\n      and\n      dup2\n      mstore\n      0x20\n      add\n      swap1\n      dup2\n      mstore\n      0x20\n      add\n      0x00\n      keccak256\n        /* \"contracts/fixed-rate-staking-contract/FixedRateStaking_flattened.sol\":21146:21181  _allowances[owner][spender] = value */\n      dup2\n      swap1\n      sstore\n      pop\n        /* \"contracts/fixed-rate-staking-contract/FixedRateStaking_flattened.sol\":21195:21204  emitEvent */\n      dup1\n        /* \"contracts/fixed-rate-staking-contract/FixedRateStaking_flattened.sol\":21191:21267  if (emitEvent) {... */\n      iszero\n      tag_164\n      jumpi\n        /* \"contracts/fixed-rate-staking-contract/FixedRateStaking_flattened.sol\":21241:21248  spender */\n      dup3\n        /* \"contracts/fixed-rate-staking-contract/FixedRateStaking_flattened.sol\":21225:21256  Approval(owner, spender, value) */\n      0xffffffffffffffffffffffffffffffffffffffff\n      and\n        /* \"contracts/fixed-rate-staking-contract/FixedRateStaking_flattened.sol\":21234:21239  owner */\n      dup5\n        /* \"contracts/fixed-rate-staking-contract/FixedRateStaking_flattened.sol\":21225:21256  Approval(owner, spender, value) */\n      0xffffffffffffffffffffffffffffffffffffffff\n      and\n      0x8c5be1e5ebec7d5bd14f71427d1e84f3dd0314c0f7b2291e5b200ac8c7c3b925\n        /* \"contracts/fixed-rate-staking-contract/FixedRateStaking_flattened.sol\":21250:21255  value */\n      dup5\n        /* \"contracts/fixed-rate-staking-contract/FixedRateStaking_flattened.sol\":21225:21256  Approval(owner, spender, value) */\n      mload(0x40)\n      tag_165\n      swap2\n      swap1\n      tag_31\n      jump\t// in\n    tag_165:\n      mload(0x40)\n      dup1\n      swap2\n      sub\n      swap1\n      log3\n        /* \"contracts/fixed-rate-staking-contract/FixedRateStaking_flattened.sol\":21191:21267  if (emitEvent) {... */\n    tag_164:\n        /* \"contracts/fixed-rate-staking-contract/FixedRateStaking_flattened.sol\":20841:21273  function _approve(address owner, address spender, uint256 value, bool emitEvent) internal virtual {... */\n      pop\n      pop\n      pop\n      pop\n      jump\t// out\n        /* \"contracts/fixed-rate-staking-contract/FixedRateStaking_flattened.sol\":17163:18270  function _update(address from, address to, uint256 value) internal virtual {... */\n    tag_154:\n        /* \"contracts/fixed-rate-staking-contract/FixedRateStaking_flattened.sol\":17268:17269  0 */\n      0x00\n        /* \"contracts/fixed-rate-staking-contract/FixedRateStaking_flattened.sol\":17252:17270  from == address(0) */\n      0xffffffffffffffffffffffffffffffffffffffff\n      and\n        /* \"contracts/fixed-rate-staking-contract/FixedRateStaking_flattened.sol\":17252:17256  from */\n      dup4\n        /* \"contracts/fixed-rate-staking-contract/FixedRateStaking_flattened.sol\":17252:17270  from == address(0) */\n      0xffffffffffffffffffffffffffffffffffffffff\n      and\n      sub\n        /* \"contracts/fixed-rate-staking-contract/FixedRateStaking_flattened.sol\":17248:17788  if (from == address(0)) {... */\n      tag_167\n      jumpi\n        /* \"contracts/fixed-rate-staking-contract/FixedRateStaking_flattened.sol\":17404:17409  value */\n      dup1\n        /* \"contracts/fixed-rate-staking-contract/FixedRateStaking_flattened.sol\":17388:17400  _totalSupply */\n      0x02\n      0x00\n        /* \"contracts/fixed-rate-staking-contract/FixedRateStaking_flattened.sol\":17388:17409  _totalSupply += value */\n      dup3\n      dup3\n      sload\n      tag_168\n      swap2\n      swap1\n      tag_131\n      jump\t// in\n    tag_168:\n      swap3\n      pop\n      pop\n      dup2\n      swap1\n      sstore\n      pop\n        /* \"contracts/fixed-rate-staking-contract/FixedRateStaking_flattened.sol\":17248:17788  if (from == address(0)) {... */\n      jump(tag_169)\n    tag_167:\n        /* \"contracts/fixed-rate-staking-contract/FixedRateStaking_flattened.sol\":17440:17459  uint256 fromBalance */\n      0x00\n        /* \"contracts/fixed-rate-staking-contract/FixedRateStaking_flattened.sol\":17462:17471  _balances */\n      dup1\n        /* \"contracts/fixed-rate-staking-contract/FixedRateStaking_flattened.sol\":17462:17477  _balances[from] */\n      0x00\n        /* \"contracts/fixed-rate-staking-contract/FixedRateStaking_flattened.sol\":17472:17476  from */\n      dup6\n        /* \"contracts/fixed-rate-staking-contract/FixedRateStaking_flattened.sol\":17462:17477  _balances[from] */\n      0xffffffffffffffffffffffffffffffffffffffff\n      and\n      0xffffffffffffffffffffffffffffffffffffffff\n      and\n      dup2\n      mstore\n      0x20\n      add\n      swap1\n      dup2\n      mstore\n      0x20\n      add\n      0x00\n      keccak256\n      sload\n        /* \"contracts/fixed-rate-staking-contract/FixedRateStaking_flattened.sol\":17440:17477  uint256 fromBalance = _balances[from] */\n      swap1\n      pop\n        /* \"contracts/fixed-rate-staking-contract/FixedRateStaking_flattened.sol\":17509:17514  value */\n      dup2\n        /* \"contracts/fixed-rate-staking-contract/FixedRateStaking_flattened.sol\":17495:17506  fromBalance */\n      dup2\n        /* \"contracts/fixed-rate-staking-contract/FixedRateStaking_flattened.sol\":17495:17514  fromBalance < value */\n      lt\n        /* \"contracts/fixed-rate-staking-contract/FixedRateStaking_flattened.sol\":17491:17606  if (fromBalance < value) {... */\n      iszero\n      tag_170\n      jumpi\n        /* \"contracts/fixed-rate-staking-contract/FixedRateStaking_flattened.sol\":17566:17570  from */\n      dup4\n        /* \"contracts/fixed-rate-staking-contract/FixedRateStaking_flattened.sol\":17572:17583  fromBalance */\n      dup2\n        /* \"contracts/fixed-rate-staking-contract/FixedRateStaking_flattened.sol\":17585:17590  value */\n      dup4\n        /* \"contracts/fixed-rate-staking-contract/FixedRateStaking_flattened.sol\":17541:17591  ERC20InsufficientBalance(from, fromBalance, value) */\n      mload(0x40)\n      0xe450d38c00000000000000000000000000000000000000000000000000000000\n      dup2\n      mstore\n      0x04\n      add\n      tag_171\n      swap4\n      swap3\n      swap2\n      swap1\n      tag_145\n      jump\t// in\n    tag_171:\n      mload(0x40)\n      dup1\n      swap2\n      sub\n      swap1\n      revert\n        /* \"contracts/fixed-rate-staking-contract/FixedRateStaking_flattened.sol\":17491:17606  if (fromBalance < value) {... */\n    tag_170:\n        /* \"contracts/fixed-rate-staking-contract/FixedRateStaking_flattened.sol\":17758:17763  value */\n      dup2\n        /* \"contracts/fixed-rate-staking-contract/FixedRateStaking_flattened.sol\":17744:17755  fromBalance */\n      dup2\n        /* \"contracts/fixed-rate-staking-contract/FixedRateStaking_flattened.sol\":17744:17763  fromBalance - value */\n      sub\n        /* \"contracts/fixed-rate-staking-contract/FixedRateStaking_flattened.sol\":17726:17735  _balances */\n      0x00\n        /* \"contracts/fixed-rate-staking-contract/FixedRateStaking_flattened.sol\":17726:17741  _balances[from] */\n      dup1\n        /* \"contracts/fixed-rate-staking-contract/FixedRateStaking_flattened.sol\":17736:17740  from */\n      dup7\n        /* \"contracts/fixed-rate-staking-contract/FixedRateStaking_flattened.sol\":17726:17741  _balances[from] */\n      0xffffffffffffffffffffffffffffffffffffffff\n      and\n      0xffffffffffffffffffffffffffffffffffffffff\n      and\n      dup2\n      mstore\n      0x20\n      add\n      swap1\n      dup2\n      mstore\n      0x20\n      add\n      0x00\n      keccak256\n        /* \"contracts/fixed-rate-staking-contract/FixedRateStaking_flattened.sol\":17726:17763  _balances[from] = fromBalance - value */\n      dup2\n      swap1\n      sstore\n      pop\n        /* \"contracts/fixed-rate-staking-contract/FixedRateStaking_flattened.sol\":17426:17788  {... */\n      pop\n        /* \"contracts/fixed-rate-staking-contract/FixedRateStaking_flattened.sol\":17248:17788  if (from == address(0)) {... */\n    tag_169:\n        /* \"contracts/fixed-rate-staking-contract/FixedRateStaking_flattened.sol\":17816:17817  0 */\n      0x00\n        /* \"contracts/fixed-rate-staking-contract/FixedRateStaking_flattened.sol\":17802:17818  to == address(0) */\n      0xffffffffffffffffffffffffffffffffffffffff\n      and\n        /* \"contracts/fixed-rate-staking-contract/FixedRateStaking_flattened.sol\":17802:17804  to */\n      dup3\n        /* \"contracts/fixed-rate-staking-contract/FixedRateStaking_flattened.sol\":17802:17818  to == address(0) */\n      0xffffffffffffffffffffffffffffffffffffffff\n      and\n      sub\n        /* \"contracts/fixed-rate-staking-contract/FixedRateStaking_flattened.sol\":17798:18223  if (to == address(0)) {... */\n      tag_172\n      jumpi\n        /* \"contracts/fixed-rate-staking-contract/FixedRateStaking_flattened.sol\":17981:17986  value */\n      dup1\n        /* \"contracts/fixed-rate-staking-contract/FixedRateStaking_flattened.sol\":17965:17977  _totalSupply */\n      0x02\n      0x00\n        /* \"contracts/fixed-rate-staking-contract/FixedRateStaking_flattened.sol\":17965:17986  _totalSupply -= value */\n      dup3\n      dup3\n      sload\n      sub\n      swap3\n      pop\n      pop\n      dup2\n      swap1\n      sstore\n      pop\n        /* \"contracts/fixed-rate-staking-contract/FixedRateStaking_flattened.sol\":17798:18223  if (to == address(0)) {... */\n      jump(tag_173)\n    tag_172:\n        /* \"contracts/fixed-rate-staking-contract/FixedRateStaking_flattened.sol\":18193:18198  value */\n      dup1\n        /* \"contracts/fixed-rate-staking-contract/FixedRateStaking_flattened.sol\":18176:18185  _balances */\n      0x00\n        /* \"contracts/fixed-rate-staking-contract/FixedRateStaking_flattened.sol\":18176:18189  _balances[to] */\n      dup1\n        /* \"contracts/fixed-rate-staking-contract/FixedRateStaking_flattened.sol\":18186:18188  to */\n      dup5\n        /* \"contracts/fixed-rate-staking-contract/FixedRateStaking_flattened.sol\":18176:18189  _balances[to] */\n      0xffffffffffffffffffffffffffffffffffffffff\n      and\n      0xffffffffffffffffffffffffffffffffffffffff\n      and\n      dup2\n      mstore\n      0x20\n      add\n      swap1\n      dup2\n      mstore\n      0x20\n      add\n      0x00\n      keccak256\n      0x00\n        /* \"contracts/fixed-rate-staking-contract/FixedRateStaking_flattened.sol\":18176:18198  _balances[to] += value */\n      dup3\n      dup3\n      sload\n      add\n      swap3\n      pop\n      pop\n      dup2\n      swap1\n      sstore\n      pop\n        /* \"contracts/fixed-rate-staking-contract/FixedRateStaking_flattened.sol\":17798:18223  if (to == address(0)) {... */\n    tag_173:\n        /* \"contracts/fixed-rate-staking-contract/FixedRateStaking_flattened.sol\":18253:18255  to */\n      dup2\n        /* \"contracts/fixed-rate-staking-contract/FixedRateStaking_flattened.sol\":18238:18263  Transfer(from, to, value) */\n      0xffffffffffffffffffffffffffffffffffffffff\n      and\n        /* \"contracts/fixed-rate-staking-contract/FixedRateStaking_flattened.sol\":18247:18251  from */\n      dup4\n        /* \"contracts/fixed-rate-staking-contract/FixedRateStaking_flattened.sol\":18238:18263  Transfer(from, to, value) */\n      0xffffffffffffffffffffffffffffffffffffffff\n      and\n      0xddf252ad1be2c89b69c2b068fc378daa952ba7f163c4a11628f55a4df523b3ef\n        /* \"contracts/fixed-rate-staking-contract/FixedRateStaking_flattened.sol\":18257:18262  value */\n      dup4\n        /* \"contracts/fixed-rate-staking-contract/FixedRateStaking_flattened.sol\":18238:18263  Transfer(from, to, value) */\n      mload(0x40)\n      tag_174\n      swap2\n      swap1\n      tag_31\n      jump\t// in\n    tag_174:\n      mload(0x40)\n      dup1\n      swap2\n      sub\n      swap1\n      log3\n        /* \"contracts/fixed-rate-staking-contract/FixedRateStaking_flattened.sol\":17163:18270  function _update(address from, address to, uint256 value) internal virtual {... */\n      pop\n      pop\n      pop\n      jump\t// out\n        /* \"#utility.yul\":7:106   */\n    tag_175:\n        /* \"#utility.yul\":59:65   */\n      0x00\n        /* \"#utility.yul\":93:98   */\n      dup2\n        /* \"#utility.yul\":87:99   */\n      mload\n        /* \"#utility.yul\":77:99   */\n      swap1\n      pop\n        /* \"#utility.yul\":7:106   */\n      swap2\n      swap1\n      pop\n      jump\t// out\n        /* \"#utility.yul\":112:281   */\n    tag_176:\n        /* \"#utility.yul\":196:207   */\n      0x00\n        /* \"#utility.yul\":230:236   */\n      dup3\n        /* \"#utility.yul\":225:228   */\n      dup3\n        /* \"#utility.yul\":218:237   */\n      mstore\n        /* \"#utility.yul\":270:274   */\n      0x20\n        /* \"#utility.yul\":265:268   */\n      dup3\n        /* \"#utility.yul\":261:275   */\n      add\n        /* \"#utility.yul\":246:275   */\n      swap1\n      pop\n        /* \"#utility.yul\":112:281   */\n      swap3\n      swap2\n      pop\n      pop\n      jump\t// out\n        /* \"#utility.yul\":287:533   */\n    tag_177:\n        /* \"#utility.yul\":368:369   */\n      0x00\n        /* \"#utility.yul\":378:491   */\n    tag_211:\n        /* \"#utility.yul\":392:398   */\n      dup4\n        /* \"#utility.yul\":389:390   */\n      dup2\n        /* \"#utility.yul\":386:399   */\n      lt\n        /* \"#utility.yul\":378:491   */\n      iszero\n      tag_213\n      jumpi\n        /* \"#utility.yul\":477:478   */\n      dup1\n        /* \"#utility.yul\":472:475   */\n      dup3\n        /* \"#utility.yul\":468:479   */\n      add\n        /* \"#utility.yul\":462:480   */\n      mload\n        /* \"#utility.yul\":458:459   */\n      dup2\n        /* \"#utility.yul\":453:456   */\n      dup5\n        /* \"#utility.yul\":449:460   */\n      add\n        /* \"#utility.yul\":442:481   */\n      mstore\n        /* \"#utility.yul\":414:416   */\n      0x20\n        /* \"#utility.yul\":411:412   */\n      dup2\n        /* \"#utility.yul\":407:417   */\n      add\n        /* \"#utility.yul\":402:417   */\n      swap1\n      pop\n        /* \"#utility.yul\":378:491   */\n      jump(tag_211)\n    tag_213:\n        /* \"#utility.yul\":525:526   */\n      0x00\n        /* \"#utility.yul\":516:522   */\n      dup5\n        /* \"#utility.yul\":511:514   */\n      dup5\n        /* \"#utility.yul\":507:523   */\n      add\n        /* \"#utility.yul\":500:527   */\n      mstore\n        /* \"#utility.yul\":349:533   */\n      pop\n        /* \"#utility.yul\":287:533   */\n      pop\n      pop\n      pop\n      jump\t// out\n        /* \"#utility.yul\":539:641   */\n    tag_178:\n        /* \"#utility.yul\":580:586   */\n      0x00\n        /* \"#utility.yul\":631:633   */\n      0x1f\n        /* \"#utility.yul\":627:634   */\n      not\n        /* \"#utility.yul\":622:624   */\n      0x1f\n        /* \"#utility.yul\":615:620   */\n      dup4\n        /* \"#utility.yul\":611:625   */\n      add\n        /* \"#utility.yul\":607:635   */\n      and\n        /* \"#utility.yul\":597:635   */\n      swap1\n      pop\n        /* \"#utility.yul\":539:641   */\n      swap2\n      swap1\n      pop\n      jump\t// out\n        /* \"#utility.yul\":647:1024   */\n    tag_179:\n        /* \"#utility.yul\":735:738   */\n      0x00\n        /* \"#utility.yul\":763:802   */\n      tag_216\n        /* \"#utility.yul\":796:801   */\n      dup3\n        /* \"#utility.yul\":763:802   */\n      tag_175\n      jump\t// in\n    tag_216:\n        /* \"#utility.yul\":818:889   */\n      tag_217\n        /* \"#utility.yul\":882:888   */\n      dup2\n        /* \"#utility.yul\":877:880   */\n      dup6\n        /* \"#utility.yul\":818:889   */\n      tag_176\n      jump\t// in\n    tag_217:\n        /* \"#utility.yul\":811:889   */\n      swap4\n      pop\n        /* \"#utility.yul\":898:963   */\n      tag_218\n        /* \"#utility.yul\":956:962   */\n      dup2\n        /* \"#utility.yul\":951:954   */\n      dup6\n        /* \"#utility.yul\":944:948   */\n      0x20\n        /* \"#utility.yul\":937:942   */\n      dup7\n        /* \"#utility.yul\":933:949   */\n      add\n        /* \"#utility.yul\":898:963   */\n      tag_177\n      jump\t// in\n    tag_218:\n        /* \"#utility.yul\":988:1017   */\n      tag_219\n        /* \"#utility.yul\":1010:1016   */\n      dup2\n        /* \"#utility.yul\":988:1017   */\n      tag_178\n      jump\t// in\n    tag_219:\n        /* \"#utility.yul\":983:986   */\n      dup5\n        /* \"#utility.yul\":979:1018   */\n      add\n        /* \"#utility.yul\":972:1018   */\n      swap2\n      pop\n        /* \"#utility.yul\":739:1024   */\n      pop\n        /* \"#utility.yul\":647:1024   */\n      swap3\n      swap2\n      pop\n      pop\n      jump\t// out\n        /* \"#utility.yul\":1030:1343   */\n    tag_21:\n        /* \"#utility.yul\":1143:1147   */\n      0x00\n        /* \"#utility.yul\":1181:1183   */\n      0x20\n        /* \"#utility.yul\":1170:1179   */\n      dup3\n        /* \"#utility.yul\":1166:1184   */\n      add\n        /* \"#utility.yul\":1158:1184   */\n      swap1\n      pop\n        /* \"#utility.yul\":1230:1239   */\n      dup2\n        /* \"#utility.yul\":1224:1228   */\n      dup2\n        /* \"#utility.yul\":1220:1240   */\n      sub\n        /* \"#utility.yul\":1216:1217   */\n      0x00\n        /* \"#utility.yul\":1205:1214   */\n      dup4\n        /* \"#utility.yul\":1201:1218   */\n      add\n        /* \"#utility.yul\":1194:1241   */\n      mstore\n        /* \"#utility.yul\":1258:1336   */\n      tag_221\n        /* \"#utility.yul\":1331:1335   */\n      dup2\n        /* \"#utility.yul\":1322:1328   */\n      dup5\n        /* \"#utility.yul\":1258:1336   */\n      tag_179\n      jump\t// in\n    tag_221:\n        /* \"#utility.yul\":1250:1336   */\n      swap1\n      pop\n        /* \"#utility.yul\":1030:1343   */\n      swap3\n      swap2\n      pop\n      pop\n      jump\t// out\n        /* \"#utility.yul\":1430:1547   */\n    tag_181:\n        /* \"#utility.yul\":1539:1540   */\n      0x00\n        /* \"#utility.yul\":1536:1537   */\n      dup1\n        /* \"#utility.yul\":1529:1541   */\n      revert\n        /* \"#utility.yul\":1676:1802   */\n    tag_183:\n        /* \"#utility.yul\":1713:1720   */\n      0x00\n        /* \"#utility.yul\":1753:1795   */\n      0xffffffffffffffffffffffffffffffffffffffff\n        /* \"#utility.yul\":1746:1751   */\n      dup3\n        /* \"#utility.yul\":1742:1796   */\n      and\n        /* \"#utility.yul\":1731:1796   */\n      swap1\n      pop\n        /* \"#utility.yul\":1676:1802   */\n      swap2\n      swap1\n      pop\n      jump\t// out\n        /* \"#utility.yul\":1808:1904   */\n    tag_184:\n        /* \"#utility.yul\":1845:1852   */\n      0x00\n        /* \"#utility.yul\":1874:1898   */\n      tag_227\n        /* \"#utility.yul\":1892:1897   */\n      dup3\n        /* \"#utility.yul\":1874:1898   */\n      tag_183\n      jump\t// in\n    tag_227:\n        /* \"#utility.yul\":1863:1898   */\n      swap1\n      pop\n        /* \"#utility.yul\":1808:1904   */\n      swap2\n      swap1\n      pop\n      jump\t// out\n        /* \"#utility.yul\":1910:2032   */\n    tag_185:\n        /* \"#utility.yul\":1983:2007   */\n      tag_229\n        /* \"#utility.yul\":2001:2006   */\n      dup2\n        /* \"#utility.yul\":1983:2007   */\n      tag_184\n      jump\t// in\n    tag_229:\n        /* \"#utility.yul\":1976:1981   */\n      dup2\n        /* \"#utility.yul\":1973:2008   */\n      eq\n        /* \"#utility.yul\":1963:2026   */\n      tag_230\n      jumpi\n        /* \"#utility.yul\":2022:2023   */\n      0x00\n        /* \"#utility.yul\":2019:2020   */\n      dup1\n        /* \"#utility.yul\":2012:2024   */\n      revert\n        /* \"#utility.yul\":1963:2026   */\n    tag_230:\n        /* \"#utility.yul\":1910:2032   */\n      pop\n      jump\t// out\n        /* \"#utility.yul\":2038:2177   */\n    tag_186:\n        /* \"#utility.yul\":2084:2089   */\n      0x00\n        /* \"#utility.yul\":2122:2128   */\n      dup2\n        /* \"#utility.yul\":2109:2129   */\n      calldataload\n        /* \"#utility.yul\":2100:2129   */\n      swap1\n      pop\n        /* \"#utility.yul\":2138:2171   */\n      tag_232\n        /* \"#utility.yul\":2165:2170   */\n      dup2\n        /* \"#utility.yul\":2138:2171   */\n      tag_185\n      jump\t// in\n    tag_232:\n        /* \"#utility.yul\":2038:2177   */\n      swap3\n      swap2\n      pop\n      pop\n      jump\t// out\n        /* \"#utility.yul\":2183:2260   */\n    tag_187:\n        /* \"#utility.yul\":2220:2227   */\n      0x00\n        /* \"#utility.yul\":2249:2254   */\n      dup2\n        /* \"#utility.yul\":2238:2254   */\n      swap1\n      pop\n        /* \"#utility.yul\":2183:2260   */\n      swap2\n      swap1\n      pop\n      jump\t// out\n        /* \"#utility.yul\":2266:2388   */\n    tag_188:\n        /* \"#utility.yul\":2339:2363   */\n      tag_235\n        /* \"#utility.yul\":2357:2362   */\n      dup2\n        /* \"#utility.yul\":2339:2363   */\n      tag_187\n      jump\t// in\n    tag_235:\n        /* \"#utility.yul\":2332:2337   */\n      dup2\n        /* \"#utility.yul\":2329:2364   */\n      eq\n        /* \"#utility.yul\":2319:2382   */\n      tag_236\n      jumpi\n        /* \"#utility.yul\":2378:2379   */\n      0x00\n        /* \"#utility.yul\":2375:2376   */\n      dup1\n        /* \"#utility.yul\":2368:2380   */\n      revert\n        /* \"#utility.yul\":2319:2382   */\n    tag_236:\n        /* \"#utility.yul\":2266:2388   */\n      pop\n      jump\t// out\n        /* \"#utility.yul\":2394:2533   */\n    tag_189:\n        /* \"#utility.yul\":2440:2445   */\n      0x00\n        /* \"#utility.yul\":2478:2484   */\n      dup2\n        /* \"#utility.yul\":2465:2485   */\n      calldataload\n        /* \"#utility.yul\":2456:2485   */\n      swap1\n      pop\n        /* \"#utility.yul\":2494:2527   */\n      tag_238\n        /* \"#utility.yul\":2521:2526   */\n      dup2\n        /* \"#utility.yul\":2494:2527   */\n      tag_188\n      jump\t// in\n    tag_238:\n        /* \"#utility.yul\":2394:2533   */\n      swap3\n      swap2\n      pop\n      pop\n      jump\t// out\n        /* \"#utility.yul\":2539:3013   */\n    tag_24:\n        /* \"#utility.yul\":2607:2613   */\n      0x00\n        /* \"#utility.yul\":2615:2621   */\n      dup1\n        /* \"#utility.yul\":2664:2666   */\n      0x40\n        /* \"#utility.yul\":2652:2661   */\n      dup4\n        /* \"#utility.yul\":2643:2650   */\n      dup6\n        /* \"#utility.yul\":2639:2662   */\n      sub\n        /* \"#utility.yul\":2635:2667   */\n      slt\n        /* \"#utility.yul\":2632:2751   */\n      iszero\n      tag_240\n      jumpi\n        /* \"#utility.yul\":2670:2749   */\n      tag_241\n      tag_181\n      jump\t// in\n    tag_241:\n        /* \"#utility.yul\":2632:2751   */\n    tag_240:\n        /* \"#utility.yul\":2790:2791   */\n      0x00\n        /* \"#utility.yul\":2815:2868   */\n      tag_242\n        /* \"#utility.yul\":2860:2867   */\n      dup6\n        /* \"#utility.yul\":2851:2857   */\n      dup3\n        /* \"#utility.yul\":2840:2849   */\n      dup7\n        /* \"#utility.yul\":2836:2858   */\n      add\n        /* \"#utility.yul\":2815:2868   */\n      tag_186\n      jump\t// in\n    tag_242:\n        /* \"#utility.yul\":2805:2868   */\n      swap3\n      pop\n        /* \"#utility.yul\":2761:2878   */\n      pop\n        /* \"#utility.yul\":2917:2919   */\n      0x20\n        /* \"#utility.yul\":2943:2996   */\n      tag_243\n        /* \"#utility.yul\":2988:2995   */\n      dup6\n        /* \"#utility.yul\":2979:2985   */\n      dup3\n        /* \"#utility.yul\":2968:2977   */\n      dup7\n        /* \"#utility.yul\":2964:2986   */\n      add\n        /* \"#utility.yul\":2943:2996   */\n      tag_189\n      jump\t// in\n    tag_243:\n        /* \"#utility.yul\":2933:2996   */\n      swap2\n      pop\n        /* \"#utility.yul\":2888:3006   */\n      pop\n        /* \"#utility.yul\":2539:3013   */\n      swap3\n      pop\n      swap3\n      swap1\n      pop\n      jump\t// out\n        /* \"#utility.yul\":3019:3109   */\n    tag_190:\n        /* \"#utility.yul\":3053:3060   */\n      0x00\n        /* \"#utility.yul\":3096:3101   */\n      dup2\n        /* \"#utility.yul\":3089:3102   */\n      iszero\n        /* \"#utility.yul\":3082:3103   */\n      iszero\n        /* \"#utility.yul\":3071:3103   */\n      swap1\n      pop\n        /* \"#utility.yul\":3019:3109   */\n      swap2\n      swap1\n      pop\n      jump\t// out\n        /* \"#utility.yul\":3115:3224   */\n    tag_191:\n        /* \"#utility.yul\":3196:3217   */\n      tag_246\n        /* \"#utility.yul\":3211:3216   */\n      dup2\n        /* \"#utility.yul\":3196:3217   */\n      tag_190\n      jump\t// in\n    tag_246:\n        /* \"#utility.yul\":3191:3194   */\n      dup3\n        /* \"#utility.yul\":3184:3218   */\n      mstore\n        /* \"#utility.yul\":3115:3224   */\n      pop\n      pop\n      jump\t// out\n        /* \"#utility.yul\":3230:3440   */\n    tag_27:\n        /* \"#utility.yul\":3317:3321   */\n      0x00\n        /* \"#utility.yul\":3355:3357   */\n      0x20\n        /* \"#utility.yul\":3344:3353   */\n      dup3\n        /* \"#utility.yul\":3340:3358   */\n      add\n        /* \"#utility.yul\":3332:3358   */\n      swap1\n      pop\n        /* \"#utility.yul\":3368:3433   */\n      tag_248\n        /* \"#utility.yul\":3430:3431   */\n      0x00\n        /* \"#utility.yul\":3419:3428   */\n      dup4\n        /* \"#utility.yul\":3415:3432   */\n      add\n        /* \"#utility.yul\":3406:3412   */\n      dup5\n        /* \"#utility.yul\":3368:3433   */\n      tag_191\n      jump\t// in\n    tag_248:\n        /* \"#utility.yul\":3230:3440   */\n      swap3\n      swap2\n      pop\n      pop\n      jump\t// out\n        /* \"#utility.yul\":3446:3564   */\n    tag_192:\n        /* \"#utility.yul\":3533:3557   */\n      tag_250\n        /* \"#utility.yul\":3551:3556   */\n      dup2\n        /* \"#utility.yul\":3533:3557   */\n      tag_187\n      jump\t// in\n    tag_250:\n        /* \"#utility.yul\":3528:3531   */\n      dup3\n        /* \"#utility.yul\":3521:3558   */\n      mstore\n        /* \"#utility.yul\":3446:3564   */\n      pop\n      pop\n      jump\t// out\n        /* \"#utility.yul\":3570:3792   */\n    tag_31:\n        /* \"#utility.yul\":3663:3667   */\n      0x00\n        /* \"#utility.yul\":3701:3703   */\n      0x20\n        /* \"#utility.yul\":3690:3699   */\n      dup3\n        /* \"#utility.yul\":3686:3704   */\n      add\n        /* \"#utility.yul\":3678:3704   */\n      swap1\n      pop\n        /* \"#utility.yul\":3714:3785   */\n      tag_252\n        /* \"#utility.yul\":3782:3783   */\n      0x00\n        /* \"#utility.yul\":3771:3780   */\n      dup4\n        /* \"#utility.yul\":3767:3784   */\n      add\n        /* \"#utility.yul\":3758:3764   */\n      dup5\n        /* \"#utility.yul\":3714:3785   */\n      tag_192\n      jump\t// in\n    tag_252:\n        /* \"#utility.yul\":3570:3792   */\n      swap3\n      swap2\n      pop\n      pop\n      jump\t// out\n        /* \"#utility.yul\":3798:4417   */\n    tag_34:\n        /* \"#utility.yul\":3875:3881   */\n      0x00\n        /* \"#utility.yul\":3883:3889   */\n      dup1\n        /* \"#utility.yul\":3891:3897   */\n      0x00\n        /* \"#utility.yul\":3940:3942   */\n      0x60\n        /* \"#utility.yul\":3928:3937   */\n      dup5\n        /* \"#utility.yul\":3919:3926   */\n      dup7\n        /* \"#utility.yul\":3915:3938   */\n      sub\n        /* \"#utility.yul\":3911:3943   */\n      slt\n        /* \"#utility.yul\":3908:4027   */\n      iszero\n      tag_254\n      jumpi\n        /* \"#utility.yul\":3946:4025   */\n      tag_255\n      tag_181\n      jump\t// in\n    tag_255:\n        /* \"#utility.yul\":3908:4027   */\n    tag_254:\n        /* \"#utility.yul\":4066:4067   */\n      0x00\n        /* \"#utility.yul\":4091:4144   */\n      tag_256\n        /* \"#utility.yul\":4136:4143   */\n      dup7\n        /* \"#utility.yul\":4127:4133   */\n      dup3\n        /* \"#utility.yul\":4116:4125   */\n      dup8\n        /* \"#utility.yul\":4112:4134   */\n      add\n        /* \"#utility.yul\":4091:4144   */\n      tag_186\n      jump\t// in\n    tag_256:\n        /* \"#utility.yul\":4081:4144   */\n      swap4\n      pop\n        /* \"#utility.yul\":4037:4154   */\n      pop\n        /* \"#utility.yul\":4193:4195   */\n      0x20\n        /* \"#utility.yul\":4219:4272   */\n      tag_257\n        /* \"#utility.yul\":4264:4271   */\n      dup7\n        /* \"#utility.yul\":4255:4261   */\n      dup3\n        /* \"#utility.yul\":4244:4253   */\n      dup8\n        /* \"#utility.yul\":4240:4262   */\n      add\n        /* \"#utility.yul\":4219:4272   */\n      tag_186\n      jump\t// in\n    tag_257:\n        /* \"#utility.yul\":4209:4272   */\n      swap3\n      pop\n        /* \"#utility.yul\":4164:4282   */\n      pop\n        /* \"#utility.yul\":4321:4323   */\n      0x40\n        /* \"#utility.yul\":4347:4400   */\n      tag_258\n        /* \"#utility.yul\":4392:4399   */\n      dup7\n        /* \"#utility.yul\":4383:4389   */\n      dup3\n        /* \"#utility.yul\":4372:4381   */\n      dup8\n        /* \"#utility.yul\":4368:4390   */\n      add\n        /* \"#utility.yul\":4347:4400   */\n      tag_189\n      jump\t// in\n    tag_258:\n        /* \"#utility.yul\":4337:4400   */\n      swap2\n      pop\n        /* \"#utility.yul\":4292:4410   */\n      pop\n        /* \"#utility.yul\":3798:4417   */\n      swap3\n      pop\n      swap3\n      pop\n      swap3\n      jump\t// out\n        /* \"#utility.yul\":4423:4752   */\n    tag_39:\n        /* \"#utility.yul\":4482:4488   */\n      0x00\n        /* \"#utility.yul\":4531:4533   */\n      0x20\n        /* \"#utility.yul\":4519:4528   */\n      dup3\n        /* \"#utility.yul\":4510:4517   */\n      dup5\n        /* \"#utility.yul\":4506:4529   */\n      sub\n        /* \"#utility.yul\":4502:4534   */\n      slt\n        /* \"#utility.yul\":4499:4618   */\n      iszero\n      tag_260\n      jumpi\n        /* \"#utility.yul\":4537:4616   */\n      tag_261\n      tag_181\n      jump\t// in\n    tag_261:\n        /* \"#utility.yul\":4499:4618   */\n    tag_260:\n        /* \"#utility.yul\":4657:4658   */\n      0x00\n        /* \"#utility.yul\":4682:4735   */\n      tag_262\n        /* \"#utility.yul\":4727:4734   */\n      dup5\n        /* \"#utility.yul\":4718:4724   */\n      dup3\n        /* \"#utility.yul\":4707:4716   */\n      dup6\n        /* \"#utility.yul\":4703:4725   */\n      add\n        /* \"#utility.yul\":4682:4735   */\n      tag_189\n      jump\t// in\n    tag_262:\n        /* \"#utility.yul\":4672:4735   */\n      swap2\n      pop\n        /* \"#utility.yul\":4628:4745   */\n      pop\n        /* \"#utility.yul\":4423:4752   */\n      swap3\n      swap2\n      pop\n      pop\n      jump\t// out\n        /* \"#utility.yul\":4758:4844   */\n    tag_193:\n        /* \"#utility.yul\":4793:4800   */\n      0x00\n        /* \"#utility.yul\":4833:4837   */\n      0xff\n        /* \"#utility.yul\":4826:4831   */\n      dup3\n        /* \"#utility.yul\":4822:4838   */\n      and\n        /* \"#utility.yul\":4811:4838   */\n      swap1\n      pop\n        /* \"#utility.yul\":4758:4844   */\n      swap2\n      swap1\n      pop\n      jump\t// out\n        /* \"#utility.yul\":4850:4962   */\n    tag_194:\n        /* \"#utility.yul\":4933:4955   */\n      tag_265\n        /* \"#utility.yul\":4949:4954   */\n      dup2\n        /* \"#utility.yul\":4933:4955   */\n      tag_193\n      jump\t// in\n    tag_265:\n        /* \"#utility.yul\":4928:4931   */\n      dup3\n        /* \"#utility.yul\":4921:4956   */\n      mstore\n        /* \"#utility.yul\":4850:4962   */\n      pop\n      pop\n      jump\t// out\n        /* \"#utility.yul\":4968:5182   */\n    tag_44:\n        /* \"#utility.yul\":5057:5061   */\n      0x00\n        /* \"#utility.yul\":5095:5097   */\n      0x20\n        /* \"#utility.yul\":5084:5093   */\n      dup3\n        /* \"#utility.yul\":5080:5098   */\n      add\n        /* \"#utility.yul\":5072:5098   */\n      swap1\n      pop\n        /* \"#utility.yul\":5108:5175   */\n      tag_267\n        /* \"#utility.yul\":5172:5173   */\n      0x00\n        /* \"#utility.yul\":5161:5170   */\n      dup4\n        /* \"#utility.yul\":5157:5174   */\n      add\n        /* \"#utility.yul\":5148:5154   */\n      dup5\n        /* \"#utility.yul\":5108:5175   */\n      tag_194\n      jump\t// in\n    tag_267:\n        /* \"#utility.yul\":4968:5182   */\n      swap3\n      swap2\n      pop\n      pop\n      jump\t// out\n        /* \"#utility.yul\":5188:5517   */\n    tag_49:\n        /* \"#utility.yul\":5247:5253   */\n      0x00\n        /* \"#utility.yul\":5296:5298   */\n      0x20\n        /* \"#utility.yul\":5284:5293   */\n      dup3\n        /* \"#utility.yul\":5275:5282   */\n      dup5\n        /* \"#utility.yul\":5271:5294   */\n      sub\n        /* \"#utility.yul\":5267:5299   */\n      slt\n        /* \"#utility.yul\":5264:5383   */\n      iszero\n      tag_269\n      jumpi\n        /* \"#utility.yul\":5302:5381   */\n      tag_270\n      tag_181\n      jump\t// in\n    tag_270:\n        /* \"#utility.yul\":5264:5383   */\n    tag_269:\n        /* \"#utility.yul\":5422:5423   */\n      0x00\n        /* \"#utility.yul\":5447:5500   */\n      tag_271\n        /* \"#utility.yul\":5492:5499   */\n      dup5\n        /* \"#utility.yul\":5483:5489   */\n      dup3\n        /* \"#utility.yul\":5472:5481   */\n      dup6\n        /* \"#utility.yul\":5468:5490   */\n      add\n        /* \"#utility.yul\":5447:5500   */\n      tag_186\n      jump\t// in\n    tag_271:\n        /* \"#utility.yul\":5437:5500   */\n      swap2\n      pop\n        /* \"#utility.yul\":5393:5510   */\n      pop\n        /* \"#utility.yul\":5188:5517   */\n      swap3\n      swap2\n      pop\n      pop\n      jump\t// out\n        /* \"#utility.yul\":5523:5997   */\n    tag_68:\n        /* \"#utility.yul\":5591:5597   */\n      0x00\n        /* \"#utility.yul\":5599:5605   */\n      dup1\n        /* \"#utility.yul\":5648:5650   */\n      0x40\n        /* \"#utility.yul\":5636:5645   */\n      dup4\n        /* \"#utility.yul\":5627:5634   */\n      dup6\n        /* \"#utility.yul\":5623:5646   */\n      sub\n        /* \"#utility.yul\":5619:5651   */\n      slt\n        /* \"#utility.yul\":5616:5735   */\n      iszero\n      tag_273\n      jumpi\n        /* \"#utility.yul\":5654:5733   */\n      tag_274\n      tag_181\n      jump\t// in\n    tag_274:\n        /* \"#utility.yul\":5616:5735   */\n    tag_273:\n        /* \"#utility.yul\":5774:5775   */\n      0x00\n        /* \"#utility.yul\":5799:5852   */\n      tag_275\n        /* \"#utility.yul\":5844:5851   */\n      dup6\n        /* \"#utility.yul\":5835:5841   */\n      dup3\n        /* \"#utility.yul\":5824:5833   */\n      dup7\n        /* \"#utility.yul\":5820:5842   */\n      add\n        /* \"#utility.yul\":5799:5852   */\n      tag_186\n      jump\t// in\n    tag_275:\n        /* \"#utility.yul\":5789:5852   */\n      swap3\n      pop\n        /* \"#utility.yul\":5745:5862   */\n      pop\n        /* \"#utility.yul\":5901:5903   */\n      0x20\n        /* \"#utility.yul\":5927:5980   */\n      tag_276\n        /* \"#utility.yul\":5972:5979   */\n      dup6\n        /* \"#utility.yul\":5963:5969   */\n      dup3\n        /* \"#utility.yul\":5952:5961   */\n      dup7\n        /* \"#utility.yul\":5948:5970   */\n      add\n        /* \"#utility.yul\":5927:5980   */\n      tag_186\n      jump\t// in\n    tag_276:\n        /* \"#utility.yul\":5917:5980   */\n      swap2\n      pop\n        /* \"#utility.yul\":5872:5990   */\n      pop\n        /* \"#utility.yul\":5523:5997   */\n      swap3\n      pop\n      swap3\n      swap1\n      pop\n      jump\t// out\n        /* \"#utility.yul\":6003:6183   */\n    tag_195:\n        /* \"#utility.yul\":6051:6128   */\n      0x4e487b7100000000000000000000000000000000000000000000000000000000\n        /* \"#utility.yul\":6048:6049   */\n      0x00\n        /* \"#utility.yul\":6041:6129   */\n      mstore\n        /* \"#utility.yul\":6148:6152   */\n      0x22\n        /* \"#utility.yul\":6145:6146   */\n      0x04\n        /* \"#utility.yul\":6138:6153   */\n      mstore\n        /* \"#utility.yul\":6172:6176   */\n      0x24\n        /* \"#utility.yul\":6169:6170   */\n      0x00\n        /* \"#utility.yul\":6162:6177   */\n      revert\n        /* \"#utility.yul\":6189:6509   */\n    tag_73:\n        /* \"#utility.yul\":6233:6239   */\n      0x00\n        /* \"#utility.yul\":6270:6271   */\n      0x02\n        /* \"#utility.yul\":6264:6268   */\n      dup3\n        /* \"#utility.yul\":6260:6272   */\n      div\n        /* \"#utility.yul\":6250:6272   */\n      swap1\n      pop\n        /* \"#utility.yul\":6317:6318   */\n      0x01\n        /* \"#utility.yul\":6311:6315   */\n      dup3\n        /* \"#utility.yul\":6307:6319   */\n      and\n        /* \"#utility.yul\":6338:6356   */\n      dup1\n        /* \"#utility.yul\":6328:6409   */\n      tag_279\n      jumpi\n        /* \"#utility.yul\":6394:6398   */\n      0x7f\n        /* \"#utility.yul\":6386:6392   */\n      dup3\n        /* \"#utility.yul\":6382:6399   */\n      and\n        /* \"#utility.yul\":6372:6399   */\n      swap2\n      pop\n        /* \"#utility.yul\":6328:6409   */\n    tag_279:\n        /* \"#utility.yul\":6456:6458   */\n      0x20\n        /* \"#utility.yul\":6448:6454   */\n      dup3\n        /* \"#utility.yul\":6445:6459   */\n      lt\n        /* \"#utility.yul\":6425:6443   */\n      dup2\n        /* \"#utility.yul\":6422:6460   */\n      sub\n        /* \"#utility.yul\":6419:6503   */\n      tag_280\n      jumpi\n        /* \"#utility.yul\":6475:6493   */\n      tag_281\n      tag_195\n      jump\t// in\n    tag_281:\n        /* \"#utility.yul\":6419:6503   */\n    tag_280:\n        /* \"#utility.yul\":6240:6509   */\n      pop\n        /* \"#utility.yul\":6189:6509   */\n      swap2\n      swap1\n      pop\n      jump\t// out\n        /* \"#utility.yul\":6515:6679   */\n    tag_196:\n        /* \"#utility.yul\":6655:6671   */\n      0x616d6f756e74206973203c3d2030000000000000000000000000000000000000\n        /* \"#utility.yul\":6651:6652   */\n      0x00\n        /* \"#utility.yul\":6643:6649   */\n      dup3\n        /* \"#utility.yul\":6639:6653   */\n      add\n        /* \"#utility.yul\":6632:6672   */\n      mstore\n        /* \"#utility.yul\":6515:6679   */\n      pop\n      jump\t// out\n        /* \"#utility.yul\":6685:7051   */\n    tag_197:\n        /* \"#utility.yul\":6827:6830   */\n      0x00\n        /* \"#utility.yul\":6848:6915   */\n      tag_284\n        /* \"#utility.yul\":6912:6914   */\n      0x0e\n        /* \"#utility.yul\":6907:6910   */\n      dup4\n        /* \"#utility.yul\":6848:6915   */\n      tag_176\n      jump\t// in\n    tag_284:\n        /* \"#utility.yul\":6841:6915   */\n      swap2\n      pop\n        /* \"#utility.yul\":6924:7017   */\n      tag_285\n        /* \"#utility.yul\":7013:7016   */\n      dup3\n        /* \"#utility.yul\":6924:7017   */\n      tag_196\n      jump\t// in\n    tag_285:\n        /* \"#utility.yul\":7042:7044   */\n      0x20\n        /* \"#utility.yul\":7037:7040   */\n      dup3\n        /* \"#utility.yul\":7033:7045   */\n      add\n        /* \"#utility.yul\":7026:7045   */\n      swap1\n      pop\n        /* \"#utility.yul\":6685:7051   */\n      swap2\n      swap1\n      pop\n      jump\t// out\n        /* \"#utility.yul\":7057:7476   */\n    tag_93:\n        /* \"#utility.yul\":7223:7227   */\n      0x00\n        /* \"#utility.yul\":7261:7263   */\n      0x20\n        /* \"#utility.yul\":7250:7259   */\n      dup3\n        /* \"#utility.yul\":7246:7264   */\n      add\n        /* \"#utility.yul\":7238:7264   */\n      swap1\n      pop\n        /* \"#utility.yul\":7310:7319   */\n      dup2\n        /* \"#utility.yul\":7304:7308   */\n      dup2\n        /* \"#utility.yul\":7300:7320   */\n      sub\n        /* \"#utility.yul\":7296:7297   */\n      0x00\n        /* \"#utility.yul\":7285:7294   */\n      dup4\n        /* \"#utility.yul\":7281:7298   */\n      add\n        /* \"#utility.yul\":7274:7321   */\n      mstore\n        /* \"#utility.yul\":7338:7469   */\n      tag_287\n        /* \"#utility.yul\":7464:7468   */\n      dup2\n        /* \"#utility.yul\":7338:7469   */\n      tag_197\n      jump\t// in\n    tag_287:\n        /* \"#utility.yul\":7330:7469   */\n      swap1\n      pop\n        /* \"#utility.yul\":7057:7476   */\n      swap2\n      swap1\n      pop\n      jump\t// out\n        /* \"#utility.yul\":7482:7650   */\n    tag_198:\n        /* \"#utility.yul\":7622:7642   */\n      0x616d6f756e74206973203e207374616b65640000000000000000000000000000\n        /* \"#utility.yul\":7618:7619   */\n      0x00\n        /* \"#utility.yul\":7610:7616   */\n      dup3\n        /* \"#utility.yul\":7606:7620   */\n      add\n        /* \"#utility.yul\":7599:7643   */\n      mstore\n        /* \"#utility.yul\":7482:7650   */\n      pop\n      jump\t// out\n        /* \"#utility.yul\":7656:8022   */\n    tag_199:\n        /* \"#utility.yul\":7798:7801   */\n      0x00\n        /* \"#utility.yul\":7819:7886   */\n      tag_290\n        /* \"#utility.yul\":7883:7885   */\n      0x12\n        /* \"#utility.yul\":7878:7881   */\n      dup4\n        /* \"#utility.yul\":7819:7886   */\n      tag_176\n      jump\t// in\n    tag_290:\n        /* \"#utility.yul\":7812:7886   */\n      swap2\n      pop\n        /* \"#utility.yul\":7895:7988   */\n      tag_291\n        /* \"#utility.yul\":7984:7987   */\n      dup3\n        /* \"#utility.yul\":7895:7988   */\n      tag_198\n      jump\t// in\n    tag_291:\n        /* \"#utility.yul\":8013:8015   */\n      0x20\n        /* \"#utility.yul\":8008:8011   */\n      dup3\n        /* \"#utility.yul\":8004:8016   */\n      add\n        /* \"#utility.yul\":7997:8016   */\n      swap1\n      pop\n        /* \"#utility.yul\":7656:8022   */\n      swap2\n      swap1\n      pop\n      jump\t// out\n        /* \"#utility.yul\":8028:8447   */\n    tag_96:\n        /* \"#utility.yul\":8194:8198   */\n      0x00\n        /* \"#utility.yul\":8232:8234   */\n      0x20\n        /* \"#utility.yul\":8221:8230   */\n      dup3\n        /* \"#utility.yul\":8217:8235   */\n      add\n        /* \"#utility.yul\":8209:8235   */\n      swap1\n      pop\n        /* \"#utility.yul\":8281:8290   */\n      dup2\n        /* \"#utility.yul\":8275:8279   */\n      dup2\n        /* \"#utility.yul\":8271:8291   */\n      sub\n        /* \"#utility.yul\":8267:8268   */\n      0x00\n        /* \"#utility.yul\":8256:8265   */\n      dup4\n        /* \"#utility.yul\":8252:8269   */\n      add\n        /* \"#utility.yul\":8245:8292   */\n      mstore\n        /* \"#utility.yul\":8309:8440   */\n      tag_293\n        /* \"#utility.yul\":8435:8439   */\n      dup2\n        /* \"#utility.yul\":8309:8440   */\n      tag_199\n      jump\t// in\n    tag_293:\n        /* \"#utility.yul\":8301:8440   */\n      swap1\n      pop\n        /* \"#utility.yul\":8028:8447   */\n      swap2\n      swap1\n      pop\n      jump\t// out\n        /* \"#utility.yul\":8453:8633   */\n    tag_200:\n        /* \"#utility.yul\":8501:8578   */\n      0x4e487b7100000000000000000000000000000000000000000000000000000000\n        /* \"#utility.yul\":8498:8499   */\n      0x00\n        /* \"#utility.yul\":8491:8579   */\n      mstore\n        /* \"#utility.yul\":8598:8602   */\n      0x11\n        /* \"#utility.yul\":8595:8596   */\n      0x04\n        /* \"#utility.yul\":8588:8603   */\n      mstore\n        /* \"#utility.yul\":8622:8626   */\n      0x24\n        /* \"#utility.yul\":8619:8620   */\n      0x00\n        /* \"#utility.yul\":8612:8627   */\n      revert\n        /* \"#utility.yul\":8639:8833   */\n    tag_99:\n        /* \"#utility.yul\":8679:8683   */\n      0x00\n        /* \"#utility.yul\":8699:8719   */\n      tag_296\n        /* \"#utility.yul\":8717:8718   */\n      dup3\n        /* \"#utility.yul\":8699:8719   */\n      tag_187\n      jump\t// in\n    tag_296:\n        /* \"#utility.yul\":8694:8719   */\n      swap2\n      pop\n        /* \"#utility.yul\":8733:8753   */\n      tag_297\n        /* \"#utility.yul\":8751:8752   */\n      dup4\n        /* \"#utility.yul\":8733:8753   */\n      tag_187\n      jump\t// in\n    tag_297:\n        /* \"#utility.yul\":8728:8753   */\n      swap3\n      pop\n        /* \"#utility.yul\":8777:8778   */\n      dup3\n        /* \"#utility.yul\":8774:8775   */\n      dup3\n        /* \"#utility.yul\":8770:8779   */\n      sub\n        /* \"#utility.yul\":8762:8779   */\n      swap1\n      pop\n        /* \"#utility.yul\":8801:8802   */\n      dup2\n        /* \"#utility.yul\":8795:8799   */\n      dup2\n        /* \"#utility.yul\":8792:8803   */\n      gt\n        /* \"#utility.yul\":8789:8826   */\n      iszero\n      tag_298\n      jumpi\n        /* \"#utility.yul\":8806:8824   */\n      tag_299\n      tag_200\n      jump\t// in\n    tag_299:\n        /* \"#utility.yul\":8789:8826   */\n    tag_298:\n        /* \"#utility.yul\":8639:8833   */\n      swap3\n      swap2\n      pop\n      pop\n      jump\t// out\n        /* \"#utility.yul\":8839:9003   */\n    tag_201:\n        /* \"#utility.yul\":8979:8995   */\n      0x7374616b6564206973203c3d2030000000000000000000000000000000000000\n        /* \"#utility.yul\":8975:8976   */\n      0x00\n        /* \"#utility.yul\":8967:8973   */\n      dup3\n        /* \"#utility.yul\":8963:8977   */\n      add\n        /* \"#utility.yul\":8956:8996   */\n      mstore\n        /* \"#utility.yul\":8839:9003   */\n      pop\n      jump\t// out\n        /* \"#utility.yul\":9009:9375   */\n    tag_202:\n        /* \"#utility.yul\":9151:9154   */\n      0x00\n        /* \"#utility.yul\":9172:9239   */\n      tag_302\n        /* \"#utility.yul\":9236:9238   */\n      0x0e\n        /* \"#utility.yul\":9231:9234   */\n      dup4\n        /* \"#utility.yul\":9172:9239   */\n      tag_176\n      jump\t// in\n    tag_302:\n        /* \"#utility.yul\":9165:9239   */\n      swap2\n      pop\n        /* \"#utility.yul\":9248:9341   */\n      tag_303\n        /* \"#utility.yul\":9337:9340   */\n      dup3\n        /* \"#utility.yul\":9248:9341   */\n      tag_201\n      jump\t// in\n    tag_303:\n        /* \"#utility.yul\":9366:9368   */\n      0x20\n        /* \"#utility.yul\":9361:9364   */\n      dup3\n        /* \"#utility.yul\":9357:9369   */\n      add\n        /* \"#utility.yul\":9350:9369   */\n      swap1\n      pop\n        /* \"#utility.yul\":9009:9375   */\n      swap2\n      swap1\n      pop\n      jump\t// out\n        /* \"#utility.yul\":9381:9800   */\n    tag_105:\n        /* \"#utility.yul\":9547:9551   */\n      0x00\n        /* \"#utility.yul\":9585:9587   */\n      0x20\n        /* \"#utility.yul\":9574:9583   */\n      dup3\n        /* \"#utility.yul\":9570:9588   */\n      add\n        /* \"#utility.yul\":9562:9588   */\n      swap1\n      pop\n        /* \"#utility.yul\":9634:9643   */\n      dup2\n        /* \"#utility.yul\":9628:9632   */\n      dup2\n        /* \"#utility.yul\":9624:9644   */\n      sub\n        /* \"#utility.yul\":9620:9621   */\n      0x00\n        /* \"#utility.yul\":9609:9618   */\n      dup4\n        /* \"#utility.yul\":9605:9622   */\n      add\n        /* \"#utility.yul\":9598:9645   */\n      mstore\n        /* \"#utility.yul\":9662:9793   */\n      tag_305\n        /* \"#utility.yul\":9788:9792   */\n      dup2\n        /* \"#utility.yul\":9662:9793   */\n      tag_202\n      jump\t// in\n    tag_305:\n        /* \"#utility.yul\":9654:9793   */\n      swap1\n      pop\n        /* \"#utility.yul\":9381:9800   */\n      swap2\n      swap1\n      pop\n      jump\t// out\n        /* \"#utility.yul\":9806:10216   */\n    tag_108:\n        /* \"#utility.yul\":9846:9853   */\n      0x00\n        /* \"#utility.yul\":9869:9889   */\n      tag_307\n        /* \"#utility.yul\":9887:9888   */\n      dup3\n        /* \"#utility.yul\":9869:9889   */\n      tag_187\n      jump\t// in\n    tag_307:\n        /* \"#utility.yul\":9864:9889   */\n      swap2\n      pop\n        /* \"#utility.yul\":9903:9923   */\n      tag_308\n        /* \"#utility.yul\":9921:9922   */\n      dup4\n        /* \"#utility.yul\":9903:9923   */\n      tag_187\n      jump\t// in\n    tag_308:\n        /* \"#utility.yul\":9898:9923   */\n      swap3\n      pop\n        /* \"#utility.yul\":9958:9959   */\n      dup3\n        /* \"#utility.yul\":9955:9956   */\n      dup3\n        /* \"#utility.yul\":9951:9960   */\n      mul\n        /* \"#utility.yul\":9980:10010   */\n      tag_309\n        /* \"#utility.yul\":9998:10009   */\n      dup2\n        /* \"#utility.yul\":9980:10010   */\n      tag_187\n      jump\t// in\n    tag_309:\n        /* \"#utility.yul\":9969:10010   */\n      swap2\n      pop\n        /* \"#utility.yul\":10159:10160   */\n      dup3\n        /* \"#utility.yul\":10150:10157   */\n      dup3\n        /* \"#utility.yul\":10146:10161   */\n      div\n        /* \"#utility.yul\":10143:10144   */\n      dup5\n        /* \"#utility.yul\":10140:10162   */\n      eq\n        /* \"#utility.yul\":10120:10121   */\n      dup4\n        /* \"#utility.yul\":10113:10122   */\n      iszero\n        /* \"#utility.yul\":10093:10176   */\n      or\n        /* \"#utility.yul\":10070:10209   */\n      tag_310\n      jumpi\n        /* \"#utility.yul\":10189:10207   */\n      tag_311\n      tag_200\n      jump\t// in\n    tag_311:\n        /* \"#utility.yul\":10070:10209   */\n    tag_310:\n        /* \"#utility.yul\":9854:10216   */\n      pop\n        /* \"#utility.yul\":9806:10216   */\n      swap3\n      swap2\n      pop\n      pop\n      jump\t// out\n        /* \"#utility.yul\":10222:10402   */\n    tag_203:\n        /* \"#utility.yul\":10270:10347   */\n      0x4e487b7100000000000000000000000000000000000000000000000000000000\n        /* \"#utility.yul\":10267:10268   */\n      0x00\n        /* \"#utility.yul\":10260:10348   */\n      mstore\n        /* \"#utility.yul\":10367:10371   */\n      0x12\n        /* \"#utility.yul\":10364:10365   */\n      0x04\n        /* \"#utility.yul\":10357:10372   */\n      mstore\n        /* \"#utility.yul\":10391:10395   */\n      0x24\n        /* \"#utility.yul\":10388:10389   */\n      0x00\n        /* \"#utility.yul\":10381:10396   */\n      revert\n        /* \"#utility.yul\":10408:10593   */\n    tag_110:\n        /* \"#utility.yul\":10448:10449   */\n      0x00\n        /* \"#utility.yul\":10465:10485   */\n      tag_314\n        /* \"#utility.yul\":10483:10484   */\n      dup3\n        /* \"#utility.yul\":10465:10485   */\n      tag_187\n      jump\t// in\n    tag_314:\n        /* \"#utility.yul\":10460:10485   */\n      swap2\n      pop\n        /* \"#utility.yul\":10499:10519   */\n      tag_315\n        /* \"#utility.yul\":10517:10518   */\n      dup4\n        /* \"#utility.yul\":10499:10519   */\n      tag_187\n      jump\t// in\n    tag_315:\n        /* \"#utility.yul\":10494:10519   */\n      swap3\n      pop\n        /* \"#utility.yul\":10538:10539   */\n      dup3\n        /* \"#utility.yul\":10528:10563   */\n      tag_316\n      jumpi\n        /* \"#utility.yul\":10543:10561   */\n      tag_317\n      tag_203\n      jump\t// in\n    tag_317:\n        /* \"#utility.yul\":10528:10563   */\n    tag_316:\n        /* \"#utility.yul\":10585:10586   */\n      dup3\n        /* \"#utility.yul\":10582:10583   */\n      dup3\n        /* \"#utility.yul\":10578:10587   */\n      div\n        /* \"#utility.yul\":10573:10587   */\n      swap1\n      pop\n        /* \"#utility.yul\":10408:10593   */\n      swap3\n      swap2\n      pop\n      pop\n      jump\t// out\n        /* \"#utility.yul\":10599:10769   */\n    tag_204:\n        /* \"#utility.yul\":10739:10761   */\n      0x62616c616e6365206973203c3d20616d6f756e74000000000000000000000000\n        /* \"#utility.yul\":10735:10736   */\n      0x00\n        /* \"#utility.yul\":10727:10733   */\n      dup3\n        /* \"#utility.yul\":10723:10737   */\n      add\n        /* \"#utility.yul\":10716:10762   */\n      mstore\n        /* \"#utility.yul\":10599:10769   */\n      pop\n      jump\t// out\n        /* \"#utility.yul\":10775:11141   */\n    tag_205:\n        /* \"#utility.yul\":10917:10920   */\n      0x00\n        /* \"#utility.yul\":10938:11005   */\n      tag_320\n        /* \"#utility.yul\":11002:11004   */\n      0x14\n        /* \"#utility.yul\":10997:11000   */\n      dup4\n        /* \"#utility.yul\":10938:11005   */\n      tag_176\n      jump\t// in\n    tag_320:\n        /* \"#utility.yul\":10931:11005   */\n      swap2\n      pop\n        /* \"#utility.yul\":11014:11107   */\n      tag_321\n        /* \"#utility.yul\":11103:11106   */\n      dup3\n        /* \"#utility.yul\":11014:11107   */\n      tag_204\n      jump\t// in\n    tag_321:\n        /* \"#utility.yul\":11132:11134   */\n      0x20\n        /* \"#utility.yul\":11127:11130   */\n      dup3\n        /* \"#utility.yul\":11123:11135   */\n      add\n        /* \"#utility.yul\":11116:11135   */\n      swap1\n      pop\n        /* \"#utility.yul\":10775:11141   */\n      swap2\n      swap1\n      pop\n      jump\t// out\n        /* \"#utility.yul\":11147:11566   */\n    tag_126:\n        /* \"#utility.yul\":11313:11317   */\n      0x00\n        /* \"#utility.yul\":11351:11353   */\n      0x20\n        /* \"#utility.yul\":11340:11349   */\n      dup3\n        /* \"#utility.yul\":11336:11354   */\n      add\n        /* \"#utility.yul\":11328:11354   */\n      swap1\n      pop\n        /* \"#utility.yul\":11400:11409   */\n      dup2\n        /* \"#utility.yul\":11394:11398   */\n      dup2\n        /* \"#utility.yul\":11390:11410   */\n      sub\n        /* \"#utility.yul\":11386:11387   */\n      0x00\n        /* \"#utility.yul\":11375:11384   */\n      dup4\n        /* \"#utility.yul\":11371:11388   */\n      add\n        /* \"#utility.yul\":11364:11411   */\n      mstore\n        /* \"#utility.yul\":11428:11559   */\n      tag_323\n        /* \"#utility.yul\":11554:11558   */\n      dup2\n        /* \"#utility.yul\":11428:11559   */\n      tag_205\n      jump\t// in\n    tag_323:\n        /* \"#utility.yul\":11420:11559   */\n      swap1\n      pop\n        /* \"#utility.yul\":11147:11566   */\n      swap2\n      swap1\n      pop\n      jump\t// out\n        /* \"#utility.yul\":11572:11763   */\n    tag_131:\n        /* \"#utility.yul\":11612:11615   */\n      0x00\n        /* \"#utility.yul\":11631:11651   */\n      tag_325\n        /* \"#utility.yul\":11649:11650   */\n      dup3\n        /* \"#utility.yul\":11631:11651   */\n      tag_187\n      jump\t// in\n    tag_325:\n        /* \"#utility.yul\":11626:11651   */\n      swap2\n      pop\n        /* \"#utility.yul\":11665:11685   */\n      tag_326\n        /* \"#utility.yul\":11683:11684   */\n      dup4\n        /* \"#utility.yul\":11665:11685   */\n      tag_187\n      jump\t// in\n    tag_326:\n        /* \"#utility.yul\":11660:11685   */\n      swap3\n      pop\n        /* \"#utility.yul\":11708:11709   */\n      dup3\n        /* \"#utility.yul\":11705:11706   */\n      dup3\n        /* \"#utility.yul\":11701:11710   */\n      add\n        /* \"#utility.yul\":11694:11710   */\n      swap1\n      pop\n        /* \"#utility.yul\":11729:11732   */\n      dup1\n        /* \"#utility.yul\":11726:11727   */\n      dup3\n        /* \"#utility.yul\":11723:11733   */\n      gt\n        /* \"#utility.yul\":11720:11756   */\n      iszero\n      tag_327\n      jumpi\n        /* \"#utility.yul\":11736:11754   */\n      tag_328\n      tag_200\n      jump\t// in\n    tag_328:\n        /* \"#utility.yul\":11720:11756   */\n    tag_327:\n        /* \"#utility.yul\":11572:11763   */\n      swap3\n      swap2\n      pop\n      pop\n      jump\t// out\n        /* \"#utility.yul\":11769:11887   */\n    tag_206:\n        /* \"#utility.yul\":11856:11880   */\n      tag_330\n        /* \"#utility.yul\":11874:11879   */\n      dup2\n        /* \"#utility.yul\":11856:11880   */\n      tag_184\n      jump\t// in\n    tag_330:\n        /* \"#utility.yul\":11851:11854   */\n      dup3\n        /* \"#utility.yul\":11844:11881   */\n      mstore\n        /* \"#utility.yul\":11769:11887   */\n      pop\n      pop\n      jump\t// out\n        /* \"#utility.yul\":11893:12335   */\n    tag_145:\n        /* \"#utility.yul\":12042:12046   */\n      0x00\n        /* \"#utility.yul\":12080:12082   */\n      0x60\n        /* \"#utility.yul\":12069:12078   */\n      dup3\n        /* \"#utility.yul\":12065:12083   */\n      add\n        /* \"#utility.yul\":12057:12083   */\n      swap1\n      pop\n        /* \"#utility.yul\":12093:12164   */\n      tag_332\n        /* \"#utility.yul\":12161:12162   */\n      0x00\n        /* \"#utility.yul\":12150:12159   */\n      dup4\n        /* \"#utility.yul\":12146:12163   */\n      add\n        /* \"#utility.yul\":12137:12143   */\n      dup7\n        /* \"#utility.yul\":12093:12164   */\n      tag_206\n      jump\t// in\n    tag_332:\n        /* \"#utility.yul\":12174:12246   */\n      tag_333\n        /* \"#utility.yul\":12242:12244   */\n      0x20\n        /* \"#utility.yul\":12231:12240   */\n      dup4\n        /* \"#utility.yul\":12227:12245   */\n      add\n        /* \"#utility.yul\":12218:12224   */\n      dup6\n        /* \"#utility.yul\":12174:12246   */\n      tag_192\n      jump\t// in\n    tag_333:\n        /* \"#utility.yul\":12256:12328   */\n      tag_334\n        /* \"#utility.yul\":12324:12326   */\n      0x40\n        /* \"#utility.yul\":12313:12322   */\n      dup4\n        /* \"#utility.yul\":12309:12327   */\n      add\n        /* \"#utility.yul\":12300:12306   */\n      dup5\n        /* \"#utility.yul\":12256:12328   */\n      tag_192\n      jump\t// in\n    tag_334:\n        /* \"#utility.yul\":11893:12335   */\n      swap5\n      swap4\n      pop\n      pop\n      pop\n      pop\n      jump\t// out\n        /* \"#utility.yul\":12341:12563   */\n    tag_150:\n        /* \"#utility.yul\":12434:12438   */\n      0x00\n        /* \"#utility.yul\":12472:12474   */\n      0x20\n        /* \"#utility.yul\":12461:12470   */\n      dup3\n        /* \"#utility.yul\":12457:12475   */\n      add\n        /* \"#utility.yul\":12449:12475   */\n      swap1\n      pop\n        /* \"#utility.yul\":12485:12556   */\n      tag_336\n        /* \"#utility.yul\":12553:12554   */\n      0x00\n        /* \"#utility.yul\":12542:12551   */\n      dup4\n        /* \"#utility.yul\":12538:12555   */\n      add\n        /* \"#utility.yul\":12529:12535   */\n      dup5\n        /* \"#utility.yul\":12485:12556   */\n      tag_206\n      jump\t// in\n    tag_336:\n        /* \"#utility.yul\":12341:12563   */\n      swap3\n      swap2\n      pop\n      pop\n      jump\t// out\n\n    auxdata: 0xa2646970667358221220a8ccb8afe482a8e95309cb1b125d0d3e6d02e9a58a5e616b7a4a3677c5e132f064736f6c63430008180033\n}\n",
				"bytecode": {
					"linkReferences": {},
					"object": "608060405234801562000010575f80fd5b506040518060400160405280600d81526020017f4669786564205374616b696e67000000000000000000000000000000000000008152506040518060400160405280600381526020017f464958000000000000000000000000000000000000000000000000000000000081525081600390816200008e9190620005d5565b508060049081620000a09190620005d5565b505050620000bd33670de0b6b3a7640000620000c360201b60201c565b620007e5565b5f73ffffffffffffffffffffffffffffffffffffffff168273ffffffffffffffffffffffffffffffffffffffff160362000136575f6040517fec442f050000000000000000000000000000000000000000000000000000000081526004016200012d9190620006fc565b60405180910390fd5b620001495f83836200014d60201b60201c565b5050565b5f73ffffffffffffffffffffffffffffffffffffffff168373ffffffffffffffffffffffffffffffffffffffff1603620001a1578060025f82825462000194919062000744565b9250508190555062000272565b5f805f8573ffffffffffffffffffffffffffffffffffffffff1673ffffffffffffffffffffffffffffffffffffffff1681526020019081526020015f20549050818110156200022d578381836040517fe450d38c00000000000000000000000000000000000000000000000000000000815260040162000224939291906200078f565b60405180910390fd5b8181035f808673ffffffffffffffffffffffffffffffffffffffff1673ffffffffffffffffffffffffffffffffffffffff1681526020019081526020015f2081905550505b5f73ffffffffffffffffffffffffffffffffffffffff168273ffffffffffffffffffffffffffffffffffffffff1603620002bb578060025f828254039250508190555062000305565b805f808473ffffffffffffffffffffffffffffffffffffffff1673ffffffffffffffffffffffffffffffffffffffff1681526020019081526020015f205f82825401925050819055505b8173ffffffffffffffffffffffffffffffffffffffff168373ffffffffffffffffffffffffffffffffffffffff167fddf252ad1be2c89b69c2b068fc378daa952ba7f163c4a11628f55a4df523b3ef83604051620003649190620007ca565b60405180910390a3505050565b5f81519050919050565b7f4e487b71000000000000000000000000000000000000000000000000000000005f52604160045260245ffd5b7f4e487b71000000000000000000000000000000000000000000000000000000005f52602260045260245ffd5b5f6002820490506001821680620003ed57607f821691505b602082108103620004035762000402620003a8565b5b50919050565b5f819050815f5260205f209050919050565b5f6020601f8301049050919050565b5f82821b905092915050565b5f60088302620004677fffffffffffffffffffffffffffffffffffffffffffffffffffffffffffffffff826200042a565b6200047386836200042a565b95508019841693508086168417925050509392505050565b5f819050919050565b5f819050919050565b5f620004bd620004b7620004b1846200048b565b62000494565b6200048b565b9050919050565b5f819050919050565b620004d8836200049d565b620004f0620004e782620004c4565b84845462000436565b825550505050565b5f90565b62000506620004f8565b62000513818484620004cd565b505050565b5b818110156200053a576200052e5f82620004fc565b60018101905062000519565b5050565b601f8211156200058957620005538162000409565b6200055e846200041b565b810160208510156200056e578190505b620005866200057d856200041b565b83018262000518565b50505b505050565b5f82821c905092915050565b5f620005ab5f19846008026200058e565b1980831691505092915050565b5f620005c583836200059a565b9150826002028217905092915050565b620005e08262000371565b67ffffffffffffffff811115620005fc57620005fb6200037b565b5b620006088254620003d5565b620006158282856200053e565b5f60209050601f8311600181146200064b575f841562000636578287015190505b620006428582620005b8565b865550620006b1565b601f1984166200065b8662000409565b5f5b8281101562000684578489015182556001820191506020850194506020810190506200065d565b86831015620006a45784890151620006a0601f8916826200059a565b8355505b6001600288020188555050505b505050505050565b5f73ffffffffffffffffffffffffffffffffffffffff82169050919050565b5f620006e482620006b9565b9050919050565b620006f681620006d8565b82525050565b5f602082019050620007115f830184620006eb565b92915050565b7f4e487b71000000000000000000000000000000000000000000000000000000005f52601160045260245ffd5b5f62000750826200048b565b91506200075d836200048b565b925082820190508082111562000778576200077762000717565b5b92915050565b62000789816200048b565b82525050565b5f606082019050620007a45f830186620006eb565b620007b360208301856200077e565b620007c260408301846200077e565b949350505050565b5f602082019050620007df5f8301846200077e565b92915050565b6115f880620007f35f395ff3fe608060405234801561000f575f80fd5b50600436106100cd575f3560e01c80634e71d92d1161008a57806398807d841161006457806398807d84146101ff578063a694fc3a1461022f578063a9059cbb1461024b578063dd62ed3e1461027b576100cd565b80634e71d92d146101a757806370a08231146101b157806395d89b41146101e1576100cd565b806306fdde03146100d1578063095ea7b3146100ef57806318160ddd1461011f57806323b872dd1461013d5780632e17de781461016d578063313ce56714610189575b5f80fd5b6100d96102ab565b6040516100e69190610fd5565b60405180910390f35b61010960048036038101906101049190611086565b61033b565b60405161011691906110de565b60405180910390f35b61012761035d565b6040516101349190611106565b60405180910390f35b6101576004803603810190610152919061111f565b610366565b60405161016491906110de565b60405180910390f35b6101876004803603810190610182919061116f565b610394565b005b6101916104bf565b60405161019e91906111b5565b60405180910390f35b6101af6104c7565b005b6101cb60048036038101906101c691906111ce565b61063d565b6040516101d89190611106565b60405180910390f35b6101e9610682565b6040516101f69190610fd5565b60405180910390f35b610219600480360381019061021491906111ce565b610712565b6040516102269190611106565b60405180910390f35b6102496004803603810190610244919061116f565b610727565b005b61026560048036038101906102609190611086565b6108a5565b60405161027291906110de565b60405180910390f35b610295600480360381019061029091906111f9565b6108c7565b6040516102a29190611106565b60405180910390f35b6060600380546102ba90611264565b80601f01602080910402602001604051908101604052809291908181526020018280546102e690611264565b80156103315780601f1061030857610100808354040283529160200191610331565b820191905f5260205f20905b81548152906001019060200180831161031457829003601f168201915b5050505050905090565b5f80610345610949565b9050610352818585610950565b600191505092915050565b5f600254905090565b5f80610370610949565b905061037d858285610962565b6103888585856109f4565b60019150509392505050565b5f81116103d6576040517f08c379a00000000000000000000000000000000000000000000000000000000081526004016103cd906112de565b60405180910390fd5b8060055f3373ffffffffffffffffffffffffffffffffffffffff1673ffffffffffffffffffffffffffffffffffffffff1681526020019081526020015f20541015610456576040517f08c379a000000000000000000000000000000000000000000000000000000000815260040161044d90611346565b60405180910390fd5b61045e6104c7565b8060055f3373ffffffffffffffffffffffffffffffffffffffff1673ffffffffffffffffffffffffffffffffffffffff1681526020019081526020015f205f8282546104aa9190611391565b925050819055506104bc3033836109f4565b50565b5f6012905090565b5f60055f3373ffffffffffffffffffffffffffffffffffffffff1673ffffffffffffffffffffffffffffffffffffffff1681526020019081526020015f205411610546576040517f08c379a000000000000000000000000000000000000000000000000000000000815260040161053d9061140e565b60405180910390fd5b5f60065f3373ffffffffffffffffffffffffffffffffffffffff1673ffffffffffffffffffffffffffffffffffffffff1681526020019081526020015f2054426105909190611391565b90505f6301e143208260055f3373ffffffffffffffffffffffffffffffffffffffff1673ffffffffffffffffffffffffffffffffffffffff1681526020019081526020015f20546105e1919061142c565b6105eb919061149a565b90506105f73382610ae4565b4260065f3373ffffffffffffffffffffffffffffffffffffffff1673ffffffffffffffffffffffffffffffffffffffff1681526020019081526020015f20819055505050565b5f805f8373ffffffffffffffffffffffffffffffffffffffff1673ffffffffffffffffffffffffffffffffffffffff1681526020019081526020015f20549050919050565b60606004805461069190611264565b80601f01602080910402602001604051908101604052809291908181526020018280546106bd90611264565b80156107085780601f106106df57610100808354040283529160200191610708565b820191905f5260205f20905b8154815290600101906020018083116106eb57829003601f168201915b5050505050905090565b6005602052805f5260405f205f915090505481565b5f8111610769576040517f08c379a0000000000000000000000000000000000000000000000000000000008152600401610760906112de565b60405180910390fd5b806107733361063d565b10156107b4576040517f08c379a00000000000000000000000000000000000000000000000000000000081526004016107ab90611514565b60405180910390fd5b6107bf3330836109f4565b5f60055f3373ffffffffffffffffffffffffffffffffffffffff1673ffffffffffffffffffffffffffffffffffffffff1681526020019081526020015f2054111561080d5761080c6104c7565b5b4260065f3373ffffffffffffffffffffffffffffffffffffffff1673ffffffffffffffffffffffffffffffffffffffff1681526020019081526020015f20819055508060055f3373ffffffffffffffffffffffffffffffffffffffff1673ffffffffffffffffffffffffffffffffffffffff1681526020019081526020015f205f82825461089b9190611532565b9250508190555050565b5f806108af610949565b90506108bc8185856109f4565b600191505092915050565b5f60015f8473ffffffffffffffffffffffffffffffffffffffff1673ffffffffffffffffffffffffffffffffffffffff1681526020019081526020015f205f8373ffffffffffffffffffffffffffffffffffffffff1673ffffffffffffffffffffffffffffffffffffffff1681526020019081526020015f2054905092915050565b5f33905090565b61095d8383836001610b63565b505050565b5f61096d84846108c7565b90507fffffffffffffffffffffffffffffffffffffffffffffffffffffffffffffffff81146109ee57818110156109df578281836040517ffb8f41b20000000000000000000000000000000000000000000000000000000081526004016109d693929190611574565b60405180910390fd5b6109ed84848484035f610b63565b5b50505050565b5f73ffffffffffffffffffffffffffffffffffffffff168373ffffffffffffffffffffffffffffffffffffffff1603610a64575f6040517f96c6fd1e000000000000000000000000000000000000000000000000000000008152600401610a5b91906115a9565b60405180910390fd5b5f73ffffffffffffffffffffffffffffffffffffffff168273ffffffffffffffffffffffffffffffffffffffff1603610ad4575f6040517fec442f05000000000000000000000000000000000000000000000000000000008152600401610acb91906115a9565b60405180910390fd5b610adf838383610d32565b505050565b5f73ffffffffffffffffffffffffffffffffffffffff168273ffffffffffffffffffffffffffffffffffffffff1603610b54575f6040517fec442f05000000000000000000000000000000000000000000000000000000008152600401610b4b91906115a9565b60405180910390fd5b610b5f5f8383610d32565b5050565b5f73ffffffffffffffffffffffffffffffffffffffff168473ffffffffffffffffffffffffffffffffffffffff1603610bd3575f6040517fe602df05000000000000000000000000000000000000000000000000000000008152600401610bca91906115a9565b60405180910390fd5b5f73ffffffffffffffffffffffffffffffffffffffff168373ffffffffffffffffffffffffffffffffffffffff1603610c43575f6040517f94280d62000000000000000000000000000000000000000000000000000000008152600401610c3a91906115a9565b60405180910390fd5b8160015f8673ffffffffffffffffffffffffffffffffffffffff1673ffffffffffffffffffffffffffffffffffffffff1681526020019081526020015f205f8573ffffffffffffffffffffffffffffffffffffffff1673ffffffffffffffffffffffffffffffffffffffff1681526020019081526020015f20819055508015610d2c578273ffffffffffffffffffffffffffffffffffffffff168473ffffffffffffffffffffffffffffffffffffffff167f8c5be1e5ebec7d5bd14f71427d1e84f3dd0314c0f7b2291e5b200ac8c7c3b92584604051610d239190611106565b60405180910390a35b50505050565b5f73ffffffffffffffffffffffffffffffffffffffff168373ffffffffffffffffffffffffffffffffffffffff1603610d82578060025f828254610d769190611532565b92505081905550610e50565b5f805f8573ffffffffffffffffffffffffffffffffffffffff1673ffffffffffffffffffffffffffffffffffffffff1681526020019081526020015f2054905081811015610e0b578381836040517fe450d38c000000000000000000000000000000000000000000000000000000008152600401610e0293929190611574565b60405180910390fd5b8181035f808673ffffffffffffffffffffffffffffffffffffffff1673ffffffffffffffffffffffffffffffffffffffff1681526020019081526020015f2081905550505b5f73ffffffffffffffffffffffffffffffffffffffff168273ffffffffffffffffffffffffffffffffffffffff1603610e97578060025f8282540392505081905550610ee1565b805f808473ffffffffffffffffffffffffffffffffffffffff1673ffffffffffffffffffffffffffffffffffffffff1681526020019081526020015f205f82825401925050819055505b8173ffffffffffffffffffffffffffffffffffffffff168373ffffffffffffffffffffffffffffffffffffffff167fddf252ad1be2c89b69c2b068fc378daa952ba7f163c4a11628f55a4df523b3ef83604051610f3e9190611106565b60405180910390a3505050565b5f81519050919050565b5f82825260208201905092915050565b5f5b83811015610f82578082015181840152602081019050610f67565b5f8484015250505050565b5f601f19601f8301169050919050565b5f610fa782610f4b565b610fb18185610f55565b9350610fc1818560208601610f65565b610fca81610f8d565b840191505092915050565b5f6020820190508181035f830152610fed8184610f9d565b905092915050565b5f80fd5b5f73ffffffffffffffffffffffffffffffffffffffff82169050919050565b5f61102282610ff9565b9050919050565b61103281611018565b811461103c575f80fd5b50565b5f8135905061104d81611029565b92915050565b5f819050919050565b61106581611053565b811461106f575f80fd5b50565b5f813590506110808161105c565b92915050565b5f806040838503121561109c5761109b610ff5565b5b5f6110a98582860161103f565b92505060206110ba85828601611072565b9150509250929050565b5f8115159050919050565b6110d8816110c4565b82525050565b5f6020820190506110f15f8301846110cf565b92915050565b61110081611053565b82525050565b5f6020820190506111195f8301846110f7565b92915050565b5f805f6060848603121561113657611135610ff5565b5b5f6111438682870161103f565b93505060206111548682870161103f565b925050604061116586828701611072565b9150509250925092565b5f6020828403121561118457611183610ff5565b5b5f61119184828501611072565b91505092915050565b5f60ff82169050919050565b6111af8161119a565b82525050565b5f6020820190506111c85f8301846111a6565b92915050565b5f602082840312156111e3576111e2610ff5565b5b5f6111f08482850161103f565b91505092915050565b5f806040838503121561120f5761120e610ff5565b5b5f61121c8582860161103f565b925050602061122d8582860161103f565b9150509250929050565b7f4e487b71000000000000000000000000000000000000000000000000000000005f52602260045260245ffd5b5f600282049050600182168061127b57607f821691505b60208210810361128e5761128d611237565b5b50919050565b7f616d6f756e74206973203c3d20300000000000000000000000000000000000005f82015250565b5f6112c8600e83610f55565b91506112d382611294565b602082019050919050565b5f6020820190508181035f8301526112f5816112bc565b9050919050565b7f616d6f756e74206973203e207374616b656400000000000000000000000000005f82015250565b5f611330601283610f55565b915061133b826112fc565b602082019050919050565b5f6020820190508181035f83015261135d81611324565b9050919050565b7f4e487b71000000000000000000000000000000000000000000000000000000005f52601160045260245ffd5b5f61139b82611053565b91506113a683611053565b92508282039050818111156113be576113bd611364565b5b92915050565b7f7374616b6564206973203c3d20300000000000000000000000000000000000005f82015250565b5f6113f8600e83610f55565b9150611403826113c4565b602082019050919050565b5f6020820190508181035f830152611425816113ec565b9050919050565b5f61143682611053565b915061144183611053565b925082820261144f81611053565b9150828204841483151761146657611465611364565b5b5092915050565b7f4e487b71000000000000000000000000000000000000000000000000000000005f52601260045260245ffd5b5f6114a482611053565b91506114af83611053565b9250826114bf576114be61146d565b5b828204905092915050565b7f62616c616e6365206973203c3d20616d6f756e740000000000000000000000005f82015250565b5f6114fe601483610f55565b9150611509826114ca565b602082019050919050565b5f6020820190508181035f83015261152b816114f2565b9050919050565b5f61153c82611053565b915061154783611053565b925082820190508082111561155f5761155e611364565b5b92915050565b61156e81611018565b82525050565b5f6060820190506115875f830186611565565b61159460208301856110f7565b6115a160408301846110f7565b949350505050565b5f6020820190506115bc5f830184611565565b9291505056fea2646970667358221220a8ccb8afe482a8e95309cb1b125d0d3e6d02e9a58a5e616b7a4a3677c5e132f064736f6c63430008180033",
					"opcodes": "PUSH1 0x80 PUSH1 0x40 MSTORE CALLVALUE DUP1 ISZERO PUSH3 0x10 JUMPI PUSH0 DUP1 REVERT JUMPDEST POP PUSH1 0x40 MLOAD DUP1 PUSH1 0x40 ADD PUSH1 0x40 MSTORE DUP1 PUSH1 0xD DUP2 MSTORE PUSH1 0x20 ADD PUSH32 0x4669786564205374616B696E6700000000000000000000000000000000000000 DUP2 MSTORE POP PUSH1 0x40 MLOAD DUP1 PUSH1 0x40 ADD PUSH1 0x40 MSTORE DUP1 PUSH1 0x3 DUP2 MSTORE PUSH1 0x20 ADD PUSH32 0x4649580000000000000000000000000000000000000000000000000000000000 DUP2 MSTORE POP DUP2 PUSH1 0x3 SWAP1 DUP2 PUSH3 0x8E SWAP2 SWAP1 PUSH3 0x5D5 JUMP JUMPDEST POP DUP1 PUSH1 0x4 SWAP1 DUP2 PUSH3 0xA0 SWAP2 SWAP1 PUSH3 0x5D5 JUMP JUMPDEST POP POP POP PUSH3 0xBD CALLER PUSH8 0xDE0B6B3A7640000 PUSH3 0xC3 PUSH1 0x20 SHL PUSH1 0x20 SHR JUMP JUMPDEST PUSH3 0x7E5 JUMP JUMPDEST PUSH0 PUSH20 0xFFFFFFFFFFFFFFFFFFFFFFFFFFFFFFFFFFFFFFFF AND DUP3 PUSH20 0xFFFFFFFFFFFFFFFFFFFFFFFFFFFFFFFFFFFFFFFF AND SUB PUSH3 0x136 JUMPI PUSH0 PUSH1 0x40 MLOAD PUSH32 0xEC442F0500000000000000000000000000000000000000000000000000000000 DUP2 MSTORE PUSH1 0x4 ADD PUSH3 0x12D SWAP2 SWAP1 PUSH3 0x6FC JUMP JUMPDEST PUSH1 0x40 MLOAD DUP1 SWAP2 SUB SWAP1 REVERT JUMPDEST PUSH3 0x149 PUSH0 DUP4 DUP4 PUSH3 0x14D PUSH1 0x20 SHL PUSH1 0x20 SHR JUMP JUMPDEST POP POP JUMP JUMPDEST PUSH0 PUSH20 0xFFFFFFFFFFFFFFFFFFFFFFFFFFFFFFFFFFFFFFFF AND DUP4 PUSH20 0xFFFFFFFFFFFFFFFFFFFFFFFFFFFFFFFFFFFFFFFF AND SUB PUSH3 0x1A1 JUMPI DUP1 PUSH1 0x2 PUSH0 DUP3 DUP3 SLOAD PUSH3 0x194 SWAP2 SWAP1 PUSH3 0x744 JUMP JUMPDEST SWAP3 POP POP DUP2 SWAP1 SSTORE POP PUSH3 0x272 JUMP JUMPDEST PUSH0 DUP1 PUSH0 DUP6 PUSH20 0xFFFFFFFFFFFFFFFFFFFFFFFFFFFFFFFFFFFFFFFF AND PUSH20 0xFFFFFFFFFFFFFFFFFFFFFFFFFFFFFFFFFFFFFFFF AND DUP2 MSTORE PUSH1 0x20 ADD SWAP1 DUP2 MSTORE PUSH1 0x20 ADD PUSH0 KECCAK256 SLOAD SWAP1 POP DUP2 DUP2 LT ISZERO PUSH3 0x22D JUMPI DUP4 DUP2 DUP4 PUSH1 0x40 MLOAD PUSH32 0xE450D38C00000000000000000000000000000000000000000000000000000000 DUP2 MSTORE PUSH1 0x4 ADD PUSH3 0x224 SWAP4 SWAP3 SWAP2 SWAP1 PUSH3 0x78F JUMP JUMPDEST PUSH1 0x40 MLOAD DUP1 SWAP2 SUB SWAP1 REVERT JUMPDEST DUP2 DUP2 SUB PUSH0 DUP1 DUP7 PUSH20 0xFFFFFFFFFFFFFFFFFFFFFFFFFFFFFFFFFFFFFFFF AND PUSH20 0xFFFFFFFFFFFFFFFFFFFFFFFFFFFFFFFFFFFFFFFF AND DUP2 MSTORE PUSH1 0x20 ADD SWAP1 DUP2 MSTORE PUSH1 0x20 ADD PUSH0 KECCAK256 DUP2 SWAP1 SSTORE POP POP JUMPDEST PUSH0 PUSH20 0xFFFFFFFFFFFFFFFFFFFFFFFFFFFFFFFFFFFFFFFF AND DUP3 PUSH20 0xFFFFFFFFFFFFFFFFFFFFFFFFFFFFFFFFFFFFFFFF AND SUB PUSH3 0x2BB JUMPI DUP1 PUSH1 0x2 PUSH0 DUP3 DUP3 SLOAD SUB SWAP3 POP POP DUP2 SWAP1 SSTORE POP PUSH3 0x305 JUMP JUMPDEST DUP1 PUSH0 DUP1 DUP5 PUSH20 0xFFFFFFFFFFFFFFFFFFFFFFFFFFFFFFFFFFFFFFFF AND PUSH20 0xFFFFFFFFFFFFFFFFFFFFFFFFFFFFFFFFFFFFFFFF AND DUP2 MSTORE PUSH1 0x20 ADD SWAP1 DUP2 MSTORE PUSH1 0x20 ADD PUSH0 KECCAK256 PUSH0 DUP3 DUP3 SLOAD ADD SWAP3 POP POP DUP2 SWAP1 SSTORE POP JUMPDEST DUP2 PUSH20 0xFFFFFFFFFFFFFFFFFFFFFFFFFFFFFFFFFFFFFFFF AND DUP4 PUSH20 0xFFFFFFFFFFFFFFFFFFFFFFFFFFFFFFFFFFFFFFFF AND PUSH32 0xDDF252AD1BE2C89B69C2B068FC378DAA952BA7F163C4A11628F55A4DF523B3EF DUP4 PUSH1 0x40 MLOAD PUSH3 0x364 SWAP2 SWAP1 PUSH3 0x7CA JUMP JUMPDEST PUSH1 0x40 MLOAD DUP1 SWAP2 SUB SWAP1 LOG3 POP POP POP JUMP JUMPDEST PUSH0 DUP2 MLOAD SWAP1 POP SWAP2 SWAP1 POP JUMP JUMPDEST PUSH32 0x4E487B7100000000000000000000000000000000000000000000000000000000 PUSH0 MSTORE PUSH1 0x41 PUSH1 0x4 MSTORE PUSH1 0x24 PUSH0 REVERT JUMPDEST PUSH32 0x4E487B7100000000000000000000000000000000000000000000000000000000 PUSH0 MSTORE PUSH1 0x22 PUSH1 0x4 MSTORE PUSH1 0x24 PUSH0 REVERT JUMPDEST PUSH0 PUSH1 0x2 DUP3 DIV SWAP1 POP PUSH1 0x1 DUP3 AND DUP1 PUSH3 0x3ED JUMPI PUSH1 0x7F DUP3 AND SWAP2 POP JUMPDEST PUSH1 0x20 DUP3 LT DUP2 SUB PUSH3 0x403 JUMPI PUSH3 0x402 PUSH3 0x3A8 JUMP JUMPDEST JUMPDEST POP SWAP2 SWAP1 POP JUMP JUMPDEST PUSH0 DUP2 SWAP1 POP DUP2 PUSH0 MSTORE PUSH1 0x20 PUSH0 KECCAK256 SWAP1 POP SWAP2 SWAP1 POP JUMP JUMPDEST PUSH0 PUSH1 0x20 PUSH1 0x1F DUP4 ADD DIV SWAP1 POP SWAP2 SWAP1 POP JUMP JUMPDEST PUSH0 DUP3 DUP3 SHL SWAP1 POP SWAP3 SWAP2 POP POP JUMP JUMPDEST PUSH0 PUSH1 0x8 DUP4 MUL PUSH3 0x467 PUSH32 0xFFFFFFFFFFFFFFFFFFFFFFFFFFFFFFFFFFFFFFFFFFFFFFFFFFFFFFFFFFFFFFFF DUP3 PUSH3 0x42A JUMP JUMPDEST PUSH3 0x473 DUP7 DUP4 PUSH3 0x42A JUMP JUMPDEST SWAP6 POP DUP1 NOT DUP5 AND SWAP4 POP DUP1 DUP7 AND DUP5 OR SWAP3 POP POP POP SWAP4 SWAP3 POP POP POP JUMP JUMPDEST PUSH0 DUP2 SWAP1 POP SWAP2 SWAP1 POP JUMP JUMPDEST PUSH0 DUP2 SWAP1 POP SWAP2 SWAP1 POP JUMP JUMPDEST PUSH0 PUSH3 0x4BD PUSH3 0x4B7 PUSH3 0x4B1 DUP5 PUSH3 0x48B JUMP JUMPDEST PUSH3 0x494 JUMP JUMPDEST PUSH3 0x48B JUMP JUMPDEST SWAP1 POP SWAP2 SWAP1 POP JUMP JUMPDEST PUSH0 DUP2 SWAP1 POP SWAP2 SWAP1 POP JUMP JUMPDEST PUSH3 0x4D8 DUP4 PUSH3 0x49D JUMP JUMPDEST PUSH3 0x4F0 PUSH3 0x4E7 DUP3 PUSH3 0x4C4 JUMP JUMPDEST DUP5 DUP5 SLOAD PUSH3 0x436 JUMP JUMPDEST DUP3 SSTORE POP POP POP POP JUMP JUMPDEST PUSH0 SWAP1 JUMP JUMPDEST PUSH3 0x506 PUSH3 0x4F8 JUMP JUMPDEST PUSH3 0x513 DUP2 DUP5 DUP5 PUSH3 0x4CD JUMP JUMPDEST POP POP POP JUMP JUMPDEST JUMPDEST DUP2 DUP2 LT ISZERO PUSH3 0x53A JUMPI PUSH3 0x52E PUSH0 DUP3 PUSH3 0x4FC JUMP JUMPDEST PUSH1 0x1 DUP2 ADD SWAP1 POP PUSH3 0x519 JUMP JUMPDEST POP POP JUMP JUMPDEST PUSH1 0x1F DUP3 GT ISZERO PUSH3 0x589 JUMPI PUSH3 0x553 DUP2 PUSH3 0x409 JUMP JUMPDEST PUSH3 0x55E DUP5 PUSH3 0x41B JUMP JUMPDEST DUP2 ADD PUSH1 0x20 DUP6 LT ISZERO PUSH3 0x56E JUMPI DUP2 SWAP1 POP JUMPDEST PUSH3 0x586 PUSH3 0x57D DUP6 PUSH3 0x41B JUMP JUMPDEST DUP4 ADD DUP3 PUSH3 0x518 JUMP JUMPDEST POP POP JUMPDEST POP POP POP JUMP JUMPDEST PUSH0 DUP3 DUP3 SHR SWAP1 POP SWAP3 SWAP2 POP POP JUMP JUMPDEST PUSH0 PUSH3 0x5AB PUSH0 NOT DUP5 PUSH1 0x8 MUL PUSH3 0x58E JUMP JUMPDEST NOT DUP1 DUP4 AND SWAP2 POP POP SWAP3 SWAP2 POP POP JUMP JUMPDEST PUSH0 PUSH3 0x5C5 DUP4 DUP4 PUSH3 0x59A JUMP JUMPDEST SWAP2 POP DUP3 PUSH1 0x2 MUL DUP3 OR SWAP1 POP SWAP3 SWAP2 POP POP JUMP JUMPDEST PUSH3 0x5E0 DUP3 PUSH3 0x371 JUMP JUMPDEST PUSH8 0xFFFFFFFFFFFFFFFF DUP2 GT ISZERO PUSH3 0x5FC JUMPI PUSH3 0x5FB PUSH3 0x37B JUMP JUMPDEST JUMPDEST PUSH3 0x608 DUP3 SLOAD PUSH3 0x3D5 JUMP JUMPDEST PUSH3 0x615 DUP3 DUP3 DUP6 PUSH3 0x53E JUMP JUMPDEST PUSH0 PUSH1 0x20 SWAP1 POP PUSH1 0x1F DUP4 GT PUSH1 0x1 DUP2 EQ PUSH3 0x64B JUMPI PUSH0 DUP5 ISZERO PUSH3 0x636 JUMPI DUP3 DUP8 ADD MLOAD SWAP1 POP JUMPDEST PUSH3 0x642 DUP6 DUP3 PUSH3 0x5B8 JUMP JUMPDEST DUP7 SSTORE POP PUSH3 0x6B1 JUMP JUMPDEST PUSH1 0x1F NOT DUP5 AND PUSH3 0x65B DUP7 PUSH3 0x409 JUMP JUMPDEST PUSH0 JUMPDEST DUP3 DUP2 LT ISZERO PUSH3 0x684 JUMPI DUP5 DUP10 ADD MLOAD DUP3 SSTORE PUSH1 0x1 DUP3 ADD SWAP2 POP PUSH1 0x20 DUP6 ADD SWAP5 POP PUSH1 0x20 DUP2 ADD SWAP1 POP PUSH3 0x65D JUMP JUMPDEST DUP7 DUP4 LT ISZERO PUSH3 0x6A4 JUMPI DUP5 DUP10 ADD MLOAD PUSH3 0x6A0 PUSH1 0x1F DUP10 AND DUP3 PUSH3 0x59A JUMP JUMPDEST DUP4 SSTORE POP JUMPDEST PUSH1 0x1 PUSH1 0x2 DUP9 MUL ADD DUP9 SSTORE POP POP POP JUMPDEST POP POP POP POP POP POP JUMP JUMPDEST PUSH0 PUSH20 0xFFFFFFFFFFFFFFFFFFFFFFFFFFFFFFFFFFFFFFFF DUP3 AND SWAP1 POP SWAP2 SWAP1 POP JUMP JUMPDEST PUSH0 PUSH3 0x6E4 DUP3 PUSH3 0x6B9 JUMP JUMPDEST SWAP1 POP SWAP2 SWAP1 POP JUMP JUMPDEST PUSH3 0x6F6 DUP2 PUSH3 0x6D8 JUMP JUMPDEST DUP3 MSTORE POP POP JUMP JUMPDEST PUSH0 PUSH1 0x20 DUP3 ADD SWAP1 POP PUSH3 0x711 PUSH0 DUP4 ADD DUP5 PUSH3 0x6EB JUMP JUMPDEST SWAP3 SWAP2 POP POP JUMP JUMPDEST PUSH32 0x4E487B7100000000000000000000000000000000000000000000000000000000 PUSH0 MSTORE PUSH1 0x11 PUSH1 0x4 MSTORE PUSH1 0x24 PUSH0 REVERT JUMPDEST PUSH0 PUSH3 0x750 DUP3 PUSH3 0x48B JUMP JUMPDEST SWAP2 POP PUSH3 0x75D DUP4 PUSH3 0x48B JUMP JUMPDEST SWAP3 POP DUP3 DUP3 ADD SWAP1 POP DUP1 DUP3 GT ISZERO PUSH3 0x778 JUMPI PUSH3 0x777 PUSH3 0x717 JUMP JUMPDEST JUMPDEST SWAP3 SWAP2 POP POP JUMP JUMPDEST PUSH3 0x789 DUP2 PUSH3 0x48B JUMP JUMPDEST DUP3 MSTORE POP POP JUMP JUMPDEST PUSH0 PUSH1 0x60 DUP3 ADD SWAP1 POP PUSH3 0x7A4 PUSH0 DUP4 ADD DUP7 PUSH3 0x6EB JUMP JUMPDEST PUSH3 0x7B3 PUSH1 0x20 DUP4 ADD DUP6 PUSH3 0x77E JUMP JUMPDEST PUSH3 0x7C2 PUSH1 0x40 DUP4 ADD DUP5 PUSH3 0x77E JUMP JUMPDEST SWAP5 SWAP4 POP POP POP POP JUMP JUMPDEST PUSH0 PUSH1 0x20 DUP3 ADD SWAP1 POP PUSH3 0x7DF PUSH0 DUP4 ADD DUP5 PUSH3 0x77E JUMP JUMPDEST SWAP3 SWAP2 POP POP JUMP JUMPDEST PUSH2 0x15F8 DUP1 PUSH3 0x7F3 PUSH0 CODECOPY PUSH0 RETURN INVALID PUSH1 0x80 PUSH1 0x40 MSTORE CALLVALUE DUP1 ISZERO PUSH2 0xF JUMPI PUSH0 DUP1 REVERT JUMPDEST POP PUSH1 0x4 CALLDATASIZE LT PUSH2 0xCD JUMPI PUSH0 CALLDATALOAD PUSH1 0xE0 SHR DUP1 PUSH4 0x4E71D92D GT PUSH2 0x8A JUMPI DUP1 PUSH4 0x98807D84 GT PUSH2 0x64 JUMPI DUP1 PUSH4 0x98807D84 EQ PUSH2 0x1FF JUMPI DUP1 PUSH4 0xA694FC3A EQ PUSH2 0x22F JUMPI DUP1 PUSH4 0xA9059CBB EQ PUSH2 0x24B JUMPI DUP1 PUSH4 0xDD62ED3E EQ PUSH2 0x27B JUMPI PUSH2 0xCD JUMP JUMPDEST DUP1 PUSH4 0x4E71D92D EQ PUSH2 0x1A7 JUMPI DUP1 PUSH4 0x70A08231 EQ PUSH2 0x1B1 JUMPI DUP1 PUSH4 0x95D89B41 EQ PUSH2 0x1E1 JUMPI PUSH2 0xCD JUMP JUMPDEST DUP1 PUSH4 0x6FDDE03 EQ PUSH2 0xD1 JUMPI DUP1 PUSH4 0x95EA7B3 EQ PUSH2 0xEF JUMPI DUP1 PUSH4 0x18160DDD EQ PUSH2 0x11F JUMPI DUP1 PUSH4 0x23B872DD EQ PUSH2 0x13D JUMPI DUP1 PUSH4 0x2E17DE78 EQ PUSH2 0x16D JUMPI DUP1 PUSH4 0x313CE567 EQ PUSH2 0x189 JUMPI JUMPDEST PUSH0 DUP1 REVERT JUMPDEST PUSH2 0xD9 PUSH2 0x2AB JUMP JUMPDEST PUSH1 0x40 MLOAD PUSH2 0xE6 SWAP2 SWAP1 PUSH2 0xFD5 JUMP JUMPDEST PUSH1 0x40 MLOAD DUP1 SWAP2 SUB SWAP1 RETURN JUMPDEST PUSH2 0x109 PUSH1 0x4 DUP1 CALLDATASIZE SUB DUP2 ADD SWAP1 PUSH2 0x104 SWAP2 SWAP1 PUSH2 0x1086 JUMP JUMPDEST PUSH2 0x33B JUMP JUMPDEST PUSH1 0x40 MLOAD PUSH2 0x116 SWAP2 SWAP1 PUSH2 0x10DE JUMP JUMPDEST PUSH1 0x40 MLOAD DUP1 SWAP2 SUB SWAP1 RETURN JUMPDEST PUSH2 0x127 PUSH2 0x35D JUMP JUMPDEST PUSH1 0x40 MLOAD PUSH2 0x134 SWAP2 SWAP1 PUSH2 0x1106 JUMP JUMPDEST PUSH1 0x40 MLOAD DUP1 SWAP2 SUB SWAP1 RETURN JUMPDEST PUSH2 0x157 PUSH1 0x4 DUP1 CALLDATASIZE SUB DUP2 ADD SWAP1 PUSH2 0x152 SWAP2 SWAP1 PUSH2 0x111F JUMP JUMPDEST PUSH2 0x366 JUMP JUMPDEST PUSH1 0x40 MLOAD PUSH2 0x164 SWAP2 SWAP1 PUSH2 0x10DE JUMP JUMPDEST PUSH1 0x40 MLOAD DUP1 SWAP2 SUB SWAP1 RETURN JUMPDEST PUSH2 0x187 PUSH1 0x4 DUP1 CALLDATASIZE SUB DUP2 ADD SWAP1 PUSH2 0x182 SWAP2 SWAP1 PUSH2 0x116F JUMP JUMPDEST PUSH2 0x394 JUMP JUMPDEST STOP JUMPDEST PUSH2 0x191 PUSH2 0x4BF JUMP JUMPDEST PUSH1 0x40 MLOAD PUSH2 0x19E SWAP2 SWAP1 PUSH2 0x11B5 JUMP JUMPDEST PUSH1 0x40 MLOAD DUP1 SWAP2 SUB SWAP1 RETURN JUMPDEST PUSH2 0x1AF PUSH2 0x4C7 JUMP JUMPDEST STOP JUMPDEST PUSH2 0x1CB PUSH1 0x4 DUP1 CALLDATASIZE SUB DUP2 ADD SWAP1 PUSH2 0x1C6 SWAP2 SWAP1 PUSH2 0x11CE JUMP JUMPDEST PUSH2 0x63D JUMP JUMPDEST PUSH1 0x40 MLOAD PUSH2 0x1D8 SWAP2 SWAP1 PUSH2 0x1106 JUMP JUMPDEST PUSH1 0x40 MLOAD DUP1 SWAP2 SUB SWAP1 RETURN JUMPDEST PUSH2 0x1E9 PUSH2 0x682 JUMP JUMPDEST PUSH1 0x40 MLOAD PUSH2 0x1F6 SWAP2 SWAP1 PUSH2 0xFD5 JUMP JUMPDEST PUSH1 0x40 MLOAD DUP1 SWAP2 SUB SWAP1 RETURN JUMPDEST PUSH2 0x219 PUSH1 0x4 DUP1 CALLDATASIZE SUB DUP2 ADD SWAP1 PUSH2 0x214 SWAP2 SWAP1 PUSH2 0x11CE JUMP JUMPDEST PUSH2 0x712 JUMP JUMPDEST PUSH1 0x40 MLOAD PUSH2 0x226 SWAP2 SWAP1 PUSH2 0x1106 JUMP JUMPDEST PUSH1 0x40 MLOAD DUP1 SWAP2 SUB SWAP1 RETURN JUMPDEST PUSH2 0x249 PUSH1 0x4 DUP1 CALLDATASIZE SUB DUP2 ADD SWAP1 PUSH2 0x244 SWAP2 SWAP1 PUSH2 0x116F JUMP JUMPDEST PUSH2 0x727 JUMP JUMPDEST STOP JUMPDEST PUSH2 0x265 PUSH1 0x4 DUP1 CALLDATASIZE SUB DUP2 ADD SWAP1 PUSH2 0x260 SWAP2 SWAP1 PUSH2 0x1086 JUMP JUMPDEST PUSH2 0x8A5 JUMP JUMPDEST PUSH1 0x40 MLOAD PUSH2 0x272 SWAP2 SWAP1 PUSH2 0x10DE JUMP JUMPDEST PUSH1 0x40 MLOAD DUP1 SWAP2 SUB SWAP1 RETURN JUMPDEST PUSH2 0x295 PUSH1 0x4 DUP1 CALLDATASIZE SUB DUP2 ADD SWAP1 PUSH2 0x290 SWAP2 SWAP1 PUSH2 0x11F9 JUMP JUMPDEST PUSH2 0x8C7 JUMP JUMPDEST PUSH1 0x40 MLOAD PUSH2 0x2A2 SWAP2 SWAP1 PUSH2 0x1106 JUMP JUMPDEST PUSH1 0x40 MLOAD DUP1 SWAP2 SUB SWAP1 RETURN JUMPDEST PUSH1 0x60 PUSH1 0x3 DUP1 SLOAD PUSH2 0x2BA SWAP1 PUSH2 0x1264 JUMP JUMPDEST DUP1 PUSH1 0x1F ADD PUSH1 0x20 DUP1 SWAP2 DIV MUL PUSH1 0x20 ADD PUSH1 0x40 MLOAD SWAP1 DUP2 ADD PUSH1 0x40 MSTORE DUP1 SWAP3 SWAP2 SWAP1 DUP2 DUP2 MSTORE PUSH1 0x20 ADD DUP3 DUP1 SLOAD PUSH2 0x2E6 SWAP1 PUSH2 0x1264 JUMP JUMPDEST DUP1 ISZERO PUSH2 0x331 JUMPI DUP1 PUSH1 0x1F LT PUSH2 0x308 JUMPI PUSH2 0x100 DUP1 DUP4 SLOAD DIV MUL DUP4 MSTORE SWAP2 PUSH1 0x20 ADD SWAP2 PUSH2 0x331 JUMP JUMPDEST DUP3 ADD SWAP2 SWAP1 PUSH0 MSTORE PUSH1 0x20 PUSH0 KECCAK256 SWAP1 JUMPDEST DUP2 SLOAD DUP2 MSTORE SWAP1 PUSH1 0x1 ADD SWAP1 PUSH1 0x20 ADD DUP1 DUP4 GT PUSH2 0x314 JUMPI DUP3 SWAP1 SUB PUSH1 0x1F AND DUP3 ADD SWAP2 JUMPDEST POP POP POP POP POP SWAP1 POP SWAP1 JUMP JUMPDEST PUSH0 DUP1 PUSH2 0x345 PUSH2 0x949 JUMP JUMPDEST SWAP1 POP PUSH2 0x352 DUP2 DUP6 DUP6 PUSH2 0x950 JUMP JUMPDEST PUSH1 0x1 SWAP2 POP POP SWAP3 SWAP2 POP POP JUMP JUMPDEST PUSH0 PUSH1 0x2 SLOAD SWAP1 POP SWAP1 JUMP JUMPDEST PUSH0 DUP1 PUSH2 0x370 PUSH2 0x949 JUMP JUMPDEST SWAP1 POP PUSH2 0x37D DUP6 DUP3 DUP6 PUSH2 0x962 JUMP JUMPDEST PUSH2 0x388 DUP6 DUP6 DUP6 PUSH2 0x9F4 JUMP JUMPDEST PUSH1 0x1 SWAP2 POP POP SWAP4 SWAP3 POP POP POP JUMP JUMPDEST PUSH0 DUP2 GT PUSH2 0x3D6 JUMPI PUSH1 0x40 MLOAD PUSH32 0x8C379A000000000000000000000000000000000000000000000000000000000 DUP2 MSTORE PUSH1 0x4 ADD PUSH2 0x3CD SWAP1 PUSH2 0x12DE JUMP JUMPDEST PUSH1 0x40 MLOAD DUP1 SWAP2 SUB SWAP1 REVERT JUMPDEST DUP1 PUSH1 0x5 PUSH0 CALLER PUSH20 0xFFFFFFFFFFFFFFFFFFFFFFFFFFFFFFFFFFFFFFFF AND PUSH20 0xFFFFFFFFFFFFFFFFFFFFFFFFFFFFFFFFFFFFFFFF AND DUP2 MSTORE PUSH1 0x20 ADD SWAP1 DUP2 MSTORE PUSH1 0x20 ADD PUSH0 KECCAK256 SLOAD LT ISZERO PUSH2 0x456 JUMPI PUSH1 0x40 MLOAD PUSH32 0x8C379A000000000000000000000000000000000000000000000000000000000 DUP2 MSTORE PUSH1 0x4 ADD PUSH2 0x44D SWAP1 PUSH2 0x1346 JUMP JUMPDEST PUSH1 0x40 MLOAD DUP1 SWAP2 SUB SWAP1 REVERT JUMPDEST PUSH2 0x45E PUSH2 0x4C7 JUMP JUMPDEST DUP1 PUSH1 0x5 PUSH0 CALLER PUSH20 0xFFFFFFFFFFFFFFFFFFFFFFFFFFFFFFFFFFFFFFFF AND PUSH20 0xFFFFFFFFFFFFFFFFFFFFFFFFFFFFFFFFFFFFFFFF AND DUP2 MSTORE PUSH1 0x20 ADD SWAP1 DUP2 MSTORE PUSH1 0x20 ADD PUSH0 KECCAK256 PUSH0 DUP3 DUP3 SLOAD PUSH2 0x4AA SWAP2 SWAP1 PUSH2 0x1391 JUMP JUMPDEST SWAP3 POP POP DUP2 SWAP1 SSTORE POP PUSH2 0x4BC ADDRESS CALLER DUP4 PUSH2 0x9F4 JUMP JUMPDEST POP JUMP JUMPDEST PUSH0 PUSH1 0x12 SWAP1 POP SWAP1 JUMP JUMPDEST PUSH0 PUSH1 0x5 PUSH0 CALLER PUSH20 0xFFFFFFFFFFFFFFFFFFFFFFFFFFFFFFFFFFFFFFFF AND PUSH20 0xFFFFFFFFFFFFFFFFFFFFFFFFFFFFFFFFFFFFFFFF AND DUP2 MSTORE PUSH1 0x20 ADD SWAP1 DUP2 MSTORE PUSH1 0x20 ADD PUSH0 KECCAK256 SLOAD GT PUSH2 0x546 JUMPI PUSH1 0x40 MLOAD PUSH32 0x8C379A000000000000000000000000000000000000000000000000000000000 DUP2 MSTORE PUSH1 0x4 ADD PUSH2 0x53D SWAP1 PUSH2 0x140E JUMP JUMPDEST PUSH1 0x40 MLOAD DUP1 SWAP2 SUB SWAP1 REVERT JUMPDEST PUSH0 PUSH1 0x6 PUSH0 CALLER PUSH20 0xFFFFFFFFFFFFFFFFFFFFFFFFFFFFFFFFFFFFFFFF AND PUSH20 0xFFFFFFFFFFFFFFFFFFFFFFFFFFFFFFFFFFFFFFFF AND DUP2 MSTORE PUSH1 0x20 ADD SWAP1 DUP2 MSTORE PUSH1 0x20 ADD PUSH0 KECCAK256 SLOAD TIMESTAMP PUSH2 0x590 SWAP2 SWAP1 PUSH2 0x1391 JUMP JUMPDEST SWAP1 POP PUSH0 PUSH4 0x1E14320 DUP3 PUSH1 0x5 PUSH0 CALLER PUSH20 0xFFFFFFFFFFFFFFFFFFFFFFFFFFFFFFFFFFFFFFFF AND PUSH20 0xFFFFFFFFFFFFFFFFFFFFFFFFFFFFFFFFFFFFFFFF AND DUP2 MSTORE PUSH1 0x20 ADD SWAP1 DUP2 MSTORE PUSH1 0x20 ADD PUSH0 KECCAK256 SLOAD PUSH2 0x5E1 SWAP2 SWAP1 PUSH2 0x142C JUMP JUMPDEST PUSH2 0x5EB SWAP2 SWAP1 PUSH2 0x149A JUMP JUMPDEST SWAP1 POP PUSH2 0x5F7 CALLER DUP3 PUSH2 0xAE4 JUMP JUMPDEST TIMESTAMP PUSH1 0x6 PUSH0 CALLER PUSH20 0xFFFFFFFFFFFFFFFFFFFFFFFFFFFFFFFFFFFFFFFF AND PUSH20 0xFFFFFFFFFFFFFFFFFFFFFFFFFFFFFFFFFFFFFFFF AND DUP2 MSTORE PUSH1 0x20 ADD SWAP1 DUP2 MSTORE PUSH1 0x20 ADD PUSH0 KECCAK256 DUP2 SWAP1 SSTORE POP POP POP JUMP JUMPDEST PUSH0 DUP1 PUSH0 DUP4 PUSH20 0xFFFFFFFFFFFFFFFFFFFFFFFFFFFFFFFFFFFFFFFF AND PUSH20 0xFFFFFFFFFFFFFFFFFFFFFFFFFFFFFFFFFFFFFFFF AND DUP2 MSTORE PUSH1 0x20 ADD SWAP1 DUP2 MSTORE PUSH1 0x20 ADD PUSH0 KECCAK256 SLOAD SWAP1 POP SWAP2 SWAP1 POP JUMP JUMPDEST PUSH1 0x60 PUSH1 0x4 DUP1 SLOAD PUSH2 0x691 SWAP1 PUSH2 0x1264 JUMP JUMPDEST DUP1 PUSH1 0x1F ADD PUSH1 0x20 DUP1 SWAP2 DIV MUL PUSH1 0x20 ADD PUSH1 0x40 MLOAD SWAP1 DUP2 ADD PUSH1 0x40 MSTORE DUP1 SWAP3 SWAP2 SWAP1 DUP2 DUP2 MSTORE PUSH1 0x20 ADD DUP3 DUP1 SLOAD PUSH2 0x6BD SWAP1 PUSH2 0x1264 JUMP JUMPDEST DUP1 ISZERO PUSH2 0x708 JUMPI DUP1 PUSH1 0x1F LT PUSH2 0x6DF JUMPI PUSH2 0x100 DUP1 DUP4 SLOAD DIV MUL DUP4 MSTORE SWAP2 PUSH1 0x20 ADD SWAP2 PUSH2 0x708 JUMP JUMPDEST DUP3 ADD SWAP2 SWAP1 PUSH0 MSTORE PUSH1 0x20 PUSH0 KECCAK256 SWAP1 JUMPDEST DUP2 SLOAD DUP2 MSTORE SWAP1 PUSH1 0x1 ADD SWAP1 PUSH1 0x20 ADD DUP1 DUP4 GT PUSH2 0x6EB JUMPI DUP3 SWAP1 SUB PUSH1 0x1F AND DUP3 ADD SWAP2 JUMPDEST POP POP POP POP POP SWAP1 POP SWAP1 JUMP JUMPDEST PUSH1 0x5 PUSH1 0x20 MSTORE DUP1 PUSH0 MSTORE PUSH1 0x40 PUSH0 KECCAK256 PUSH0 SWAP2 POP SWAP1 POP SLOAD DUP2 JUMP JUMPDEST PUSH0 DUP2 GT PUSH2 0x769 JUMPI PUSH1 0x40 MLOAD PUSH32 0x8C379A000000000000000000000000000000000000000000000000000000000 DUP2 MSTORE PUSH1 0x4 ADD PUSH2 0x760 SWAP1 PUSH2 0x12DE JUMP JUMPDEST PUSH1 0x40 MLOAD DUP1 SWAP2 SUB SWAP1 REVERT JUMPDEST DUP1 PUSH2 0x773 CALLER PUSH2 0x63D JUMP JUMPDEST LT ISZERO PUSH2 0x7B4 JUMPI PUSH1 0x40 MLOAD PUSH32 0x8C379A000000000000000000000000000000000000000000000000000000000 DUP2 MSTORE PUSH1 0x4 ADD PUSH2 0x7AB SWAP1 PUSH2 0x1514 JUMP JUMPDEST PUSH1 0x40 MLOAD DUP1 SWAP2 SUB SWAP1 REVERT JUMPDEST PUSH2 0x7BF CALLER ADDRESS DUP4 PUSH2 0x9F4 JUMP JUMPDEST PUSH0 PUSH1 0x5 PUSH0 CALLER PUSH20 0xFFFFFFFFFFFFFFFFFFFFFFFFFFFFFFFFFFFFFFFF AND PUSH20 0xFFFFFFFFFFFFFFFFFFFFFFFFFFFFFFFFFFFFFFFF AND DUP2 MSTORE PUSH1 0x20 ADD SWAP1 DUP2 MSTORE PUSH1 0x20 ADD PUSH0 KECCAK256 SLOAD GT ISZERO PUSH2 0x80D JUMPI PUSH2 0x80C PUSH2 0x4C7 JUMP JUMPDEST JUMPDEST TIMESTAMP PUSH1 0x6 PUSH0 CALLER PUSH20 0xFFFFFFFFFFFFFFFFFFFFFFFFFFFFFFFFFFFFFFFF AND PUSH20 0xFFFFFFFFFFFFFFFFFFFFFFFFFFFFFFFFFFFFFFFF AND DUP2 MSTORE PUSH1 0x20 ADD SWAP1 DUP2 MSTORE PUSH1 0x20 ADD PUSH0 KECCAK256 DUP2 SWAP1 SSTORE POP DUP1 PUSH1 0x5 PUSH0 CALLER PUSH20 0xFFFFFFFFFFFFFFFFFFFFFFFFFFFFFFFFFFFFFFFF AND PUSH20 0xFFFFFFFFFFFFFFFFFFFFFFFFFFFFFFFFFFFFFFFF AND DUP2 MSTORE PUSH1 0x20 ADD SWAP1 DUP2 MSTORE PUSH1 0x20 ADD PUSH0 KECCAK256 PUSH0 DUP3 DUP3 SLOAD PUSH2 0x89B SWAP2 SWAP1 PUSH2 0x1532 JUMP JUMPDEST SWAP3 POP POP DUP2 SWAP1 SSTORE POP POP JUMP JUMPDEST PUSH0 DUP1 PUSH2 0x8AF PUSH2 0x949 JUMP JUMPDEST SWAP1 POP PUSH2 0x8BC DUP2 DUP6 DUP6 PUSH2 0x9F4 JUMP JUMPDEST PUSH1 0x1 SWAP2 POP POP SWAP3 SWAP2 POP POP JUMP JUMPDEST PUSH0 PUSH1 0x1 PUSH0 DUP5 PUSH20 0xFFFFFFFFFFFFFFFFFFFFFFFFFFFFFFFFFFFFFFFF AND PUSH20 0xFFFFFFFFFFFFFFFFFFFFFFFFFFFFFFFFFFFFFFFF AND DUP2 MSTORE PUSH1 0x20 ADD SWAP1 DUP2 MSTORE PUSH1 0x20 ADD PUSH0 KECCAK256 PUSH0 DUP4 PUSH20 0xFFFFFFFFFFFFFFFFFFFFFFFFFFFFFFFFFFFFFFFF AND PUSH20 0xFFFFFFFFFFFFFFFFFFFFFFFFFFFFFFFFFFFFFFFF AND DUP2 MSTORE PUSH1 0x20 ADD SWAP1 DUP2 MSTORE PUSH1 0x20 ADD PUSH0 KECCAK256 SLOAD SWAP1 POP SWAP3 SWAP2 POP POP JUMP JUMPDEST PUSH0 CALLER SWAP1 POP SWAP1 JUMP JUMPDEST PUSH2 0x95D DUP4 DUP4 DUP4 PUSH1 0x1 PUSH2 0xB63 JUMP JUMPDEST POP POP POP JUMP JUMPDEST PUSH0 PUSH2 0x96D DUP5 DUP5 PUSH2 0x8C7 JUMP JUMPDEST SWAP1 POP PUSH32 0xFFFFFFFFFFFFFFFFFFFFFFFFFFFFFFFFFFFFFFFFFFFFFFFFFFFFFFFFFFFFFFFF DUP2 EQ PUSH2 0x9EE JUMPI DUP2 DUP2 LT ISZERO PUSH2 0x9DF JUMPI DUP3 DUP2 DUP4 PUSH1 0x40 MLOAD PUSH32 0xFB8F41B200000000000000000000000000000000000000000000000000000000 DUP2 MSTORE PUSH1 0x4 ADD PUSH2 0x9D6 SWAP4 SWAP3 SWAP2 SWAP1 PUSH2 0x1574 JUMP JUMPDEST PUSH1 0x40 MLOAD DUP1 SWAP2 SUB SWAP1 REVERT JUMPDEST PUSH2 0x9ED DUP5 DUP5 DUP5 DUP5 SUB PUSH0 PUSH2 0xB63 JUMP JUMPDEST JUMPDEST POP POP POP POP JUMP JUMPDEST PUSH0 PUSH20 0xFFFFFFFFFFFFFFFFFFFFFFFFFFFFFFFFFFFFFFFF AND DUP4 PUSH20 0xFFFFFFFFFFFFFFFFFFFFFFFFFFFFFFFFFFFFFFFF AND SUB PUSH2 0xA64 JUMPI PUSH0 PUSH1 0x40 MLOAD PUSH32 0x96C6FD1E00000000000000000000000000000000000000000000000000000000 DUP2 MSTORE PUSH1 0x4 ADD PUSH2 0xA5B SWAP2 SWAP1 PUSH2 0x15A9 JUMP JUMPDEST PUSH1 0x40 MLOAD DUP1 SWAP2 SUB SWAP1 REVERT JUMPDEST PUSH0 PUSH20 0xFFFFFFFFFFFFFFFFFFFFFFFFFFFFFFFFFFFFFFFF AND DUP3 PUSH20 0xFFFFFFFFFFFFFFFFFFFFFFFFFFFFFFFFFFFFFFFF AND SUB PUSH2 0xAD4 JUMPI PUSH0 PUSH1 0x40 MLOAD PUSH32 0xEC442F0500000000000000000000000000000000000000000000000000000000 DUP2 MSTORE PUSH1 0x4 ADD PUSH2 0xACB SWAP2 SWAP1 PUSH2 0x15A9 JUMP JUMPDEST PUSH1 0x40 MLOAD DUP1 SWAP2 SUB SWAP1 REVERT JUMPDEST PUSH2 0xADF DUP4 DUP4 DUP4 PUSH2 0xD32 JUMP JUMPDEST POP POP POP JUMP JUMPDEST PUSH0 PUSH20 0xFFFFFFFFFFFFFFFFFFFFFFFFFFFFFFFFFFFFFFFF AND DUP3 PUSH20 0xFFFFFFFFFFFFFFFFFFFFFFFFFFFFFFFFFFFFFFFF AND SUB PUSH2 0xB54 JUMPI PUSH0 PUSH1 0x40 MLOAD PUSH32 0xEC442F0500000000000000000000000000000000000000000000000000000000 DUP2 MSTORE PUSH1 0x4 ADD PUSH2 0xB4B SWAP2 SWAP1 PUSH2 0x15A9 JUMP JUMPDEST PUSH1 0x40 MLOAD DUP1 SWAP2 SUB SWAP1 REVERT JUMPDEST PUSH2 0xB5F PUSH0 DUP4 DUP4 PUSH2 0xD32 JUMP JUMPDEST POP POP JUMP JUMPDEST PUSH0 PUSH20 0xFFFFFFFFFFFFFFFFFFFFFFFFFFFFFFFFFFFFFFFF AND DUP5 PUSH20 0xFFFFFFFFFFFFFFFFFFFFFFFFFFFFFFFFFFFFFFFF AND SUB PUSH2 0xBD3 JUMPI PUSH0 PUSH1 0x40 MLOAD PUSH32 0xE602DF0500000000000000000000000000000000000000000000000000000000 DUP2 MSTORE PUSH1 0x4 ADD PUSH2 0xBCA SWAP2 SWAP1 PUSH2 0x15A9 JUMP JUMPDEST PUSH1 0x40 MLOAD DUP1 SWAP2 SUB SWAP1 REVERT JUMPDEST PUSH0 PUSH20 0xFFFFFFFFFFFFFFFFFFFFFFFFFFFFFFFFFFFFFFFF AND DUP4 PUSH20 0xFFFFFFFFFFFFFFFFFFFFFFFFFFFFFFFFFFFFFFFF AND SUB PUSH2 0xC43 JUMPI PUSH0 PUSH1 0x40 MLOAD PUSH32 0x94280D6200000000000000000000000000000000000000000000000000000000 DUP2 MSTORE PUSH1 0x4 ADD PUSH2 0xC3A SWAP2 SWAP1 PUSH2 0x15A9 JUMP JUMPDEST PUSH1 0x40 MLOAD DUP1 SWAP2 SUB SWAP1 REVERT JUMPDEST DUP2 PUSH1 0x1 PUSH0 DUP7 PUSH20 0xFFFFFFFFFFFFFFFFFFFFFFFFFFFFFFFFFFFFFFFF AND PUSH20 0xFFFFFFFFFFFFFFFFFFFFFFFFFFFFFFFFFFFFFFFF AND DUP2 MSTORE PUSH1 0x20 ADD SWAP1 DUP2 MSTORE PUSH1 0x20 ADD PUSH0 KECCAK256 PUSH0 DUP6 PUSH20 0xFFFFFFFFFFFFFFFFFFFFFFFFFFFFFFFFFFFFFFFF AND PUSH20 0xFFFFFFFFFFFFFFFFFFFFFFFFFFFFFFFFFFFFFFFF AND DUP2 MSTORE PUSH1 0x20 ADD SWAP1 DUP2 MSTORE PUSH1 0x20 ADD PUSH0 KECCAK256 DUP2 SWAP1 SSTORE POP DUP1 ISZERO PUSH2 0xD2C JUMPI DUP3 PUSH20 0xFFFFFFFFFFFFFFFFFFFFFFFFFFFFFFFFFFFFFFFF AND DUP5 PUSH20 0xFFFFFFFFFFFFFFFFFFFFFFFFFFFFFFFFFFFFFFFF AND PUSH32 0x8C5BE1E5EBEC7D5BD14F71427D1E84F3DD0314C0F7B2291E5B200AC8C7C3B925 DUP5 PUSH1 0x40 MLOAD PUSH2 0xD23 SWAP2 SWAP1 PUSH2 0x1106 JUMP JUMPDEST PUSH1 0x40 MLOAD DUP1 SWAP2 SUB SWAP1 LOG3 JUMPDEST POP POP POP POP JUMP JUMPDEST PUSH0 PUSH20 0xFFFFFFFFFFFFFFFFFFFFFFFFFFFFFFFFFFFFFFFF AND DUP4 PUSH20 0xFFFFFFFFFFFFFFFFFFFFFFFFFFFFFFFFFFFFFFFF AND SUB PUSH2 0xD82 JUMPI DUP1 PUSH1 0x2 PUSH0 DUP3 DUP3 SLOAD PUSH2 0xD76 SWAP2 SWAP1 PUSH2 0x1532 JUMP JUMPDEST SWAP3 POP POP DUP2 SWAP1 SSTORE POP PUSH2 0xE50 JUMP JUMPDEST PUSH0 DUP1 PUSH0 DUP6 PUSH20 0xFFFFFFFFFFFFFFFFFFFFFFFFFFFFFFFFFFFFFFFF AND PUSH20 0xFFFFFFFFFFFFFFFFFFFFFFFFFFFFFFFFFFFFFFFF AND DUP2 MSTORE PUSH1 0x20 ADD SWAP1 DUP2 MSTORE PUSH1 0x20 ADD PUSH0 KECCAK256 SLOAD SWAP1 POP DUP2 DUP2 LT ISZERO PUSH2 0xE0B JUMPI DUP4 DUP2 DUP4 PUSH1 0x40 MLOAD PUSH32 0xE450D38C00000000000000000000000000000000000000000000000000000000 DUP2 MSTORE PUSH1 0x4 ADD PUSH2 0xE02 SWAP4 SWAP3 SWAP2 SWAP1 PUSH2 0x1574 JUMP JUMPDEST PUSH1 0x40 MLOAD DUP1 SWAP2 SUB SWAP1 REVERT JUMPDEST DUP2 DUP2 SUB PUSH0 DUP1 DUP7 PUSH20 0xFFFFFFFFFFFFFFFFFFFFFFFFFFFFFFFFFFFFFFFF AND PUSH20 0xFFFFFFFFFFFFFFFFFFFFFFFFFFFFFFFFFFFFFFFF AND DUP2 MSTORE PUSH1 0x20 ADD SWAP1 DUP2 MSTORE PUSH1 0x20 ADD PUSH0 KECCAK256 DUP2 SWAP1 SSTORE POP POP JUMPDEST PUSH0 PUSH20 0xFFFFFFFFFFFFFFFFFFFFFFFFFFFFFFFFFFFFFFFF AND DUP3 PUSH20 0xFFFFFFFFFFFFFFFFFFFFFFFFFFFFFFFFFFFFFFFF AND SUB PUSH2 0xE97 JUMPI DUP1 PUSH1 0x2 PUSH0 DUP3 DUP3 SLOAD SUB SWAP3 POP POP DUP2 SWAP1 SSTORE POP PUSH2 0xEE1 JUMP JUMPDEST DUP1 PUSH0 DUP1 DUP5 PUSH20 0xFFFFFFFFFFFFFFFFFFFFFFFFFFFFFFFFFFFFFFFF AND PUSH20 0xFFFFFFFFFFFFFFFFFFFFFFFFFFFFFFFFFFFFFFFF AND DUP2 MSTORE PUSH1 0x20 ADD SWAP1 DUP2 MSTORE PUSH1 0x20 ADD PUSH0 KECCAK256 PUSH0 DUP3 DUP3 SLOAD ADD SWAP3 POP POP DUP2 SWAP1 SSTORE POP JUMPDEST DUP2 PUSH20 0xFFFFFFFFFFFFFFFFFFFFFFFFFFFFFFFFFFFFFFFF AND DUP4 PUSH20 0xFFFFFFFFFFFFFFFFFFFFFFFFFFFFFFFFFFFFFFFF AND PUSH32 0xDDF252AD1BE2C89B69C2B068FC378DAA952BA7F163C4A11628F55A4DF523B3EF DUP4 PUSH1 0x40 MLOAD PUSH2 0xF3E SWAP2 SWAP1 PUSH2 0x1106 JUMP JUMPDEST PUSH1 0x40 MLOAD DUP1 SWAP2 SUB SWAP1 LOG3 POP POP POP JUMP JUMPDEST PUSH0 DUP2 MLOAD SWAP1 POP SWAP2 SWAP1 POP JUMP JUMPDEST PUSH0 DUP3 DUP3 MSTORE PUSH1 0x20 DUP3 ADD SWAP1 POP SWAP3 SWAP2 POP POP JUMP JUMPDEST PUSH0 JUMPDEST DUP4 DUP2 LT ISZERO PUSH2 0xF82 JUMPI DUP1 DUP3 ADD MLOAD DUP2 DUP5 ADD MSTORE PUSH1 0x20 DUP2 ADD SWAP1 POP PUSH2 0xF67 JUMP JUMPDEST PUSH0 DUP5 DUP5 ADD MSTORE POP POP POP POP JUMP JUMPDEST PUSH0 PUSH1 0x1F NOT PUSH1 0x1F DUP4 ADD AND SWAP1 POP SWAP2 SWAP1 POP JUMP JUMPDEST PUSH0 PUSH2 0xFA7 DUP3 PUSH2 0xF4B JUMP JUMPDEST PUSH2 0xFB1 DUP2 DUP6 PUSH2 0xF55 JUMP JUMPDEST SWAP4 POP PUSH2 0xFC1 DUP2 DUP6 PUSH1 0x20 DUP7 ADD PUSH2 0xF65 JUMP JUMPDEST PUSH2 0xFCA DUP2 PUSH2 0xF8D JUMP JUMPDEST DUP5 ADD SWAP2 POP POP SWAP3 SWAP2 POP POP JUMP JUMPDEST PUSH0 PUSH1 0x20 DUP3 ADD SWAP1 POP DUP2 DUP2 SUB PUSH0 DUP4 ADD MSTORE PUSH2 0xFED DUP2 DUP5 PUSH2 0xF9D JUMP JUMPDEST SWAP1 POP SWAP3 SWAP2 POP POP JUMP JUMPDEST PUSH0 DUP1 REVERT JUMPDEST PUSH0 PUSH20 0xFFFFFFFFFFFFFFFFFFFFFFFFFFFFFFFFFFFFFFFF DUP3 AND SWAP1 POP SWAP2 SWAP1 POP JUMP JUMPDEST PUSH0 PUSH2 0x1022 DUP3 PUSH2 0xFF9 JUMP JUMPDEST SWAP1 POP SWAP2 SWAP1 POP JUMP JUMPDEST PUSH2 0x1032 DUP2 PUSH2 0x1018 JUMP JUMPDEST DUP2 EQ PUSH2 0x103C JUMPI PUSH0 DUP1 REVERT JUMPDEST POP JUMP JUMPDEST PUSH0 DUP2 CALLDATALOAD SWAP1 POP PUSH2 0x104D DUP2 PUSH2 0x1029 JUMP JUMPDEST SWAP3 SWAP2 POP POP JUMP JUMPDEST PUSH0 DUP2 SWAP1 POP SWAP2 SWAP1 POP JUMP JUMPDEST PUSH2 0x1065 DUP2 PUSH2 0x1053 JUMP JUMPDEST DUP2 EQ PUSH2 0x106F JUMPI PUSH0 DUP1 REVERT JUMPDEST POP JUMP JUMPDEST PUSH0 DUP2 CALLDATALOAD SWAP1 POP PUSH2 0x1080 DUP2 PUSH2 0x105C JUMP JUMPDEST SWAP3 SWAP2 POP POP JUMP JUMPDEST PUSH0 DUP1 PUSH1 0x40 DUP4 DUP6 SUB SLT ISZERO PUSH2 0x109C JUMPI PUSH2 0x109B PUSH2 0xFF5 JUMP JUMPDEST JUMPDEST PUSH0 PUSH2 0x10A9 DUP6 DUP3 DUP7 ADD PUSH2 0x103F JUMP JUMPDEST SWAP3 POP POP PUSH1 0x20 PUSH2 0x10BA DUP6 DUP3 DUP7 ADD PUSH2 0x1072 JUMP JUMPDEST SWAP2 POP POP SWAP3 POP SWAP3 SWAP1 POP JUMP JUMPDEST PUSH0 DUP2 ISZERO ISZERO SWAP1 POP SWAP2 SWAP1 POP JUMP JUMPDEST PUSH2 0x10D8 DUP2 PUSH2 0x10C4 JUMP JUMPDEST DUP3 MSTORE POP POP JUMP JUMPDEST PUSH0 PUSH1 0x20 DUP3 ADD SWAP1 POP PUSH2 0x10F1 PUSH0 DUP4 ADD DUP5 PUSH2 0x10CF JUMP JUMPDEST SWAP3 SWAP2 POP POP JUMP JUMPDEST PUSH2 0x1100 DUP2 PUSH2 0x1053 JUMP JUMPDEST DUP3 MSTORE POP POP JUMP JUMPDEST PUSH0 PUSH1 0x20 DUP3 ADD SWAP1 POP PUSH2 0x1119 PUSH0 DUP4 ADD DUP5 PUSH2 0x10F7 JUMP JUMPDEST SWAP3 SWAP2 POP POP JUMP JUMPDEST PUSH0 DUP1 PUSH0 PUSH1 0x60 DUP5 DUP7 SUB SLT ISZERO PUSH2 0x1136 JUMPI PUSH2 0x1135 PUSH2 0xFF5 JUMP JUMPDEST JUMPDEST PUSH0 PUSH2 0x1143 DUP7 DUP3 DUP8 ADD PUSH2 0x103F JUMP JUMPDEST SWAP4 POP POP PUSH1 0x20 PUSH2 0x1154 DUP7 DUP3 DUP8 ADD PUSH2 0x103F JUMP JUMPDEST SWAP3 POP POP PUSH1 0x40 PUSH2 0x1165 DUP7 DUP3 DUP8 ADD PUSH2 0x1072 JUMP JUMPDEST SWAP2 POP POP SWAP3 POP SWAP3 POP SWAP3 JUMP JUMPDEST PUSH0 PUSH1 0x20 DUP3 DUP5 SUB SLT ISZERO PUSH2 0x1184 JUMPI PUSH2 0x1183 PUSH2 0xFF5 JUMP JUMPDEST JUMPDEST PUSH0 PUSH2 0x1191 DUP5 DUP3 DUP6 ADD PUSH2 0x1072 JUMP JUMPDEST SWAP2 POP POP SWAP3 SWAP2 POP POP JUMP JUMPDEST PUSH0 PUSH1 0xFF DUP3 AND SWAP1 POP SWAP2 SWAP1 POP JUMP JUMPDEST PUSH2 0x11AF DUP2 PUSH2 0x119A JUMP JUMPDEST DUP3 MSTORE POP POP JUMP JUMPDEST PUSH0 PUSH1 0x20 DUP3 ADD SWAP1 POP PUSH2 0x11C8 PUSH0 DUP4 ADD DUP5 PUSH2 0x11A6 JUMP JUMPDEST SWAP3 SWAP2 POP POP JUMP JUMPDEST PUSH0 PUSH1 0x20 DUP3 DUP5 SUB SLT ISZERO PUSH2 0x11E3 JUMPI PUSH2 0x11E2 PUSH2 0xFF5 JUMP JUMPDEST JUMPDEST PUSH0 PUSH2 0x11F0 DUP5 DUP3 DUP6 ADD PUSH2 0x103F JUMP JUMPDEST SWAP2 POP POP SWAP3 SWAP2 POP POP JUMP JUMPDEST PUSH0 DUP1 PUSH1 0x40 DUP4 DUP6 SUB SLT ISZERO PUSH2 0x120F JUMPI PUSH2 0x120E PUSH2 0xFF5 JUMP JUMPDEST JUMPDEST PUSH0 PUSH2 0x121C DUP6 DUP3 DUP7 ADD PUSH2 0x103F JUMP JUMPDEST SWAP3 POP POP PUSH1 0x20 PUSH2 0x122D DUP6 DUP3 DUP7 ADD PUSH2 0x103F JUMP JUMPDEST SWAP2 POP POP SWAP3 POP SWAP3 SWAP1 POP JUMP JUMPDEST PUSH32 0x4E487B7100000000000000000000000000000000000000000000000000000000 PUSH0 MSTORE PUSH1 0x22 PUSH1 0x4 MSTORE PUSH1 0x24 PUSH0 REVERT JUMPDEST PUSH0 PUSH1 0x2 DUP3 DIV SWAP1 POP PUSH1 0x1 DUP3 AND DUP1 PUSH2 0x127B JUMPI PUSH1 0x7F DUP3 AND SWAP2 POP JUMPDEST PUSH1 0x20 DUP3 LT DUP2 SUB PUSH2 0x128E JUMPI PUSH2 0x128D PUSH2 0x1237 JUMP JUMPDEST JUMPDEST POP SWAP2 SWAP1 POP JUMP JUMPDEST PUSH32 0x616D6F756E74206973203C3D2030000000000000000000000000000000000000 PUSH0 DUP3 ADD MSTORE POP JUMP JUMPDEST PUSH0 PUSH2 0x12C8 PUSH1 0xE DUP4 PUSH2 0xF55 JUMP JUMPDEST SWAP2 POP PUSH2 0x12D3 DUP3 PUSH2 0x1294 JUMP JUMPDEST PUSH1 0x20 DUP3 ADD SWAP1 POP SWAP2 SWAP1 POP JUMP JUMPDEST PUSH0 PUSH1 0x20 DUP3 ADD SWAP1 POP DUP2 DUP2 SUB PUSH0 DUP4 ADD MSTORE PUSH2 0x12F5 DUP2 PUSH2 0x12BC JUMP JUMPDEST SWAP1 POP SWAP2 SWAP1 POP JUMP JUMPDEST PUSH32 0x616D6F756E74206973203E207374616B65640000000000000000000000000000 PUSH0 DUP3 ADD MSTORE POP JUMP JUMPDEST PUSH0 PUSH2 0x1330 PUSH1 0x12 DUP4 PUSH2 0xF55 JUMP JUMPDEST SWAP2 POP PUSH2 0x133B DUP3 PUSH2 0x12FC JUMP JUMPDEST PUSH1 0x20 DUP3 ADD SWAP1 POP SWAP2 SWAP1 POP JUMP JUMPDEST PUSH0 PUSH1 0x20 DUP3 ADD SWAP1 POP DUP2 DUP2 SUB PUSH0 DUP4 ADD MSTORE PUSH2 0x135D DUP2 PUSH2 0x1324 JUMP JUMPDEST SWAP1 POP SWAP2 SWAP1 POP JUMP JUMPDEST PUSH32 0x4E487B7100000000000000000000000000000000000000000000000000000000 PUSH0 MSTORE PUSH1 0x11 PUSH1 0x4 MSTORE PUSH1 0x24 PUSH0 REVERT JUMPDEST PUSH0 PUSH2 0x139B DUP3 PUSH2 0x1053 JUMP JUMPDEST SWAP2 POP PUSH2 0x13A6 DUP4 PUSH2 0x1053 JUMP JUMPDEST SWAP3 POP DUP3 DUP3 SUB SWAP1 POP DUP2 DUP2 GT ISZERO PUSH2 0x13BE JUMPI PUSH2 0x13BD PUSH2 0x1364 JUMP JUMPDEST JUMPDEST SWAP3 SWAP2 POP POP JUMP JUMPDEST PUSH32 0x7374616B6564206973203C3D2030000000000000000000000000000000000000 PUSH0 DUP3 ADD MSTORE POP JUMP JUMPDEST PUSH0 PUSH2 0x13F8 PUSH1 0xE DUP4 PUSH2 0xF55 JUMP JUMPDEST SWAP2 POP PUSH2 0x1403 DUP3 PUSH2 0x13C4 JUMP JUMPDEST PUSH1 0x20 DUP3 ADD SWAP1 POP SWAP2 SWAP1 POP JUMP JUMPDEST PUSH0 PUSH1 0x20 DUP3 ADD SWAP1 POP DUP2 DUP2 SUB PUSH0 DUP4 ADD MSTORE PUSH2 0x1425 DUP2 PUSH2 0x13EC JUMP JUMPDEST SWAP1 POP SWAP2 SWAP1 POP JUMP JUMPDEST PUSH0 PUSH2 0x1436 DUP3 PUSH2 0x1053 JUMP JUMPDEST SWAP2 POP PUSH2 0x1441 DUP4 PUSH2 0x1053 JUMP JUMPDEST SWAP3 POP DUP3 DUP3 MUL PUSH2 0x144F DUP2 PUSH2 0x1053 JUMP JUMPDEST SWAP2 POP DUP3 DUP3 DIV DUP5 EQ DUP4 ISZERO OR PUSH2 0x1466 JUMPI PUSH2 0x1465 PUSH2 0x1364 JUMP JUMPDEST JUMPDEST POP SWAP3 SWAP2 POP POP JUMP JUMPDEST PUSH32 0x4E487B7100000000000000000000000000000000000000000000000000000000 PUSH0 MSTORE PUSH1 0x12 PUSH1 0x4 MSTORE PUSH1 0x24 PUSH0 REVERT JUMPDEST PUSH0 PUSH2 0x14A4 DUP3 PUSH2 0x1053 JUMP JUMPDEST SWAP2 POP PUSH2 0x14AF DUP4 PUSH2 0x1053 JUMP JUMPDEST SWAP3 POP DUP3 PUSH2 0x14BF JUMPI PUSH2 0x14BE PUSH2 0x146D JUMP JUMPDEST JUMPDEST DUP3 DUP3 DIV SWAP1 POP SWAP3 SWAP2 POP POP JUMP JUMPDEST PUSH32 0x62616C616E6365206973203C3D20616D6F756E74000000000000000000000000 PUSH0 DUP3 ADD MSTORE POP JUMP JUMPDEST PUSH0 PUSH2 0x14FE PUSH1 0x14 DUP4 PUSH2 0xF55 JUMP JUMPDEST SWAP2 POP PUSH2 0x1509 DUP3 PUSH2 0x14CA JUMP JUMPDEST PUSH1 0x20 DUP3 ADD SWAP1 POP SWAP2 SWAP1 POP JUMP JUMPDEST PUSH0 PUSH1 0x20 DUP3 ADD SWAP1 POP DUP2 DUP2 SUB PUSH0 DUP4 ADD MSTORE PUSH2 0x152B DUP2 PUSH2 0x14F2 JUMP JUMPDEST SWAP1 POP SWAP2 SWAP1 POP JUMP JUMPDEST PUSH0 PUSH2 0x153C DUP3 PUSH2 0x1053 JUMP JUMPDEST SWAP2 POP PUSH2 0x1547 DUP4 PUSH2 0x1053 JUMP JUMPDEST SWAP3 POP DUP3 DUP3 ADD SWAP1 POP DUP1 DUP3 GT ISZERO PUSH2 0x155F JUMPI PUSH2 0x155E PUSH2 0x1364 JUMP JUMPDEST JUMPDEST SWAP3 SWAP2 POP POP JUMP JUMPDEST PUSH2 0x156E DUP2 PUSH2 0x1018 JUMP JUMPDEST DUP3 MSTORE POP POP JUMP JUMPDEST PUSH0 PUSH1 0x60 DUP3 ADD SWAP1 POP PUSH2 0x1587 PUSH0 DUP4 ADD DUP7 PUSH2 0x1565 JUMP JUMPDEST PUSH2 0x1594 PUSH1 0x20 DUP4 ADD DUP6 PUSH2 0x10F7 JUMP JUMPDEST PUSH2 0x15A1 PUSH1 0x40 DUP4 ADD DUP5 PUSH2 0x10F7 JUMP JUMPDEST SWAP5 SWAP4 POP POP POP POP JUMP JUMPDEST PUSH0 PUSH1 0x20 DUP3 ADD SWAP1 POP PUSH2 0x15BC PUSH0 DUP4 ADD DUP5 PUSH2 0x1565 JUMP JUMPDEST SWAP3 SWAP2 POP POP JUMP INVALID LOG2 PUSH5 0x6970667358 0x22 SLT KECCAK256 0xA8 0xCC 0xB8 0xAF 0xE4 DUP3 0xA8 0xE9 MSTORE8 MULMOD 0xCB SHL SLT TSTORE 0xD RETURNDATACOPY PUSH14 0x2E9A58A5E616B7A4A3677C5E132 CREATE PUSH5 0x736F6C6343 STOP ADDMOD XOR STOP CALLER "
				},
				"gasEstimates": {
					"creation": {
						"codeDepositCost": "1124800",
						"executionCost": "infinite",
						"totalCost": "infinite"
					},
					"external": {
						"allowance(address,address)": "infinite",
						"approve(address,uint256)": "infinite",
						"balanceOf(address)": "2874",
						"claim()": "infinite",
						"decimals()": "449",
						"name()": "infinite",
						"stake(uint256)": "infinite",
						"staked(address)": "2824",
						"symbol()": "infinite",
						"totalSupply()": "2477",
						"transfer(address,uint256)": "infinite",
						"transferFrom(address,address,uint256)": "infinite",
						"unstake(uint256)": "infinite"
					}
				},
				"methodIdentifiers": {
					"allowance(address,address)": "dd62ed3e",
					"approve(address,uint256)": "095ea7b3",
					"balanceOf(address)": "70a08231",
					"claim()": "4e71d92d",
					"decimals()": "313ce567",
					"name()": "06fdde03",
					"stake(uint256)": "a694fc3a",
					"staked(address)": "98807d84",
					"symbol()": "95d89b41",
					"totalSupply()": "18160ddd",
					"transfer(address,uint256)": "a9059cbb",
					"transferFrom(address,address,uint256)": "23b872dd",
					"unstake(uint256)": "2e17de78"
				}
			},
			"storageLayout": {
				"storage": [
					{
						"astId": 279,
						"contract": "contracts/fixed-rate-staking-contract/FixedRateStaking_flattened.sol:FixedStaking",
						"label": "_balances",
						"offset": 0,
						"slot": "0",
						"type": "t_mapping(t_address,t_uint256)"
					},
					{
						"astId": 285,
						"contract": "contracts/fixed-rate-staking-contract/FixedRateStaking_flattened.sol:FixedStaking",
						"label": "_allowances",
						"offset": 0,
						"slot": "1",
						"type": "t_mapping(t_address,t_mapping(t_address,t_uint256))"
					},
					{
						"astId": 287,
						"contract": "contracts/fixed-rate-staking-contract/FixedRateStaking_flattened.sol:FixedStaking",
						"label": "_totalSupply",
						"offset": 0,
						"slot": "2",
						"type": "t_uint256"
					},
					{
						"astId": 289,
						"contract": "contracts/fixed-rate-staking-contract/FixedRateStaking_flattened.sol:FixedStaking",
						"label": "_name",
						"offset": 0,
						"slot": "3",
						"type": "t_string_storage"
					},
					{
						"astId": 291,
						"contract": "contracts/fixed-rate-staking-contract/FixedRateStaking_flattened.sol:FixedStaking",
						"label": "_symbol",
						"offset": 0,
						"slot": "4",
						"type": "t_string_storage"
					},
					{
						"astId": 778,
						"contract": "contracts/fixed-rate-staking-contract/FixedRateStaking_flattened.sol:FixedStaking",
						"label": "staked",
						"offset": 0,
						"slot": "5",
						"type": "t_mapping(t_address,t_uint256)"
					},
					{
						"astId": 782,
						"contract": "contracts/fixed-rate-staking-contract/FixedRateStaking_flattened.sol:FixedStaking",
						"label": "stakedFromTS",
						"offset": 0,
						"slot": "6",
						"type": "t_mapping(t_address,t_uint256)"
					}
				],
				"types": {
					"t_address": {
						"encoding": "inplace",
						"label": "address",
						"numberOfBytes": "20"
					},
					"t_mapping(t_address,t_mapping(t_address,t_uint256))": {
						"encoding": "mapping",
						"key": "t_address",
						"label": "mapping(address => mapping(address => uint256))",
						"numberOfBytes": "32",
						"value": "t_mapping(t_address,t_uint256)"
					},
					"t_mapping(t_address,t_uint256)": {
						"encoding": "mapping",
						"key": "t_address",
						"label": "mapping(address => uint256)",
						"numberOfBytes": "32",
						"value": "t_uint256"
					},
					"t_string_storage": {
						"encoding": "bytes",
						"label": "string",
						"numberOfBytes": "32"
					},
					"t_uint256": {
						"encoding": "inplace",
						"label": "uint256",
						"numberOfBytes": "32"
					}
				}
			},
			"userdoc": {
				"kind": "user",
				"methods": {},
				"version": 1
			}
		}
	}
}